:400000000080002011000000C50A0000C50A000008B5044B1A6803F53F5302331A6000F071FD00BFFA46004010B5054C237833B9044B13B10448AFF300800123237010BD6B
:400040004881FF1F0000000054250000084B10B51BB108490848AFF300800848036803B910BD074B002BFBD0BDE81040184700BF000000004C81FF1F54250000C880FF1F10
:4000800000000000000000002DE9F04794B062B6A74840F26B130380A6490B80A64A138003889BB2A54803800B889BB2A4490B8013889BB2A34A138000F056FE012000F01B
:4000C000E9FD002000F0DAFD00F072FA01F0A8F99D4800F077FE9D4800F0C2FD052000F081FE00240CE0E0B200F0D2FA38B12246974907A801F00AFE07A801F0ABF9013423
:400100007F2CF0DD0DF11B020F21182000F056FA48B99DF81B208F4907A801F0F7FD07A801F098F902E08C4801F094F90DF11A022721182000F042FA48B99DF81A2087497C
:4001400007A801F0E3FD07A801F084F902E0844801F080F90DF119022021182000F02EFA48B99DF819207F4907A801F0CFFD07A801F070F902E07C4801F06CF97B4801F064
:4001800069F99DF81930572B14D057228DF819202021182000F064FA48B99DF81920744907A801F0B3FD07A801F054F902E0714801F050F90DF119022021182000F0FEF984
:4001C00048B99DF819206C4907A801F09FFD07A801F040F902E0644801F03CF906AA2321182000F0EBF948B99DF81820634907A801F08CFD07A801F02DF902E0604801F0CE
:4002000029F9802214AC04F8382D2321182000F027FA22462321182000F0D0F948B99DF81820584907A801F071FD07A801F012F902E0534801F00EF960222421182000F023
:400240000FFA40B96022504907A801F05FFD07A801F000F902E04D4801F0FCF800222E21182000F0FDF940B90022494907A801F04DFD07A801F0EEF802E0444801F0EAF883
:4002800004222221182000F0EBF940B90422414907A801F03BFD07A801F0DCF802E03B4801F0D8F82A223021182000F0D9F940B92A22394907A801F029FD07A801F0CAF828
:4002C00002E0324801F0C6F832221146182000F0C7F940B93222314907A801F017FD07A801F0B8F802E0294801F0B4F801223321182000F0B5F940B90122294907A801F02A
:4003000005FD07A801F0A6F802E0204801F0A2F800240127A04625462646002F00F0298147222E21182000F09BF9002721E100BF7481FF1F7A81FF1F7681FF1F7281FF1F28
:400340007881FF1F7081FF1F01070000A90600005825000078250000A0250000C4250000E02500001C2600003C2600007826000094260000CC26000008270000402700004F
:40038000602700009C270000D0270000142800005028000094280000DC280000182900004C29000005AB02222821182000F026F904AB02222A21182000F020F903AB02223D
:4003C0002C21182000F01AF978BB9DF814309DF8152043EA022242F38912920092B2164436B29DF810309DF8111043EA012343F389139B009BB21D442DB29DF80C109DF84A
:400400000D0041EA002141F38911890089B208B241440FFA81F800901BB212B25E4907A801F074FC07A801F015F80134E4B2062C40F29F8096FBF4F095FBF4FA98FBF4F1D2
:400440000028B8BF4042BAF1000FB8BFCAF1000A0FFA8AFA81EAE175A5EBE1752DB200B201F07CF906460F4645A3D3E9002301F0DBF902460B463046394601F0D5F98046FA
:40048000894641A3D3E900233046394601F0CCF902460B464046494601F012F83CA3D3E9002301F00FF801F0D1FB80B23B4B1880504601F053F906460F4631A3D3E900236C
:4004C00001F0B2F902460B463046394601F0ACF9804689462CA3D3E900233046394601F0A3F902460B464046494600F0E9FF28A3D3E9002300F0E6FF01F0A8FB80B2284B39
:400500001880284601F02AF906460F461CA3D3E9002301F089F902460B463046394601F083F98046894618A3D3E900233046394601F07AF902460B464046494600F0C0FF0F
:4005400013A3D3E9002300F0BDFF01F07FFB80B2144B18802246144907A801F0D7FB07A800F078FF0024114B1C7026462546A04601270E4B1B7813F0FF0F7FF413AFCCE684
:400580002D431CEBE2361A3F9A9999999999D93F0000000000207940882900007A81FF1F7681FF1F7481FF1FA42900007C81FF1F08B500F09FFC002008BD00BFF8B506460C
:4005C0000D461746002100F011FE044678B9284600F09EFE044650B90121304600F046FE044620B900F0C0FE387000F075FE00F073FE201C18BF0120F8BD00BF2DE9F0416B
:4006000080460C4616461F46002100F0EFFD0546F0B944F0800000F07BFE0546C0B90121404600F023FE054650B111E0C4EB0608012000F099FE07F80800013CE4B200E0FA
:400640003446012CF2D8013E002000F08DFEB85500F042FE281C18BF0120BDE8F08100BF70B50D461646002100F0C0FD044640B9284600F04DFE044618B9304600F048FE8C
:40068000044600F029FE201C18BF012070BD00BF10B5002100F0AAFD044600F01DFE0CB9012010BD002010BD38B5104C224631211820FFF783FF0E4B1870237813F0400FC6
:4006C0000FD00C4D0C4C0FCC28606960AA60EB6020682861A288A379AA82AB75284600F0B9FE0122054B1A7038BD00BFB281FF1FB481FF1F8081FF1FB42900007C81FF1FC5
:4007000008B500F0EDFA364A13889BB2013B9BB2138034490B889BB2013B9BB20B8032490B889BB2013B9BB20B8013889BB283B92E4B1B889BB2B3F5B67F05D200F06EFA28
:40074000C043C0B200F05EFA284B1B889BB2244A1380264B1B889BB2B3F5B67F02D3012000F050FA1F4B1B889BB283B9204B1B889BB2B3F5B67F05D200F03CFAC043C0B2AA
:4007800000F02CFA1A4B1B889BB2164A1380184B1B889BB2B3F5B67F02D3012000F01EFA114B1B889BB283B9124B1B889BB2B3F5B67F05D200F00CFAC043C0B200F0FCF9D4
:4007C0000C4B1B889BB2084A13800A4B1B889BB2B3F5B67F02D3012000F0EEF908BD00BF7081FF1F7881FF1F7281FF1F7681FF1F7A81FF1F7481FF1FFEE700BFF0B4002278
:40080000174611E050F82760F3B226F0FF0608E001EB420511F812406D78A5550132013BDBB2002BF4D101371E2FEBD9F0BC70470A4B1B78DBB203F00701094A11701B0986
:40084000013213700822074B1A708023064A1370583213704422054B1A707047CF0100496E5800403D510040005B00407658004008B50A46002101F040FA08BD08B501F0E0
:4008800031FA08BD38B50024334B1C80502202331A700B2202331A801823304A137019250232158002321370EF21023211800232137004222A492B48FFF7E0FF02222A4BF4
:4008C0001A7008224FF040231A70032103F500731970264B1B78DBB225490B70254B1A8041F25122023B1A800CE0234B1B7803F0010343EA440404F003044FF4F07000F018
:40090000CBFD013D0DB1032CEFD115B90320FFF773FF1A4B4FF480721A8007221A70002217490A704820023108701A700222033B1A7004220A331A70124A137843F00F0326
:400940001370013A137843F001031370013A137843F08003137038BD80400040864000404C060048004100400043004008010049A146004022420040254200400440004094
:4009800006400040A243004038B572B6394A137843F00403137000240BE0374863001A19510001440A46098AD068FFF761FF0134E4B2082CF1D900240BE02F49A30018195D
:4009C000420088180622816C406CFFF757FF0134E4B2002CF1D029494FF09040FFF70EFF0A24274B1C70274A137843F0020313701032137843F002031370234D2B7843F01B
:400A000040032B70A2F58632513A137843F01003137008221D491E48FFF730FF22461D491D48FFF72BFF08221C491D48FFF726FF22461C491C48FFF721FF22461B491C48B6
:400A4000FFF71CFF1B4A137843F0080313701A4C61232370FFF716FF812323700122174B1A70FFF7E5FE0E2229461548FFF706FF38BD00BFE8460040CC2900007C0000483B
:400A80008358004003500140A0430040180600480251004020060048C05100402C060048125100403406004820510040400600483051004022430040004800400400084094
:400AC000B043004008B501F0E1F803680C2B00D1FEE7FEE708B5094B1A681044084BC31A802B02DC054B186005E001F0CFF80C2303604FF0FF32104608BD00BFCC80FF1FB4
:400B0000D081FF1F08B5104E104D16E029686B68AC68002204E051F8040B43F8040B0432A242F8D1E868002203E0002143F8041B04328242F9D11035013E002EE6D101F0E7
:400B4000ABF8FFF7A1FAFEE701000000742A000008B5104A104B1A60104A136843F40073136000230AE0032B03D80D4A52F8231000E00C490C4A42F8231001332F2BF2D9A4
:400B80000A4B1A780A4B1A70074A0A4B1A60FFF7FBFE08BD0004FA050CED00E014ED00E000000000C50A00000080FF1FBC760040C080FF1F08ED00E0044A137803F07F037E
:400BC000C001C0B218431070704700BF30510040014B1878C009704731510040044A137803F0BF03800100F0400018431070704730510040024B1878C0F38010704700BF6A
:400C000031510040044A137803F0DF03400100F0200018431070704730510040024B1878C0F34010704700BF31510040014B1B681864704708ED00E04001C0B2014B18702A
:400C4000704700BF00E400E00122014B1A60704700E100E00122014B1A60704780E100E010B50446FFF7F6FF2046FFF7DFFF0720FFF7E2FFFFF7E8FF10BD00BF044A137884
:400C800003F0FB03800000F00400184310707047C0510040044A137803F0F703C00000F00800184310707047C0510040084A137843F0010313701032137843F0010313706D
:400CC00002F64D32137843F001031370704700BFA3430040014B1870704700BF034F0040014B1878704700BF034F0040014B1880704700BF044F0040014B1880704700BF95
:400D0000064F004008B5154A137803F0010313700232137803F0FC031370114B1A7802F0CF021A701A7842F030021A701A7802F0F0021A701A7842F00F021A70094A1378D1
:400D400043F0010313706320FFF7D0FF6320FFF7D3FF0820FFF7BEFF08BD00BF004F00400B4F0040014F004008B5054B1B7823B9FFF7C8FF0122024B1A70FFF797FF08BD8A
:400D80006481FF1F024B1B68C3F88400704700BF08ED00E04001C0B2014B1870704700BF11E400E04FF40032014B1A60704700BF00E100E04FF40032014B1A60704700BFE1
:400DC00080E100E010B50446FFF7F4FF2046FFF7D9FF0720FFF7DEFFFFF7E4FF10BD00BF01BE704710B5044605E0084B186800F053FBA4F50044B4F5004FF6D8034B5868FB
:400E000000FB04F000F048FB10BD00BFD080FF1F70B504460E46074B1D681F2802D90020FFF7DEFF04F01F04103455F8240045F8246070BD08ED00E038B504460D4607299E
:400E400002D90020FFF7CCFF1F2C02D90020FFF7C7FF04F01F0000F1604000F564406D01EDB2057038BD00BF10B50222114B1A7081220E3B1A70082202331A7004221133A9
:400E80001A70002401331C704FF400420A4B1A6007210F20FFF7D0FF08490F20FFF7B8FF1022074B1A70074B1C70074B1C70074B1C7010BDD649004080E100E01D0F0000E6
:400EC000B581FF1FC581FF1FB881FF1FB981FF1F08B500F0E9FA064A137843F0040313701032137843F00403137000F0E1FA08BDA543004008B5074B1B7823B9FFF7B4FFFA
:400F00000122044B1A70FFF7E3FF4FF40042024B1A6008BD6581FF1F00E100E038B5A54B1C78A54B1B7813F0400F00F03A81E4B214F0010F00F01D819F4B1B78453B052BB1
:400F400000F21481DFE813F006008200120112010600DF0004F0DF0504F00A04082C42D1954B1B78DBB2452B35D1944B1B7813F0FF0F10D0924B1B681B78DBB2914A1370B5
:400F800004228C4B1A7001228F4B1A7046228A4B1A702C46EDE08D4B1B7813F0020F0DD08B4A137843F00A0313706022824B1A704FF40042874B1A602C46DAE0864A13786D
:400FC00043F0100313701022844B1A700422023B1A702C46CDE00022764B1A704A22764B1A702C46C5E00A2C2BD1794A137843F0A0031370754B1B7813F0020F14D06E4B79
:401000001B7813F0080F01D0092300E00A23704A11780B4313706022674B1A704FF400426C4B1A602C46A4E06B4A137843F0100313701022694B1A700422023B1A702C46A3
:4010400097E00020FFF7CCFE2C4692E014F0020F36D15D4B1A78D2B2584B1B78DBB29A4210D2594A1378DBB255490968CB5CDBB254490B7004214F4B197013780133DBB2B0
:40108000137076E0514B1B7813F0020F0CD0504A137843F00A0313706022474B1A704FF400424C4B1A6064E04B4A137843F0100313701022494B1A700422023B1A7058E07A
:4010C000424B1B7813F0020F0CD0414A137843F09A0313706022384B1A704FF400423D4B1A6046E03C4A137843F01003137010223A4B1A700422023B1A70354A137843F0F6
:401100009003137035E0364A1378DBB2354908682C490978C9B2C15413780133DBB213701278D2B2304B1B78DBB29A4203D21022204B1A701DE0254B1B7813F0020F0CD038
:40114000234A137843F00903137060221A4B1A704FF400421F4B1A600BE01F4A137843F0100313700022134B1A7002E00020FFF737FE14F0200F1CD00F4B1B7813F0080FD6
:4011800001D0012300E00223114A11780B431370114A137803F0EF0313701022064B1A7038BD054B1B7813F0100F02D11022024B1A7038BDD7490040B581FF1FBA81FF1F4D
:4011C000BC81FF1FD8490040B981FF1FC481FF1FC581FF1F80E100E0D6490040D9490040B881FF1FC081FF1FC681FF1F1A4B1B78DBB2102B29D1194B1B7813F0080F26D135
:401200004FF40042164B1A604000C0B229B140F001004922104B1A7002E045220E4B1A70104B1870012201331A700F4B1B7813F0010FFAD00C4B1B7803F00A030A2B08D18F
:401240001022054B1A700320704702207047012070470020704700BFB581FF1FD949004080E100E0D8490040D7490040164B1B7813F0040F23D04000C0B229B140F00100CF
:401280004922124B1A7002E04522104B1A70104B1870122201331A700422023B1A700D4B1B7813F0010FFAD00A4B1B7803F00A030A2B06D11022054B1A7003207047022028
:4012C00070470020704700BFD9490040B581FF1FD8490040D74900400A4B1B7813F0040F0ED01023074A13700421023A1170064A1370064B1B7813F0210FFAD000207047DA
:4013000002207047D9490040B581FF1FD7490040114B1B7813F0040F1BD0104B18700422013B1A7046220E4B1A700E4B1B7813F0010FFAD00B4B1B7813F0020F04D1602297
:40134000074B1A70002070476022054B1A70032070470220704700BFD9490040D8490040B581FF1FD7490040114B1B7813F0040F1BD0104B1B78DBB2492B05D100220E4B45
:401380001A704A220B4B1A700B4B1B7813F0010FFAD00A4B1B78DBB218B11021064A117004E06021034A117000E0002318467047D9490040B581FF1FD7490040D84900408F
:4013C0007222084B1A702022013B1A700622A3F25F131A70472210331A70002203F5A9731A7070478965004010B500F05DF804460A4A137843F020031370013A137843F0DB
:40140000100313700332137843F01003137000F033F8204600F04CF810BD00BF9965004008B5054B1B7823B9FFF7CAFF0122024B1A70FFF7D9FF08BD6681FF1F034B1B7860
:4014400013F0040FFAD1024B187070476B6500404B65004038B5074B1B782BB938BDFFF7EDFF0134A4B201E005460024285D0028F5D138BD6681FF1F054A137843F0040316
:4014800013701032137843F004031370704700BFA2430040000000000230800803D000BF01380046FCD17047EFF3108072B6704780F31088704700BF81F0004102E000BF10
:4014C00083F0004330B54FEA41044FEA430594EA050F08BF90EA020F1FBF54EA000C55EA020C7FEA645C7FEA655C00F0E2804FEA5454D4EB5555B8BF6D420CDD2C4480EA21
:40150000020281EA030382EA000083EA010180EA020281EA0303362D88BF30BD11F0004F4FEA01314FF4801C4CEA113102D0404261EB410113F0004F4FEA03334CEA1333B4
:4015400002D0524263EB430394EA050F00F0A780A4F10104D5F1200E0DDB02FA0EFC22FA05F2801841F1000103FA0EF2801843FA05F359410EE0A5F120050EF1200E012A09
:4015800003FA0EFC28BF4CF0020C43FA05F3C01851EBE37101F0004507D54FF0000EDCF1000C7EEB00006EEB0101B1F5801F1BD3B1F5001F0CD349085FEA30004FEA3C0C38
:4015C00004F101044FEA445212F5800F80F09A80BCF1004F08BF5FEA500C50F1000041EB045141EA050130BD5FEA4C0C404141EB010111F4801FA4F10104E9D191F0000FE2
:4016000004BF01460020B1FA81F308BF2033A3F10B03B3F120020CDA0C3208DD02F1140CC2F10C0201FA0CF021FA02F10CE002F11402D8BFC2F1200C01FA02F120FA0CFC82
:40164000DCBF41EA0C019040E41AA2BF01EB0451294330BD6FEA04041F3C1CDA0C340EDC04F11404C4F1200220FA04F001FA02F340EA030021FA04F345EA030130BDC4F1FC
:401680000C04C4F1200220FA02F001FA04F340EA0300294630BD21FA04F0294630BD94F0000F83F4801306BF81F480110134013D4EE77FEA645C18BF7FEA655C29D094EAA0
:4016C000050F08BF90EA020F05D054EA000C04BF1946104630BD91EA030F1EBF0021002030BD5FEA545C05D14000494128BF41F0004130BD14F580043CBF01F5801130BD8D
:4017000001F0004545F0FE4141F470014FF0000030BD7FEA645C1ABF194610467FEA655C1CBF0B46024650EA013406BF52EA033591EA030F41F4002130BD00BF90F0000F12
:4017400004BF0021704730B54FF4806404F132044FF000054FF0000150E700BF90F0000F04BF0021704730B54FF4806404F1320410F0004548BF40424FF000013EE700BFCA
:4017800042004FEAE2014FEA31014FEA02701FBF12F07F4393F07F4F81F06051704792F0000F14BF93F07F4F704730B54FF4607401F0004521F0004120E700BF50EA0102F6
:4017C00008BF704730B54FF000050AE050EA010208BF704730B511F0004502D5404261EB41014FF4806404F132045FEA915C3FF4DCAE4FF003025FEADC0C18BF03325FEA7C
:40180000DC0C18BF033202EBDC02C2F1200300FA03FC20FA02F001FA03FE40EA0E0021FA02F11444C1E600BF70B54FF0FF0C4CF4E06C1CEA11541DBF1CEA135594EA0C0FC5
:4018400095EA0C0F00F0DEF82C4481EA030621EA4C5123EA4C5350EA013518BF52EA033541F4801143F4801338D0A0FB02CE4FF00005E1FB02E506F00042E0FB03E54FF0D1
:401880000006E1FB03569CF0000F18BF4EF0010EA4F1FF04B6F5007F64F5407404D25FEA4E0E6D4146EB060642EAC62141EA55514FEAC52040EA5E504FEACE2EB4F1FD0C3C
:4018C00088BFBCF5E06F1ED8BEF1004F08BF5FEA500E50F1000041EB045170BD06F0004646EA010140EA020081EA0301B4EB5C04C2BFD4EB0C0541EA045170BD41F4801184
:401900004FF0000E013C00F3AB8014F1360FDEBF002001F0004170BDC4F10004203C35DA0C341BDC04F11404C4F1200500FA05F320FA04F001FA05F240EA020001F0004206
:4019400021F0004110EBD37021FA04F642EB06015EEA430E08BF20EAD37070BDC4F10C04C4F1200500FA04F320FA05F001FA04F240EA020001F0004110EBD37041F1000155
:401980005EEA430E08BF20EAD37070BDC4F1200500FA05F24EEA020E20FA04F301FA05F243EA020321FA04F001F0004121FA04F220EA020000EBD3705EEA430E08BF20EA0F
:4019C000D37070BD94F0000F0FD101F00046400041EB010111F4801F08BF013CF7D041EA060195F0000F18BF704703F00046520043EB030313F4801F08BF013DF7D043EA3E
:401A00000603704794EA0C0F0CEA135518BF95EA0C0F0CD050EA410618BF52EA4306D1D181EA030101F000414FF0000070BD50EA410606BF1046194652EA430619D094EA2F
:401A40000C0F02D150EA013613D195EA0C0F05D152EA03361CBF104619460AD181EA030101F0004141F0FE4141F470014FF0000070BD41F0FE4141F4780170BD70B54FF001
:401A8000FF0C4CF4E06C1CEA11541DBF1CEA135594EA0C0F95EA0C0F00F0A7F8A4EB050481EA030E52EA03354FEA013100F088804FEA03334FF0805545EA131343EA1263B3
:401AC0004FEA022245EA111545EA10654FEA00260EF000419D4208BF964244F1FD0404F5407402D25B084FEA3202B61A65EB03055B084FEA32024FF480104FF4002CB6EB12
:401B0000020E75EB030E22BFB61A754640EA0C005B084FEA3202B6EB020E75EB030E22BFB61A754640EA5C005B084FEA3202B6EB020E75EB030E22BFB61A754640EA9C007A
:401B40005B084FEA3202B6EB020E75EB030E22BFB61A754640EADC0055EA060E18D04FEA051545EA16754FEA06164FEAC30343EA52734FEAC2025FEA1C1CC0D111F4801FC0
:401B80000BD141EA00014FF000004FF0004CB6E711F4801F04BF01430020B4F1FD0C88BFBCF5E06F3FF6AFAEB5EB030C04BFB6EB020C5FEA500C50F1000041EB045170BDAF
:401BC0000EF0004E4EEA113114EB5C04C2BFD4EB0C0541EA045170BD41F480114FF0000E013C90E645EA060E8DE60CEA135594EA0C0F08BF95EA0C0F3FF43BAF94EA0C0F38
:401C00000AD150EA01347FF434AF95EA0C0F7FF425AF104619462CE795EA0C0F06D152EA03353FF4FDAE1046194622E750EA410618BF52EA43067FF4C5AE50EA41047FF425
:401C40000DAF52EA43057FF4EBAE12E74A0011D212F5001211D20DD56FF47873B3EB62520ED44FEAC12343F0004343EA505323FA02F070474FF00000704750EA013002D135
:401C80004FF0FF3070474FF000007047014B1868704700BF4081FF1F0E4B70B51E460E4C0025E41AA410A54204D056F8253098470135F8E700F0CCFE084B094C1E46E41ABF
:401CC000A4100025A54204D056F8253098470135F8E770BD5C2A00005C2A00005C2A0000642A000010B5431E0A44914204D011F8014B03F8014FF8E710BD034602449342A1
:401D000002D003F8011BFAE7704700000EB400B54FF402719CB0ADF814106FF00041049107914FF6FF711DAB02900690084853F8042BADF81610006802A9019300F064F8E6
:401D4000029B00221A701CB05DF804EB03B070474081FF1F2DE9F0478E6882469E420C46914698463ED88A8912F4906F3AD02568096902236F1A656905EB450595FBF3F56A
:401D80007B1C43449D4238BF1D4653050FD5294600F040FB064698B13A462169FFF7A2FFA38923F4906343F08003A38113E02A4600F08EFB064670B92169504600F0DEFA77
:401DC0000C23CAF80030A3894FF0FF3043F04003A381BDE8F08726613E44266046466561ED1BA560464528BF464649463246206800F0A8FAA36800209B1BA36023681E4494
:401E00002660BDE8F08700002DE9F04F9DB003938B8980461C060D4616460DD50B695BB9402100F0F7FA2860286118B90C23C8F80030CDE040236B610023099320238DF80D
:401E40002930DFF89CB130238DF82A3037463C4614F8013B1BB9B7EB060910D003E0252BF9D02746F3E74B46324629464046FFF771FF013000F0A780099B4B4409933B7896
:401E8000002B00F0A08000234FF0FF3204930793059206938DF853301A930126052221784E4800F041FA671C049B38B14B4A3C46801A06FA00F018430490EFE7D90644BF43
:401EC00020228DF853201A0744BF2B228DF8532022782A2A03D0079A00210A200BE0039A111D12680391002A10DA524243F00200079204900BE027463B780134303B092BE5
:401F000003D800FB02320121F5E701B107923B782E2B1ED17B782A2B0AD1039B02371A1D1B680392002BB8BF4FF0FF33059310E0002319460593781C0A2407463A78013063
:401F4000303A092A03D804FB01210123F5E703B1059103223978224800F0E6F940B14023CBEB000003FA00F0049B013718430490397806221B487E1C8DF8281000F0D4F962
:401F800088B1194B33B9039B073323F007030833039314E003AB00932A46144B04A94046AFF3008007E003AB00932A460F4B04A9404600F093F8B0F1FF3F824603D0099BBB
:401FC0005344099342E7AB895B0601D4099801E04FF0FF301DB0BDE8F08F00BF1C2A0000222A0000262A000000000000551D00002DE9F04791461F460A698B680646934217
:40200000B8BF1346C9F8003091F843200C46DDF8208012B10133C9F800302368990642BFD9F800300233C9F80030256815F0060510D104F1190A07E00123524639463046C4
:40204000C04701301AD00135E368D9F800209B1A9D42F1DB94F843302268003318BF012392060FD5E118302081F843005A1C94F845102244023382F8431003E04FF0FF3024
:40208000BDE8F08704F1430239463046C0470130F4D02268D9F80050E36802F00602042A08BF5D1B2269A3680CBF25EAE57500259342C4BF9B1AED184FF000091A344D4553
:4020C00009D00123224639463046C0470130D5D009F10109F3E70020BDE8F0872DE9F04317460A7E85B06E2A984606460C460C9B01F1430E00F0AE8011D8632A22D009D8C7
:40210000002A00F0BB80582A40F0CA8081F84520834955E0642A1ED0692A1CD0C0E0732A00F0B08009D86F2A2ED0702A40F0B8800A6842F020020A603EE0752A24D0782A1A
:402140003AD0ADE01A6801F14205111D1960136884F84230A8E021681A6811F0800F02D0111D196008E011F0400F02F10401196002D0B2F9003000E01368002B3CDA2D2220
:402180005B4284F8432037E021681A6811F0800F02D0111D196007E011F0400F02F10401196001D0138800E01368227E5C496F2A14BF0A2208221BE078225A4984F84520E9
:4021C0002268186812F0800F00F104051D6003D1550601D5038800E00368D00744BF42F0200222601BB9226822F0200222601022002084F8430001E049490A226568002D84
:40220000A56008DB206820F0040020602BB9002D7DD175460CE0002B79D07546B3FBF2F002FB1033CB5C05F8013D03460028F5D1082A0BD12368DA0708D5236962689A4273
:40224000DEBF302305F8013C05F1FF35C5EB0E0323612EE008681A6810F0800F496903D0101D1860136808E010F0400F02F104001860136801D0198000E019600023236106
:40228000754616E01A68111D1960156800216268284600F049F808B1401B6060636804E004F1420584F8422001232361002384F84330CDF800803B4603AA21463046FFF7A0
:4022C00097FE013002D14FF0FF3026E023692A4639463046C0470130F5D023689B0710D5002504F1190907E001234A4639463046C0470130E7D00135E368039A9B1A9D4264
:40230000F2DBE068039B9842B8BF184605E00B7804F1420584F842308AE705B0BDE8F0832D2A00003E2A000010B5C9B202449042034605D01C7801308C42F8D1184610BDAF
:40234000002010BD884210B501EB020301D8421E0BE09842FBD28118D21AD34204D013F8014D01F8014DF8E710BD994204D011F8014B02F8014FF8E710BD000038B5054639
:40238000002944D051F8043C0C1F002BB8BFE41800F0D4F81E4A1368114613B96360146030E0A3420DD92268A018834201BF18685B681218226063600C6023E0A24203D813
:4023C00013465A68002AF9D118681918A1420BD12168014458188242196013D110685268014419605A600DE002D90C232B6009E021686018824201BF106852680918216091
:4024000062605C602846BDE8384000F098B838BD6C81FF1F70B5CD1C25F0030508350C2D38BF0C25002D064601DBA94202D90C23336046E000F082F8234B1C681A46214664
:40244000A1B10B685B1B0ED40B2B03D90B60CC18CD501EE08C420BBF63684B681360636018BF0C4615E00C464968E9E7174C23681BB9304600F052F820602946304600F0BF
:402480004DF8431C18D0C41C24F00304A0420DD12560304600F053F804F10B00231D20F00700C31A0ED05A42E25070BD211A304600F034F80130EBD10C233360304600F0B0
:4024C0003EF8002070BD00BF6C81FF1F6881FF1FF8B5074615460E4621B91146BDE8F840FFF798BF1AB9FFF749FF2846F8BD00F027F885420ED929463846FFF78BFF0446DC
:4025000050B131462A46FFF7EDFB31463846FFF735FF01E03046F8BD2046F8BD38B5064C0023054608462360FEF7D4FA431C02D1236803B12B6038BDC881FF1F7047704788
:4025400051F8040C0028BEBF091851F8043CC01804387047000000004465766963652030782530325820697320636F6E6E65637465640D0A0000000057484F20414D204906
:40258000205245473A20307825303258205B45787065637465643A20307833335D0D0A004572726F72206F6363757272656420647572696E672049324320636F6D6D0D0AC8
:4025C000000000005354415455532052454749535445523A203078253032580D0A0000004572726F72206F6363757272656420647572696E672049324320636F6D6D207412
:402600006F2072656164207374617475732072656769737465720D0A00000000434F4E54524F4C20524547495354455220313A203078253032580D0A000000004572726F88
:4026400072206F6363757272656420647572696E672049324320636F6D6D20746F207265616420636F6E74726F6C20726567697374657220310D0A000D0A57726974696EBD
:4026800067206E65772076616C7565732E2E0D0A00000000434F4E54524F4C2052454749535445522031207375636365737366756C6C79207772697474656E2061733A206F
:4026C0003078253032580D0A000000004572726F72206F6363757272656420647572696E672049324320636F6D6D20746F2073657420636F6E74726F6C207265676973742A
:40270000657220310D0A0000434F4E54524F4C2052454749535445522031206166746572206F7665727772697465206F7065726174696F6E3A203078253032580D0A000041
:40274000434F4E54524F4C20524547495354455220343A203078253032580D0A000000004572726F72206F6363757272656420647572696E672049324320636F6D6D2074FF
:402780006F207265616420636F6E74726F6C207265676973746572340D0A0000434F4E54524F4C2052454749535445522034206166746572206265696E672075706461746E
:4027C00065643A203078253032580D0A00000000434F4E54524F4C2052454749535445522035204649464F20454E41424C45207375636365737366756C6C792077726974E7
:4028000074656E2061733A203078253032580D0A000000004572726F72206F6363757272656420647572696E672049324320636F6D6D20746F2073657420636F6E74726F6D
:402840006C20726567697374657220350D0A0000434F4E54524F4C205245474953544552203520425950415353204D4F4445207375636365737366756C6C7920777269749E
:4028800074656E2061733A203078253032580D0A00000000434F4E54524F4C2052454749535445522033204F56455252554E20494E5420454E41424C452073756363657323
:4028C0007366756C6C79207772697474656E2061733A203078253032580D0A00494E543120434F4E46205245474953544552203052203644207375636365737366756C6C31
:4029000079207772697474656E2061733A203078253032580D0A0000494E543120544853205245474953544552207375636365737366756C6C79207772697474656E206162
:40294000733A203078253032580D0A00494E5431204455524154494F4E205245474953544552207375636365737366756C6C79207772697474656E2061733A203078253008
:4029800032580D0A00000000583A20256420202020593A20256420202020205A3A25640D0A000000636F756E7465723A2025640D0A0A00004F7665727468726573686F6CA2
:4029C00064206576656E74200D0A0000035B00402443004040000000C84900401900004F00400C00405100403000F0510040100000000140001000140140000800400140AF
:402A0000000A004C014000020050014020000000605200401006004806004300232D302B2000686C4C006566674546470030313233343536373839414243444546003031C1
:402A400032333435363738396162636465660000F8B500BFF8BC08BC9E4670474D000000510B0000F8B500BFF8BC08BC9E46704729000000882A0000C880FF1F80000000ED
:402A8000880000000000000000000000D081FF1F0000E02EC05D00001800000000366E01000000000000000000000000000000000000000000000000000000000000000037
:402AC0001A2A000000000000000000000000000000000000000000000000000000000000000000000000000000000000000000000000000000000000000000000000000092
:402B0000E080FF1F00000000000000000000000000000000000000000000000000000000000000000000000000000000000000000000000000000000000000000000000017
:402B40000000000000000000000000000000000000000000000000000000000000000000000000000000000000000000000000000000000000000000000000000000000055
:402B80000000000000000000000000000000000000000000000000000000000000000000000000000000000000000000000000000000000000000000000000000000000015
:402BC00000000000000000000000000000000000000000000000000000000000000000000000000000000000000000000000000000000000000000000000000000000000D5
:402C00000000000000000000000000000000000000000000000000000000000000000000000000000000000000000000000000000000000000000000000000000000000094
:020000040003F7
:0200000480007A
:40000000024F0040015200400164004003650040010301404C060140310701406608014035090140030B0140030D0140041501400C170140571801404F190140511A01406D
:40004000441B014002400140054101400442014006430140044401400545014004460140014701400848014011490140094C0140104D0140055001400251014001300A1BBD
:400080000040860F883889728B0FEE010402063408210A020C0D0E4010021238161018021A0D1C4D204D244D284D3230340F36403A203E405602572458045B045C015D1081
:4000C0005F0180018484853887C0880789028A388C048D988E808F029084946095029798980499989B029C849D9AA00AA19AA210A513A680A764A880A9FCAA04AB03AC56A9
:40010000AD21AE09AFD8B30FB480B5E0B67FB713B880BB28BE10D440D804D904DB04DC11DD10DF0100010120031106080721084009050B040E160F40101812401340144075
:40014000171618011B101E152240233428402A482B083008335039603B0460046180632064086C086D426E026F557702851088088B488E10C0EFC2FFC47FCA0FCC0ECE0EA6
:40018000D82EE202E61000040C9C0E6011041319142016D0190E1C5E1D031EA11F142115230A2C392EC2300832F03407350F371039283A283E013F4440544101426044021C
:4001C00045BE460C47FD483749FF4AFF4BFF4C224EF04F0850045409580459045A045B045C115D115F0162C0644065016610671168C069016B116C406D016E406F0184675C
:4002000086188A638C7F901C926194189A049C10A004A301A408A83CAA42AF01B058B301B41FB638BA22BB02BF04C002C640C9FFCA07CBFFCC40CD20CEF0CF05D008D804DC
:40024000D904DA04DC22DD02DF01E040E1A8E240E320008803080680070209880A440E11100412401308174019401A481E101F1520802104266429422F403004320436203A
:40028000374243104408474248104C824D044E085110554056895D055E805F206702854089848B169808A604C097C2AFC48ECA89CCB0D0B4D230D6F0D810E2A09808A6042D
:4002C000B4088204E404EE01E008E401EA09EC10A805AC10AD80AE40AF10B201B524B648E201E808EA44EE0200140B23115C12031303140C1611171C19611B0E1C101E0C1E
:40030000201C2161220223162409261028102B08301F321F3360351A370F39083BA03F045418580459045B045C225D205F0180018226861087018C088F019008940296217E
:400340009808A008A403A803B008B203B404B501B630BE41BF10C063C104C205C401C5C0C70EC812C9FFCAFFCBFFCC62CDA0CEF0CF41D00CD602D713D804D904DA04DB04D4
:40038000DC02DD22DF01E640E702E910EA30EB10ED10EE10EF1200C60240068008010A680EA110281280140415201705180119011A241E902304263027112C042F403620B3
:4003C00037053B483C203D104041430848044952530459015D01658067046828694070947188730889018A088D108E8091209248960499C09D029E409F18A050A404A58894
:40040000A708AA81AB20AC02AE09AF40B101B208B480B604B740C01DC2BEC47ECAA0CCE0CE2AD00BD20CD681D830E201E810EA40EC80EE400004020204020560060C092060
:400440000C010D7F11781307140815601602171F19121D402109240F271B280F291B2D1F2F60310432013303340E377839023B80580459045C225F018403861489048A0888
:400480008C2093019413960499019C139E0CA00AA101A214A902AA15B010B304B420B503B60FB920BA80BE11BF04C046C103C6CBC7E0C82CC9FFCAFFCBFFCEF0CF44D00CF1
:4004C000D401D804D904DA04DB04DC22DD22DF01E6C0EA40EB0200060140062107260A200C400D080E21102815101701180419141B081E491F40228823402504270429543D
:400500002A022D102F403081321435403690370138683E10444045084D1056A15E485F2288018A028D049068915092389404960197C098019B019E809F04A0A8A210A401DB
:40054000A688A708C0EDC2A4C456CAAFCCAFCE2ED0C0D220D6F0E008E401EA09EC103340CC1063016680AB40D6C0EE803E1097019E80CE2060408F01961097019E80D8405F
:4005800013027F80C408DE0101088380A780AB02C0084508B508D001EA02A508251080089610AA80B440C820E280EA801220164070087F0282208640A008A302AA10AF028A
:4005C000B510C430DC80DE20E010E480EA901020132015087B107F408020A508C40EDE03104077108310874088408F109780A710AB20AD04B508C408DE04E201E402EC0846
:4006000000060A020C0610041C04000303C00000828000004300000000606000600000008300508C8F00830000000000000B0B000000000014000116120000000000000073
:40064000E00000E0E0000000080000002500180100000000000000000000000000000000000000000000000000000000000000000000000000000000000000000000000094
:40068000000000000000000000000000000000000000000000000000000000000000000000000000000000000000000000000000000000000000000000000000000000003A
:4006C00000000000000000000000000000000000000000000000000000000000000000000000000000000000000000000000000000000000000000000000000000000000FA
:4007000000000000000000000000000000000000000000000000000000000000000000000000000000000000000000000000000000000000000000000000000000000000B9
:400740000000000000000000000000000000000000000000000000000000000000000000000000000000000000000000000000000000000000000000000000000000000079
:0200000490006A
:0400000000004005B7
:0200000490105A
:04000000BC90ACAF55
:0200000490303A
:0200000093D596
:0200000490402A
:4000000000000000000000000000000000000000000000000000000000000000000000000000000000000000000000000000000000000000000000000000000000000000C0
:400040000000000000000000000000000000000000000000000000000000000000000000000000000000000000000000000000000000000000000000000000000000000080
:400080000000000000000000000000000000000000000000000000000000000000000000000000000000000000000000000000000000000000000000000000000000000040
:4000C0000000000000000000000000000000000000000000000000000000000000000000000000000000000000000000000000000000000000000000000000000000000000
:0200000490501A
:0C00000000012E16106900012E27A43EFE
:00000001FF