:400000000080002011000000ED0A0000ED0A000008B5044B1A6803F53F5302331A6000F085FD00BFFA46004010B5054C237833B9044B13B10448AFF300800123237010BD07
:400040004881FF1F0000000030290000084B10B51BB108490848AFF300800848036803B910BD074B002BFBD0BDE81040184700BF000000004C81FF1F30290000C880FF1F50
:4000800000000000000000002DE9F04796B062B6904840F26B1303808F490B808F4A138003889BB28E4803800B889BB28D490B8013889BB28C4A138000F06AFE012000F08F
:4000C000FDFD002000F0EEFD00F0A6FA01F0BEF9864800F08BFE864800F0D6FD052000F095FE00240CE0E0B200F006FB38B12246804909A801F0F8FF09A801F0C1F901347C
:400100007F2CF0DD0DF123020F21182000F08AFA48B99DF82320784909A801F0E5FF09A801F0AEF902E0754801F0AAF90DF122022721182000F076FA48B99DF82220704919
:4001400009A801F0D1FF09A801F09AF902E06D4801F096F90DF121022021182000F062FA48B99DF82120684909A801F0BDFF09A801F086F902E0654801F082F9644801F03C
:400180007FF99DF82130572B14D057228DF821202021182000F098FA48B99DF821205D4909A801F0A1FF09A801F06AF902E05A4801F066F90DF121022021182000F032FAF3
:4001C00048B99DF82120554909A801F08DFF09A801F056F902E04D4801F052F908AA2321182000F01FFA48B99DF820204C4909A801F07AFF09A801F043F902E0494801F0B9
:400200003FF9802216AC04F8382D2321182000F05BFA22462321182000F004FA48B99DF82020414909A801F05FFF09A801F028F902E03C4801F024F940222421182000F0C8
:4002400043FA40B94022394909A801F04DFF09A801F016F902E0364801F012F900222E21182000F031FA40B90022324909A801F03BFF09A801F004F902E02D4801F000F953
:4002800004222221182000F01FFA40B904222A4909A801F029FF09A801F0F2F802E0244801F0EEF8A0238DF81030C0238DF81D3000244FF0010AA1462646A046BAF1000FE9
:4002C00000F0868187222E21182000F0FDF94FF0000A7DE17481FF1F7A81FF1F7681FF1F7281FF1F7881FF1F7081FF1F1D0700001107000034290000542900007C29000017
:40030000A0290000BC290000F8290000182A0000542A0000702A0000A82A0000E42A00001C2B00003C2B0000782B0000AC2B0000F02B00002C2C0000702C000003AB0222AB
:400340002821182000F08EF902AB02222A21182000F088F901AB02222C21182000F082F9002840F097809DF80C309DF80D5043EA052545F38915AD00ADB228B201F016FABA
:4003800097A3D3E9002301F077FA00229C4B01F09DFB01F0A3FC9B4901F0F0FC01F03EFEC7B28DF81170C0F307238DF81230C0F307438DF81330000E8DF81400A8440FFA2E
:4003C00088F89DF808309DF8095043EA052545F38915AD00ADB228B201F0E8F980A3D3E9002301F049FA0022854B01F06FFB01F075FC844901F0C2FC01F010FE8DF81500E3
:40040000C0F307238DF81630C0F307438DF81730000E8DF818002E4436B29DF804309DF8055043EA052545F38915AD00ADB228B201F0BCF96AA3D3E9002301F01DFA0022C4
:400440006F4B01F043FB01F049FC6E4901F096FC01F0E4FD8DF81970C0F307238DF81A30C0F307438DF81B30000E8DF81C00A9440FFA89F90DF103022F21182000F0D2F85E
:400480009DF8033003F01F038DF803300E2104A801F008F80134E4B29DF80330002B40F0978098FBF4F096FBF4FA99FBF4F40028B8BF4042BAF1000FB8BFCAF1000A0FFA44
:4004C0008AFA002CB8BF644224B200B201F06EF906460F4644A3D3E9002301F0CDF902460B463046394601F0C7F98046894640A3D3E900233046394601F0BEF902460B4665
:400500004046494601F004F83BA3D3E9002301F001F801F0C3FB80B23B4B1880504601F045F906460F4630A3D3E9002301F0A4F902460B463046394601F09EF980468946C2
:400540002BA3D3E900233046394601F095F902460B464046494600F0DBFF27A3D3E9002300F0D8FF01F09AFB80B2284B1880204601F01CF904460D461BA3D3E9002301F018
:400580007BF902460B462046294601F075F906460F4617A3D3E900232046294601F06CF902460B463046394600F0B2FF12A3D3E9002300F0AFFF01F071FB80B2144B1880AE
:4005C0000024144B1C70A0462646A1464FF0010A104B1B7813F0FF0F7FF4B0AE6EE600BF1F85EB51B89E23402D431CEBE2361A3F9A9999999999D93F00000000002079407D
:4006000000408F4000007A447A81FF1F7681FF1F7481FF1F7C81FF1F08B500F07FFC002008BD00BFF8B506460D461746002100F0F1FD044678B9284600F07EFE044650B975
:400640000121304600F026FE044620B900F0A0FE387000F055FE00F053FE201C18BF0120F8BD00BF2DE9F04180460C4616461F46002100F0CFFD0546F0B944F0800000F0B4
:400680005BFE0546C0B90121404600F003FE054650B111E0C4EB0608012000F079FE07F80800013CE4B200E03446012CF2D8013E002000F06DFEB85500F022FE281C18BFE5
:4006C0000120BDE8F08100BF70B50D461646002100F0A0FD044640B9284600F02DFE044618B9304600F028FE044600F009FE201C18BF012070BD00BF10B5002100F08AFD51
:40070000044600F0FDFD0CB9012010BD002010BD0122014B1A7070477C81FF1F08B500F0F3FA364A13889BB2013B9BB2138034490B889BB2013B9BB20B8032490B889BB230
:40074000013B9BB20B8013889BB283B92E4B1B889BB2B3F5B67F05D200F074FAC043C0B200F064FA284B1B889BB2244A1380264B1B889BB2B3F5B67F02D3012000F056FA2B
:400780001F4B1B889BB283B9204B1B889BB2B3F5B67F05D200F042FAC043C0B200F032FA1A4B1B889BB2164A1380184B1B889BB2B3F5B67F02D3012000F024FA114B1B885C
:4007C0009BB283B9124B1B889BB2B3F5B67F05D200F012FAC043C0B200F002FA0C4B1B889BB2084A13800A4B1B889BB2B3F5B67F02D3012000F0F4F908BD00BF7081FF1F5E
:400800007881FF1F7281FF1F7681FF1F7A81FF1F7481FF1FFEE700BFF0B40022174611E050F82760F3B226F0FF0608E001EB420511F812406D78A5550132013BDBB2002B8C
:40084000F4D10137212FEBD9F0BC70470A4B1B78DBB203F00701094A11701B09013213700822074B1A708023064A1370583213704422054B1A707047CF0100496E58004047
:400880003D510040005B00407658004008B50A46002101F020FC08BD08B501F011FC08BD38B50024364B1C80502202331A700B2202331A801823334A1370192502321580A4
:4008C00002321370EF21023211800232137040F2AF41023211800232137004222A492B48FFF7DAFF02222A4B1A7008224FF040231A70032103F500731970264B1B78DBB21A
:4009000025490B70254B1A8041F25122023B1A800CE0234B1B7803F0010343EA440404F003044FF4F07000F0DFFD013D0DB1032CEFD115B90320FFF76DFF1A4B4FF48072AC
:400940001A8007221A70002217490A704820023108701A700222033B1A7004220A331A70124A137843F01F031370013A137843F001031370013A137843F08003137038BD85
:400980008040004086400040B0070048004100400043004008010049A146004022420040254200400440004006400040A243004038B572B6394A137843F004031370002437
:4009C0000BE0374863001A19510001440A46098AD068FFF75BFF0134E4B20A2CF1D900240CE02F48A20011194B000344B3F85820596D186DFFF750FF0134E4B2022CF0D9D1
:400A000028494FF09040FFF707FF0A24264B1C70264A137843F0020313701032137843F002031370224D2B7843F040032B70A2F58632513A137843F01003137008221D49F0
:400A40001D48FFF729FF22461C491D48FFF724FF08221C491C48FFF71FFF22461B491C48FFF71AFF22461B491B48FFF715FF1B4A137843F008031370194C61232370FFF706
:400A80000FFF812323700122164B1A70FFF7DEFE0E2229461448FFF7FFFE38BDE8460040B82C0000880000488358004003500140A04300407C070048025100408407004809
:400AC000C051004090070048125100409807004820510040A407004830510040224300400048004004000840B043004008B501F0BBFA03680C2B00D1FEE7FEE708B5094B7A
:400B00001A681044084BC31A802B02DC054B186005E001F0A9FA0C2303604FF0FF32104608BD00BFCC80FF1F9881FF1F08B5104E104D16E029686B68AC68002204E051F833
:400B4000040B43F8040B0432A242F8D1E868002203E0002143F8041B04328242F9D11035013E002EE6D101F085FAFFF78DFAFEE701000000802D000008B5104A104B1A60D0
:400B8000104A136843F40073136000230AE0032B03D80D4A52F8231000E00C490C4A42F8231001332F2BF2D90A4B1A780A4B1A70074A0A4B1A60FFF7FBFE08BD0004FA056B
:400BC0000CED00E014ED00E000000000ED0A00000080FF1FBC760040C080FF1F08ED00E0044A137803F07F03C001C0B218431070704700BF30510040014B1878C009704712
:400C000031510040044A137803F0BF03800100F0400018431070704730510040024B1878C0F38010704700BF31510040044A137803F0DF03400100F0200018431070704777
:400C400030510040024B1878C0F34010704700BF31510040014B1B681864704708ED00E04001C0B2014B1870704700BF00E400E00122014B1A60704700E100E00122014B33
:400C80001A60704780E100E010B50446FFF7F6FF2046FFF7DFFF0720FFF7E2FFFFF7E8FF10BD00BF044A137803F0FB03800000F00400184310707047C0510040044A13782D
:400CC00003F0F703C00000F00800184310707047C0510040084A137843F0010313701032137843F00103137002F64D32137843F001031370704700BFA3430040014B187022
:400D0000704700BF034F0040014B1878704700BF034F0040014B1880704700BF044F0040014B1880704700BF064F004008B5154A137803F0010313700232137803F0FC0319
:400D40001370114B1A7802F0CF021A701A7842F030021A701A7802F0F0021A701A7842F00F021A70094A137843F0010313706320FFF7D0FF6320FFF7D3FF0820FFF7BEFFD0
:400D800008BD00BF004F00400B4F0040014F004008B5054B1B7823B9FFF7C8FF0122024B1A70FFF797FF08BD6481FF1F024B1B68C3F88400704700BF08ED00E04001C0B262
:400DC000014B1870704700BF11E400E04FF40032014B1A60704700BF00E100E04FF40032014B1A60704700BF80E100E010B50446FFF7F4FF2046FFF7D9FF0720FFF7DEFF4A
:400E0000FFF7E4FF10BD00BF01BE704710B5044605E0084B186800F067FBA4F50044B4F5004FF6D8034B586800FB04F000F05CFB10BD00BFD080FF1F70B504460E46074BC8
:400E40001D681F2802D90020FFF7DEFF04F01F04103455F8240045F8246070BD08ED00E038B504460D46072902D90020FFF7CCFF1F2C02D90020FFF7C7FF04F01F0000F1CD
:400E8000604000F564406D01EDB2057038BD00BF10B50222114B1A7081220E3B1A70082202331A70042211331A70002401331C704FF400420A4B1A6007210F20FFF7D0FF4D
:400EC00008490F20FFF7B8FF1022074B1A70074B1C70074B1C70074B1C7010BDD649004080E100E0450F00007D81FF1F8D81FF1F8081FF1F8181FF1F08B500F0FDFA064AE1
:400F0000137843F0040313701032137843F00403137000F0F5FA08BDA543004008B5074B1B7823B9FFF7B4FF0122044B1A70FFF7E3FF4FF40042024B1A6008BD6581FF1F03
:400F400000E100E038B5A54B1C78A54B1B7813F0400F00F03A81E4B214F0010F00F01D819F4B1B78453B052B00F21481DFE813F006008200120112010600DF0004F0DF059E
:400F800004F00A04082C42D1954B1B78DBB2452B35D1944B1B7813F0FF0F10D0924B1B681B78DBB2914A137004228C4B1A7001228F4B1A7046228A4B1A702C46EDE08D4B45
:400FC0001B7813F0020F0DD08B4A137843F00A0313706022824B1A704FF40042874B1A602C46DAE0864A137843F0100313701022844B1A700422023B1A702C46CDE0002297
:40100000764B1A704A22764B1A702C46C5E00A2C2BD1794A137843F0A0031370754B1B7813F0020F14D06E4B1B7813F0080F01D0092300E00A23704A11780B43137060226D
:40104000674B1A704FF400426C4B1A602C46A4E06B4A137843F0100313701022694B1A700422023B1A702C4697E00020FFF7CCFE2C4692E014F0020F36D15D4B1A78D2B29B
:40108000584B1B78DBB29A4210D2594A1378DBB255490968CB5CDBB254490B7004214F4B197013780133DBB2137076E0514B1B7813F0020F0CD0504A137843F00A031370A5
:4010C0006022474B1A704FF400424C4B1A6064E04B4A137843F0100313701022494B1A700422023B1A7058E0424B1B7813F0020F0CD0414A137843F09A0313706022384B9C
:401100001A704FF400423D4B1A6046E03C4A137843F01003137010223A4B1A700422023B1A70354A137843F09003137035E0364A1378DBB2354908682C490978C9B2C154FC
:4011400013780133DBB213701278D2B2304B1B78DBB29A4203D21022204B1A701DE0254B1B7813F0020F0CD0234A137843F00903137060221A4B1A704FF400421F4B1A609B
:401180000BE01F4A137843F0100313700022134B1A7002E00020FFF737FE14F0200F1CD00F4B1B7813F0080F01D0012300E00223114A11780B431370114A137803F0EF03B0
:4011C00013701022064B1A7038BD054B1B7813F0100F02D11022024B1A7038BDD74900407D81FF1F8281FF1F8481FF1FD84900408181FF1F8C81FF1F8D81FF1F80E100E0BB
:40120000D6490040D94900408081FF1F8881FF1F8E81FF1F1A4B1B78DBB2102B29D1194B1B7813F0080F26D14FF40042164B1A604000C0B229B140F001004922104B1A704B
:4012400002E045220E4B1A70104B1870012201331A700F4B1B7813F0010FFAD00C4B1B7803F00A030A2B08D11022054B1A700320704702207047012070470020704700BF8F
:401280007D81FF1FD949004080E100E0D8490040D7490040164B1B7813F0040F23D04000C0B229B140F001004922124B1A7002E04522104B1A70104B1870122201331A709F
:4012C0000422023B1A700D4B1B7813F0010FFAD00A4B1B7803F00A030A2B06D11022054B1A7003207047022070470020704700BFD94900407D81FF1FD8490040D7490040B1
:401300000A4B1B7813F0040F0ED01023074A13700421023A1170064A1370064B1B7813F0210FFAD00020704702207047D94900407D81FF1FD7490040114B1B7813F0040FA1
:401340001BD0104B18700422013B1A7046220E4B1A700E4B1B7813F0010FFAD00B4B1B7813F0020F04D16022074B1A70002070476022054B1A70032070470220704700BFCA
:40138000D9490040D84900407D81FF1FD7490040114B1B7813F0040F1BD0104B1B78DBB2492B05D100220E4B1A704A220B4B1A700B4B1B7813F0010FFAD00A4B1B78DBB2AD
:4013C00018B11021064A117004E06021034A117000E0002318467047D94900407D81FF1FD7490040D84900407222084B1A702022A3F580731A700622A1331A70472210339E
:401400001A70002251331A70704700BF8965004010B500F071F804460B4A137843F020031370A2F58072137843F01003137002F58172137843F01003137000F047F820467D
:4014400000F05EF810BD00BF9965004008B5054B1B7823B9FFF7C8FF0122024B1A70FFF7D7FF08BD6681FF1F034B1B7813F0040FFAD1024B187070476B6500404B65004045
:4014800038B5074B1B782BB938BDFFF7EDFF0134A4B201E005460024285D0028F5D138BD6681FF1F084B1B7833B97047305DFFF7DBFF0134E4B203E070B50D4606460024DB
:4014C000AC42F3D370BD00BF6681FF1F054A137843F0040313701032137843F004031370704700BFA24300400230800803D000BF01380046FCD17047EFF3108072B67047EB
:4015000080F31088704700BF81F0004102E000BF83F0004330B54FEA41044FEA430594EA050F08BF90EA020F1FBF54EA000C55EA020C7FEA645C7FEA655C00F0E2804FEA06
:401540005454D4EB5555B8BF6D420CDD2C4480EA020281EA030382EA000083EA010180EA020281EA0303362D88BF30BD11F0004F4FEA01314FF4801C4CEA113102D0404245
:4015800061EB410113F0004F4FEA03334CEA133302D0524263EB430394EA050F00F0A780A4F10104D5F1200E0DDB02FA0EFC22FA05F2801841F1000103FA0EF2801843FA91
:4015C00005F359410EE0A5F120050EF1200E012A03FA0EFC28BF4CF0020C43FA05F3C01851EBE37101F0004507D54FF0000EDCF1000C7EEB00006EEB0101B1F5801F1BD354
:40160000B1F5001F0CD349085FEA30004FEA3C0C04F101044FEA445212F5800F80F09A80BCF1004F08BF5FEA500C50F1000041EB045141EA050130BD5FEA4C0C404141EB3C
:40164000010111F4801FA4F10104E9D191F0000F04BF01460020B1FA81F308BF2033A3F10B03B3F120020CDA0C3208DD02F1140CC2F10C0201FA0CF021FA02F10CE002F154
:401680001402D8BFC2F1200C01FA02F120FA0CFCDCBF41EA0C019040E41AA2BF01EB0451294330BD6FEA04041F3C1CDA0C340EDC04F11404C4F1200220FA04F001FA02F334
:4016C00040EA030021FA04F345EA030130BDC4F10C04C4F1200220FA02F001FA04F340EA0300294630BD21FA04F0294630BD94F0000F83F4801306BF81F480110134013D22
:401700004EE77FEA645C18BF7FEA655C29D094EA050F08BF90EA020F05D054EA000C04BF1946104630BD91EA030F1EBF0021002030BD5FEA545C05D14000494128BF41F0A0
:40174000004130BD14F580043CBF01F5801130BD01F0004545F0FE4141F470014FF0000030BD7FEA645C1ABF194610467FEA655C1CBF0B46024650EA013406BF52EA0335C6
:4017800091EA030F41F4002130BD00BF90F0000F04BF0021704730B54FF4806404F132044FF000054FF0000150E700BF90F0000F04BF0021704730B54FF4806404F132045E
:4017C00010F0004548BF40424FF000013EE700BF42004FEAE2014FEA31014FEA02701FBF12F07F4393F07F4F81F06051704792F0000F14BF93F07F4F704730B54FF460744F
:4018000001F0004521F0004120E700BF50EA010208BF704730B54FF000050AE050EA010208BF704730B511F0004502D5404261EB41014FF4806404F132045FEA915C3FF404
:40184000DCAE4FF003025FEADC0C18BF03325FEADC0C18BF033202EBDC02C2F1200300FA03FC20FA02F001FA03FE40EA0E0021FA02F11444C1E600BF70B54FF0FF0C4CF4CB
:40188000E06C1CEA11541DBF1CEA135594EA0C0F95EA0C0F00F0DEF82C4481EA030621EA4C5123EA4C5350EA013518BF52EA033541F4801143F4801338D0A0FB02CE4FF0F9
:4018C0000005E1FB02E506F00042E0FB03E54FF00006E1FB03569CF0000F18BF4EF0010EA4F1FF04B6F5007F64F5407404D25FEA4E0E6D4146EB060642EAC62141EA5551D3
:401900004FEAC52040EA5E504FEACE2EB4F1FD0C88BFBCF5E06F1ED8BEF1004F08BF5FEA500E50F1000041EB045170BD06F0004646EA010140EA020081EA0301B4EB5C042E
:40194000C2BFD4EB0C0541EA045170BD41F480114FF0000E013C00F3AB8014F1360FDEBF002001F0004170BDC4F10004203C35DA0C341BDC04F11404C4F1200500FA05F361
:4019800020FA04F001FA05F240EA020001F0004221F0004110EBD37021FA04F642EB06015EEA430E08BF20EAD37070BDC4F10C04C4F1200500FA04F320FA05F001FA04F285
:4019C00040EA020001F0004110EBD37041F100015EEA430E08BF20EAD37070BDC4F1200500FA05F24EEA020E20FA04F301FA05F243EA020321FA04F001F0004121FA04F2A4
:401A000020EA020000EBD3705EEA430E08BF20EAD37070BD94F0000F0FD101F00046400041EB010111F4801F08BF013CF7D041EA060195F0000F18BF704703F0004652002C
:401A400043EB030313F4801F08BF013DF7D043EA0603704794EA0C0F0CEA135518BF95EA0C0F0CD050EA410618BF52EA4306D1D181EA030101F000414FF0000070BD50EAC9
:401A8000410606BF1046194652EA430619D094EA0C0F02D150EA013613D195EA0C0F05D152EA03361CBF104619460AD181EA030101F0004141F0FE4141F470014FF00000F0
:401AC00070BD41F0FE4141F4780170BD70B54FF0FF0C4CF4E06C1CEA11541DBF1CEA135594EA0C0F95EA0C0F00F0A7F8A4EB050481EA030E52EA03354FEA013100F0888011
:401B00004FEA03334FF0805545EA131343EA12634FEA022245EA111545EA10654FEA00260EF000419D4208BF964244F1FD0404F5407402D25B084FEA3202B61A65EB03050A
:401B40005B084FEA32024FF480104FF4002CB6EB020E75EB030E22BFB61A754640EA0C005B084FEA3202B6EB020E75EB030E22BFB61A754640EA5C005B084FEA3202B6EB3A
:401B8000020E75EB030E22BFB61A754640EA9C005B084FEA3202B6EB020E75EB030E22BFB61A754640EADC0055EA060E18D04FEA051545EA16754FEA06164FEAC30343EA45
:401BC00052734FEAC2025FEA1C1CC0D111F4801F0BD141EA00014FF000004FF0004CB6E711F4801F04BF01430020B4F1FD0C88BFBCF5E06F3FF6AFAEB5EB030C04BFB6EB99
:401C0000020C5FEA500C50F1000041EB045170BD0EF0004E4EEA113114EB5C04C2BFD4EB0C0541EA045170BD41F480114FF0000E013C90E645EA060E8DE60CEA135594EA87
:401C40000C0F08BF95EA0C0F3FF43BAF94EA0C0F0AD150EA01347FF434AF95EA0C0F7FF425AF104619462CE795EA0C0F06D152EA03353FF4FDAE1046194622E750EA4106E7
:401C800018BF52EA43067FF4C5AE50EA41047FF40DAF52EA43057FF4EBAE12E74A0011D212F5001211D20DD56FF47873B3EB62520ED44FEAC12343F0004343EA505323FA9E
:401CC00002F070474FF00000704750EA013002D14FF0FF3070474FF0000070474FEA4102B2F1E04324BFB3F5001CDCF1FE5C0DD901F0004C4FEAC0024CEA5070B2F1004FD6
:401D000040EB830008BF20F00100704711F0804F21D113F13872BCBF01F00040704741F480114FEA5252C2F11802C2F1200C10FA0CF320FA02F018BF40F001004FEAC1230A
:401D40004FEAD32303FA0CFC40EA0C0023FA02F34FEA4303CCE77FEA625307D150EA01331EBF4FF0FE4040F44000704701F0004040F0FE4040F40000704700BF4FF0FF0C39
:401D80001CEAD0521EBF1CEAD15392EA0C0F93EA0C0F6FD01A4480EA010C400218BF5FEA41211ED04FF0006343EA501043EA5111A0FB01310CF00040B1F5000F3EBF49003D
:401DC00041EAD3715B0040EA010062F17F02FD2A1DD8B3F1004F40EBC25008BF20F00100704790F0000F0CF0004C08BF49024CEA502040EA51207F3AC2BFD2F1FF0340EAEC
:401E0000C250704740F400004FF00003013A5DDC12F1190FDCBF00F000407047C2F10002410021FA02F1C2F1200200FA02FC5FEA310040F1000053EA4C0308BF20EADC701D
:401E4000704792F0000F00F0004C02BF400010F4000F013AF9D040EA0C0093F0000F01F0004C02BF490011F4000F013BF9D041EA0C018FE70CEAD15392EA0C0F18BF93EAEB
:401E80000C0F0AD030F0004C18BF31F0004CD8D180EA010000F00040704790F0000F17BF90F0004F084691F0000F91F0004F14D092EA0C0F01D142020FD193EA0C0F03D1C3
:401EC0004B0218BF084608D180EA010000F0004040F0FE4040F40000704740F0FE4040F4400070474FF0FF0C1CEAD0521EBF1CEAD15392EA0C0F93EA0C0F69D0A2EB030297
:401F000080EA010C49024FEA402037D04FF0805343EA111143EA10130CF000408B4238BF5B0042F17D024FF4000C8B4224BF5B1A40EA0C00B3EB510F24BFA3EB510340EAEA
:401F40005C00B3EB910F24BFA3EB910340EA9C00B3EBD10F24BFA3EBD10340EADC001B0118BF5FEA1C1CE0D1FD2A3FF650AF8B4240EBC25008BF20F0010070470CF0004CD2
:401F80004CEA50207F32C2BFD2F1FF0340EAC250704740F400004FF00003013A37E792F0000F00F0004C02BF400010F4000F013AF9D040EA0C0093F0000F01F0004C02BF17
:401FC000490011F4000F013BF9D041EA0C0195E70CEAD15392EA0C0F08D142027FF47DAF93EA0C0F7FF470AF084676E793EA0C0F04D14B023FF44CAF08466EE730F0004C92
:4020000018BF31F0004CCAD130F000427FF45CAF31F000437FF43CAF5FE700BF4FEA4002B2F1FE4F0FD34FF09E03B3EB12620DD94FEA002343F0004310F0004F23FA02F0C5
:4020400018BF404270474FF00000704712F1610F01D1420205D110F0004008BF6FF0004070474FF000007047014B1868704700BF4081FF1F0E4B70B51E460E4C0025E41A28
:40208000A410A54204D056F8253098470135F8E700F064FE084B094C1E46E41AA4100025A54204D056F8253098470135F8E770BD682D0000682D0000682D0000702D00000A
:4020C00010B5431E0A44914204D011F8014B03F8014FF8E710BD03460244934202D003F8011BFAE7704700000EB400B54FF402719CB0ADF814106FF00041049107914FF640
:40210000FF711DAB02900690084853F8042BADF81610006802A9019300F064F8029B00221A701CB05DF804EB03B070474081FF1F2DE9F0478E6882469E420C469146984623
:402140003ED88A8912F4906F3AD02568096902236F1A656905EB450595FBF3F57B1C43449D4238BF1D4653050FD5294600F040FB064698B13A462169FFF7A2FFA38923F454
:40218000906343F08003A38113E02A4600F08EFB064670B92169504600F0DEFA0C23CAF80030A3894FF0FF3043F04003A381BDE8F08726613E44266046466561ED1BA560BA
:4021C000464528BF464649463246206800F0A8FAA36800209B1BA36023681E442660BDE8F08700002DE9F04F9DB003938B8980461C060D4616460DD50B695BB9402100F0AF
:40220000F7FA2860286118B90C23C8F80030CDE040236B610023099320238DF82930DFF89CB130238DF82A3037463C4614F8013B1BB9B7EB060910D003E0252BF9D0274685
:40224000F3E74B46324629464046FFF771FF013000F0A780099B4B4409933B78002B00F0A08000234FF0FF3204930793059206938DF853301A930126052221784E4800F005
:4022800041FA671C049B38B14B4A3C46801A06FA00F018430490EFE7D90644BF20228DF853201A0744BF2B228DF8532022782A2A03D0079A00210A200BE0039A111D126810
:4022C0000391002A10DA524243F00200079204900BE027463B780134303B092B03D800FB02320121F5E701B107923B782E2B1ED17B782A2B0AD1039B02371A1D1B680392CA
:40230000002BB8BF4FF0FF33059310E0002319460593781C0A2407463A780130303A092A03D804FB01210123F5E703B1059103223978224800F0E6F940B14023CBEB0000FA
:4023400003FA00F0049B013718430490397806221B487E1C8DF8281000F0D4F988B1194B33B9039B073323F007030833039314E003AB00932A46144B04A94046AFF30080B2
:4023800007E003AB00932A460F4B04A9404600F093F8B0F1FF3F824603D0099B5344099342E7AB895B0601D4099801E04FF0FF301DB0BDE8F08F00BF282D00002E2D000049
:4023C000322D000000000000312100002DE9F04791461F460A698B6806469342B8BF1346C9F8003091F843200C46DDF8208012B10133C9F800302368990642BFD9F8003094
:402400000233C9F80030256815F0060510D104F1190A07E00123524639463046C04701301AD00135E368D9F800209B1A9D42F1DB94F843302268003318BF012392060FD521
:40244000E118302081F843005A1C94F845102244023382F8431003E04FF0FF30BDE8F08704F1430239463046C0470130F4D02268D9F80050E36802F00602042A08BF5D1BA3
:402480002269A3680CBF25EAE57500259342C4BF9B1AED184FF000091A344D4509D00123224639463046C0470130D5D009F10109F3E70020BDE8F0872DE9F04317460A7E74
:4024C00085B06E2A984606460C460C9B01F1430E00F0AE8011D8632A22D009D8002A00F0BB80582A40F0CA8081F84520834955E0642A1ED0692A1CD0C0E0732A00F0B080BA
:4025000009D86F2A2ED0702A40F0B8800A6842F020020A603EE0752A24D0782A3AD0ADE01A6801F14205111D1960136884F84230A8E021681A6811F0800F02D0111D1960A0
:4025400008E011F0400F02F10401196002D0B2F9003000E01368002B3CDA2D225B4284F8432037E021681A6811F0800F02D0111D196007E011F0400F02F10401196001D0FA
:40258000138800E01368227E5C496F2A14BF0A2208221BE078225A4984F845202268186812F0800F00F104051D6003D1550601D5038800E00368D00744BF42F02002226068
:4025C0001BB9226822F0200222601022002084F8430001E049490A226568002DA56008DB206820F0040020602BB9002D7DD175460CE0002B79D07546B3FBF2F002FB103314
:40260000CB5C05F8013D03460028F5D1082A0BD12368DA0708D5236962689A42DEBF302305F8013C05F1FF35C5EB0E0323612EE008681A6810F0800F496903D0101D186026
:40264000136808E010F0400F02F104001860136801D0198000E0196000232361754616E01A68111D1960156800216268284600F049F808B1401B6060636804E004F14205B4
:4026800084F8422001232361002384F84330CDF800803B4603AA21463046FFF797FE013002D14FF0FF3026E023692A4639463046C0470130F5D023689B0710D5002504F115
:4026C000190907E001234A4639463046C0470130E7D00135E368039A9B1A9D42F2DBE068039B9842B8BF184605E00B7804F1420584F842308AE705B0BDE8F083392D0000EF
:402700004A2D000010B5C9B202449042034605D01C7801308C42F8D1184610BD002010BD884210B501EB020301D8421E0BE09842FBD28118D21AD34204D013F8014D01F82D
:40274000014DF8E710BD994204D011F8014B02F8014FF8E710BD000038B50546002944D051F8043C0C1F002BB8BFE41800F0D4F81E4A1368114613B96360146030E0A342B0
:402780000DD92268A018834201BF18685B681218226063600C6023E0A24203D813465A68002AF9D118681918A1420BD12168014458188242196013D11068526801441960BE
:4027C0005A600DE002D90C232B6009E021686018824201BF106852680918216062605C602846BDE8384000F098B838BD6C81FF1F70B5CD1C25F0030508350C2D38BF0C2549
:40280000002D064601DBA94202D90C23336046E000F082F8234B1C681A462146A1B10B685B1B0ED40B2B03D90B60CC18CD501EE08C420BBF63684B681360636018BF0C4664
:4028400015E00C464968E9E7174C23681BB9304600F052F820602946304600F04DF8431C18D0C41C24F00304A0420DD12560304600F053F804F10B00231D20F00700C31A18
:402880000ED05A42E25070BD211A304600F034F80130EBD10C233360304600F03EF8002070BD00BF6C81FF1F6881FF1FF8B5074615460E4621B91146BDE8F840FFF798BF05
:4028C0001AB9FFF749FF2846F8BD00F027F885420ED929463846FFF78BFF044650B131462A46FFF7EDFB31463846FFF735FF01E03046F8BD2046F8BD38B5064C0023054677
:4029000008462360FEF7FAF8431C02D1236803B12B6038BD9081FF1F7047704751F8040C0028BEBF091851F8043CC01804387047000000004465766963652030782530323F
:402940005820697320636F6E6E65637465640D0A0000000057484F20414D2049205245473A20307825303258205B45787065637465643A20307833335D0D0A004572726F14
:4029800072206F6363757272656420647572696E672049324320636F6D6D0D0A000000005354415455532052454749535445523A203078253032580D0A0000004572726FCB
:4029C00072206F6363757272656420647572696E672049324320636F6D6D20746F2072656164207374617475732072656769737465720D0A00000000434F4E54524F4C203B
:402A0000524547495354455220313A203078253032580D0A000000004572726F72206F6363757272656420647572696E672049324320636F6D6D20746F20726561642063D2
:402A40006F6E74726F6C20726567697374657220310D0A000D0A57726974696E67206E65772076616C7565732E2E0D0A00000000434F4E54524F4C2052454749535445529D
:402A80002031207375636365737366756C6C79207772697474656E2061733A203078253032580D0A000000004572726F72206F6363757272656420647572696E67204932A2
:402AC0004320636F6D6D20746F2073657420636F6E74726F6C20726567697374657220310D0A0000434F4E54524F4C2052454749535445522031206166746572206F7665B7
:402B0000727772697465206F7065726174696F6E3A203078253032580D0A0000434F4E54524F4C20524547495354455220343A203078253032580D0A000000004572726F85
:402B400072206F6363757272656420647572696E672049324320636F6D6D20746F207265616420636F6E74726F6C207265676973746572340D0A0000434F4E54524F4C2028
:402B800052454749535445522034206166746572206265696E6720757064617465643A203078253032580D0A00000000434F4E54524F4C20524547495354455220352046A5
:402BC00049464F20454E41424C45207375636365737366756C6C79207772697474656E2061733A203078253032580D0A000000004572726F72206F636375727265642064CD
:402C00007572696E672049324320636F6D6D20746F2073657420636F6E74726F6C20726567697374657220350D0A0000434F4E54524F4C20524547495354455220352042E7
:402C40005950415353204D4F4445207375636365737366756C6C79207772697474656E2061733A203078253032580D0A00000000434F4E54524F4C2052454749535445527B
:402C80002033204F56455252554E20494E5420454E41424C45207375636365737366756C6C79207772697474656E2061733A203078253032580D0A00035B004024430040FB
:402CC00040000000C84900401900004F00400C00405100403000F0510040100000000140800200030140000D00140140800400190140000300400140000A004C0140000299
:402D0000005001402000000060520040740600480600800201407C060048800080180140FC06004880004300232D302B2000686C4C006566674546470030313233343536E1
:402D400037383941424344454600303132333435363738396162636465660000F8B500BFF8BC08BC9E4670474D000000790B0000F8B500BFF8BC08BC9E46704729000000BC
:402D8000902D0000C880FF1F8000000050000000000000009881FF1F0000E02EC05D00001800000000366E0100000000000000000000000000000000000000000000000001
:402DC0000000000000000000262D00000000000000000000000000000000000000000000000000000000000000000000000000000000000000000000000000000000000080
:402E00000000000000000000E080FF1F0000000000000000000000000000000000000000000000000000000000000000000000000000000000000000000000000000000014
:402E40000000000000000000000000000000000000000000000000000000000000000000000000000000000000000000000000000000000000000000000000000000000052
:402E80000000000000000000000000000000000000000000000000000000000000000000000000000000000000000000000000000000000000000000000000000000000012
:402EC00000000000000000000000000000000000000000000000000000000000000000000000000000000000000000000000000000000000000000000000000000000000D2
:402F00000000000000000000000000000000000000000000000000000000000000000000000000000000000000000000000000000000000000000000000000000000000091
:020000040003F7
:0200000480007A
:40000000024F00400352004003640040036500400D0201403903014057040140450501400A0701404B0801403C090140050B0140040C0140030D014008150140061701403C
:40004000091801403F190140681A01404F1B014002400140064101400C4201400143014004440140064501400746014004470140064801400F490140094C01400E4D01406F
:40008000065001400251014001300A4B006001401102830F880F8938880F89728B0F0E01110115011E0121012801300131013E013F01580459045F010090021003800540BF
:4000C0000681078008400A800B100C400D400E0210A81202172018141B101E402140220E2330278029202A412B802F803246360939943A024084414049404A084B06510881
:4001000052506040686869166A80708072038312841085218601C08FC28DC44FCA8DCCCBCE0FD00DD20CD801EE0100040410066808E80CE80F011068128016801702181629
:400140001A211C141E40230424E828E82B042C092E122F013104327833013480360737023A883E103F0540104105451046D24705481E49FF4AFF4BFF4DA04F045018544042
:40018000580459045A045B045C415D145F01604062C06440654066C068C06AC06CC06EC08405863A8C048E399103930C9610980E99059B0A9C239D029E049F0DAD09AF0605
:4001C000B10FB230B40FB820BB02D409D804D904DB04DC11DD10DF0100A00108024005800720080809080A890E161009110419C81A011B101E14228A2440278028022920B6
:400200002A012D8033083401360137A03880400249014B805040522053485E405F16611063226680810182108708910492C89304944099109AC09B229D40A058A108A201EF
:40024000A810A910AB01B080C0AFC2EFC407CA1DCCB2CE08D008D208D6F0D81EE004E402EA0882019C029D209E01A228B008B242B311B680E2040E010F061308150419019C
:400280001A071C041F0131043204330134013502360237084050410445D546014720482749FF4AFF4BFF4DA04F04501852805407580459045A045B045C445D445F016040E8
:4002C00062C06440654066C068C06AC06CC06EC0840188018C04940495019A019E019F02A202A305A404AA02AF02B002B101B304B404B502B601B880BA08BE01BF10D41814
:40030000D804D904DB04DC42DD20DF0101280301058009200A110D800F0811041284195C1B011D801E201F10200422082380244027262A402B8031403208342035023640E7
:4003400037043F8045014D814F48550157825A025D015E245F8060046302750283028B1092049820A240A340B204B420C087C2C7C40ECA09CCFACE10D080D210D6F1D80C9B
:40038000E840EC2083408640AF40B440EA2038823E4158045F011C401F40EE01AD20B220B608E008E401EA01EC10EE029D20A228AC02E202E602EE022E0132015280540773
:4003C00058045B045C045D405F010084020A0380081209080A4110A8174019A11A051F08200621202281281029902A02308031283202382839023A80400142C448014910AB
:400400004A08524459015C405F2A69146A106B0170BC77409040950496139740980299109B209D209E449F01A520A680AF02B402B504C00FC20FC48ECA0FCC0FCE0FD00D7E
:40044000D20CD6F1E202E6020142020803B105C709C70A1C145C158416031751186119011A0E1B0E20612216262330603120320F33C0341A3507371838023A283E013F4090
:400480004004454049FF4A074BFF4C404D204EF04F055008580459045A045C225D025F01604061A8624063208010844085138704882C890A8A118B148D038E038F1491201E
:4004C000941C96229C809D139F0CA030A20CA715A814AB08AC09AE10B260B310B480B520B61FB70FB808BB80BE10BF14C013C106C60CC7EBC834C9FFCAFFCBFFCEF0CF44A6
:40050000D00CD401D804D904DA04DB04DC22DD22DF01E6C0EA40EB020020010205590A140E110F02102012801308140216081702184019101A1C1C201D401E0A1F08200141
:4005400021292540268827062C202F08301031283681380239143E143F804040454047084820490B4E045440560857415E495F20824883048402870888408B208C018E027E
:400580008F809114940195029C109E02A508A780AF48B040B204B302B708C0FAC2A6C4DCCA60CC96CE77D051D220D6F0E009E401E820EA01EC503340CC105F016520AB40A2
:4005C000D680D880EE803E105B08830197019B08A920AF08CE20D640E280EA10EE80961013027C20C408DE01000858109C20AB02C008D40145089C10B004B420D001E8026D
:40060000EA0488109C10A508E0042510840C9610C820E240E640122016407008740482208640A00CAA10B510C430DC80DE20E010E480EA80132415047B107F408504870497
:40064000A508C40EDE03128071028102831087408E809780A710AB20B508C408DC01E202EC08001608020A120C1410141C14000303C000000280000043000000569A09001F
:40068000609800020102009884130064043880C00A2110D8000000000798380284FC000384000000809A04000402000000E07F0F800000130800000A00001000650120006E
:4006C00004FEBC0D1FFFFFFF2200F008040000000000022C04040404111100010000C00040011011C001001140014001000000000000000000000000000000000100000419
:400700002C1813000008130033FF0C003FE7001802800000033C00C22F1010000844000004C000000C0000E3001C00E120C000000F1F1C380000A0200000010026040500AB
:4007400001000E0C14FFFFFF62A0F0410C00000000000213040404042222000100000000000040020010301000101012000000000000000000000000000000000060600020
:40078000600000008300508C8F00830000000000000B0B0000000000140001161200020000000000E00000E0E000000008000000250018010000000000000000000000002D
:4007C00000000000000000000000000000000000000000000000000000000000000000000000000000000000000000000000000000000000000000000000000000000000F9
:4008000000000000000000000000000000000000000000000000000000000000000000000000000000000000000000000000000000000000000000000000000000000000B8
:400840000000000000000000000000000000000000000000000000000000000000000000000000000000000000000000000000000000000000000000000000000000000078
:400880000000000000000000000000000000000000000000000000000000000000000000000000000000000000000000000000000000000000000000000000000000000038
:0200000490006A
:0400000000004005B7
:0200000490105A
:04000000BC90ACAF55
:0200000490303A
:02000000299D38
:0200000490402A
:4000000000000000000000000000000000000000000000000000000000000000000000000000000000000000000000000000000000000000000000000000000000000000C0
:400040000000000000000000000000000000000000000000000000000000000000000000000000000000000000000000000000000000000000000000000000000000000080
:400080000000000000000000000000000000000000000000000000000000000000000000000000000000000000000000000000000000000000000000000000000000000040
:4000C0000000000000000000000000000000000000000000000000000000000000000000000000000000000000000000000000000000000000000000000000000000000000
:0200000490501A
:0C00000000012E16106900012E293A069E
:00000001FF