:4000000000800020110000008D0900008D09000008B5044B1A6803F53F5302331A6000F0D5FC00BFFA46004010B5054C237833B9044B13B10448AFF300800123237010BD7A
:400040004881FF1F00000000481C0000084B10B51BB108490848AFF300800848036803B910BD074B002BFBD0BDE81040184700BF000000004C81FF1F481C0000C880FF1F3A
:40008000000000002DE9F04194B062B6012000F065FD002000F056FD88486523037088490B70884A13700378DBB2874803700B78DBB286490B701378DBB2854A137000F05D
:4000C000B7FD00F0FDF901F011F9824800F0DEFD814800F029FD052000F0E8FD00240CE0E0B200F05DFA38B122467C4907A801F087F907A801F014F901347F2CF0DD0DF186
:400100001B020F21182000F0E1F948B99DF81B20734907A801F074F907A801F001F902E0704801F0FDF80DF11A022721182000F0CDF948B99DF81A206B4907A801F060F9EF
:4001400007A801F0EDF802E0684801F0E9F80DF119022021182000F0B9F948B99DF81920634907A801F04CF907A801F0D9F802E0604801F0D5F8604801F0D2F89DF8193008
:40018000572B14D057228DF819202021182000F0EFF948B99DF81920584907A801F030F907A801F0BDF802E0554801F0B9F80DF119022021182000F089F948B99DF81920CF
:4001C000504907A801F01CF907A801F0A9F802E0484801F0A5F806AA2321182000F076F948B99DF81820484907A801F009F907A801F096F802E0454801F092F8802214AC6A
:4002000004F8382D2321182000F0B2F922462321182000F05BF948B99DF818203C4907A801F0EEF807A801F07BF802E0374801F077F840222421182000F09AF940B94022B4
:40024000344907A801F0DCF807A801F069F802E0314801F065F800222E21182000F088F940B900222D4907A801F0CAF807A801F057F802E0284801F053F8042222211820B8
:4002800000F076F940B90422254907A801F0B8F807A801F045F802E01F4801F041F800240127A04626462546002F00F0F08087222E21182000F05CF90027E8E07081FF1FA7
:4002C0007481FF1F7581FF1F7281FF1F7381FF1F7181FF1FC5050000B90500004C1C00006C1C0000941C0000B81C0000D41C0000101D0000301D00006C1D0000881D000010
:40030000C01D0000FC1D0000341E0000541E0000901E0000C41E0000081F0000441F0000881F000005AB02222821182000F0EEF804AB02222A21182000F0E8F803AB02221F
:400340002C21182000F0E2F800283BD19DF814309DF8152043EA022242F38912920092B215442DB29DF810309DF8111043EA012343F389139B009BB21E4436B29DF80C1097
:400380009DF80D0041EA002141F38911890089B208B241440FFA81F800901BB212B23F4907A801F02DF807A800F0BAFF0DF10B022F21182000F08AF89DF80B3003F01F034C
:4003C0008DF80B300134E4B29DF80B30002B5ED195FBF4F596FBF4F698FBF4F4009433462A462F4907A801F00BF807A800F098FF002DB8BF6D422FB2002EB8BF764235B293
:40040000002CB8BF644224B200942B463A46254907A800F0F5FF07A800F082FF6FF0300202FB07F3204981FB03601844DB17C3EB60236833DBB21D48037002FB05F581FB35
:4004400005632B44ED17C5EB63236833DBB2184D2B7002FB04F381FB03211944DB17C3EB61236833DBB213490B7002782B7809780091114907A800F0C3FF07A800F050FF57
:4004800000240E4B1C7025462646A04601270B4B1B7813F0FF0F7FF445AF05E7D01F0000EC1F000014200000898888887481FF1F7581FF1F7081FF1F482000007681FF1FFF
:4004C00008B500F07BFC002008BD00BFF8B506460D461746002100F0EDFD044678B9284600F07AFE044650B90121304600F022FE044620B900F09CFE387000F051FE00F0C0
:400500004FFE201C18BF0120F8BD00BF2DE9F04180460C4616461F46002100F0CBFD0546F0B944F0800000F057FE0546C0B90121404600F0FFFD054650B111E0C4EB06088E
:40054000012000F075FE07F80800013CE4B200E03446012CF2D8013E002000F069FEB85500F01EFE281C18BF0120BDE8F08100BF70B50D461646002100F09CFD044640B92B
:40058000284600F029FE044618B9304600F024FE044600F005FE201C18BF012070BD00BF10B5002100F086FD044600F0F9FD0CB9012010BD002010BD0122014B1A707047DD
:4005C0007681FF1F08B500F0EFFA334A1378013BDBB2137031490B78013BDBB20B7030490B78013BDBB20B70137813F0FF0F0FD12C4B1B78DBB2642B05D800F073FAC0439C
:40060000C0B200F063FA274B1B78DBB2224A1370244B1B78DBB2642B02D9012000F056FA1E4B1B7813F0FF0F0FD11F4B1B78DBB2642B05D800F042FAC043C0B200F032FA80
:40064000194B1B78DBB2154A1370174B1B78DBB2642B02D9012000F025FA114B1B7813F0FF0F0FD1114B1B78DBB2642B05D800F013FAC043C0B200F003FA0C4B1B78DBB25A
:40068000074A1370094B1B78DBB2642B02D9012000F0F6F908BD00BF7181FF1F7381FF1F7281FF1F7581FF1F7481FF1F7081FF1FFEE700BFF0B40022174611E050F8276014
:4006C000F3B226F0FF0608E001EB420511F812406D78A5550132013BDBB2002BF4D10137212FEBD9F0BC70470A4B1B78DBB203F00701094A11701B09013213700822074BB0
:400700001A708023064A1370583213704422054B1A707047CF0100496E5800403D510040005B00407658004008B50A46002100F05EFE08BD08B500F04FFE08BD38B5002410
:40074000374B1C80502202331A700B2202331A801823344A13701925023215800232137040F2AF41023211800232137040F65F11023211800232137004222B492B48FFF771
:40078000D9FF02222A4B1A7008224FF040231A70032103F500731970264B1B78DBB226490B70264B1A8041F25122023B1A800CE0234B1B7803F0010343EA440404F0030479
:4007C0004FF4F07000F0CCFD013D0DB1032CEFD115B90320FFF76CFF1A4B4FF480721A8007221A70002218490A704820023108701A700222033B1A7004220A331A70134AA9
:40080000137843F01F031370013A137843F001031370013A137843F08003137038BD00BF8040004086400040D0070048004100400043004008010049A146004022420040DC
:40084000254200400440004006400040A243004038B572B6394A137843F00403137000240BE0374863001A19510001440A46098AD068FFF759FF0134E4B2092CF1D90024B1
:400880000CE02F48A20011194B000344B3F85020D96C986CFFF74EFF0134E4B2012CF0D928494FF09040FFF705FF0A24264B1C70264A137843F0020313701032137843F0B4
:4008C00002031370224D2B7843F040032B70A2F58632513A137843F01003137008221D491D48FFF727FF22461C491D48FFF722FF08221C491C48FFF71DFF22461B491C4890
:40090000FFF718FF22461B491B48FFF713FF1B4A137843F008031370194C61232370FFF70DFF812323700122164B1A70FFF7DCFE0E2229461448FFF7FDFE38BDE8460040E0
:4009400074200000880000488358004003500140A04300409C07004802510040A4070048C0510040B007004812510040B807004820510040C40700483051004022430040AC
:400980000048004004000840B043004008B500F0F7FC03680C2B00D1FEE7FEE708B5094B1A681044084BC31A802B02DC054B186005E000F0E5FC0C2303604FF0FF321046DD
:4009C00008BD00BFCC80FF1F9081FF1F08B5104E104D16E029686B68AC68002204E051F8040B43F8040B0432A242F8D1E868002203E0002143F8041B04328242F9D1103590
:400A0000013E002EE6D100F0C1FCFFF73BFBFEE7010000002C21000008B5104A104B1A60104A136843F40073136000230AE0032B03D80D4A52F8231000E00C490C4A42F8F9
:400A4000231001332F2BF2D90A4B1A780A4B1A70074A0A4B1A60FFF7FBFE08BD0004FA050CED00E014ED00E0000000008D0900000080FF1FBC760040C080FF1F08ED00E0BA
:400A8000044A137803F07F03C001C0B218431070704700BF30510040014B1878C009704731510040044A137803F0BF03800100F0400018431070704730510040024B187816
:400AC000C0F38010704700BF31510040044A137803F0DF03400100F0200018431070704730510040024B1878C0F34010704700BF31510040014B1B681864704708ED00E03A
:400B00004001C0B2014B1870704700BF00E400E00122014B1A60704700E100E00122014B1A60704780E100E010B50446FFF7F6FF2046FFF7DFFF0720FFF7E2FFFFF7E8FFA3
:400B400010BD00BF044A137803F0FB03800000F00400184310707047C0510040044A137803F0F703C00000F00800184310707047C0510040084A137843F00103137010328E
:400B8000137843F00103137002F64D32137843F001031370704700BFA3430040014B1870704700BF034F0040014B1878704700BF034F0040014B1880704700BF044F0040EB
:400BC000014B1880704700BF064F004008B5154A137803F0010313700232137803F0FC031370114B1A7802F0CF021A701A7842F030021A701A7802F0F0021A701A7842F032
:400C00000F021A70094A137843F0010313706320FFF7D0FF6320FFF7D3FF0820FFF7BEFF08BD00BF004F00400B4F0040014F004008B5054B1B7823B9FFF7C8FF0122024B2D
:400C40001A70FFF797FF08BD6481FF1F024B1B68C3F88400704700BF08ED00E04001C0B2014B1870704700BF11E400E04FF40032014B1A60704700BF00E100E04FF4003283
:400C8000014B1A60704700BF80E100E010B50446FFF7F4FF2046FFF7D9FF0720FFF7DEFFFFF7E4FF10BD00BF01BE704710B5044605E0084B186800F053FBA4F50044B4F52B
:400CC000004FF6D8034B586800FB04F000F048FB10BD00BFD080FF1F70B504460E46074B1D681F2802D90020FFF7DEFF04F01F04103455F8240045F8246070BD08ED00E06F
:400D000038B504460D46072902D90020FFF7CCFF1F2C02D90020FFF7C7FF04F01F0000F1604000F564406D01EDB2057038BD00BF10B50222114B1A7081220E3B1A70082259
:400D400002331A70042211331A70002401331C704FF400420A4B1A6007210F20FFF7D0FF08490F20FFF7B8FF1022074B1A70074B1C70074B1C70074B1C7010BDD64900406B
:400D800080E100E0E50D00007781FF1F8581FF1F7881FF1F7981FF1F08B500F0E9FA064A137843F0040313701032137843F00403137000F0E1FA08BDA543004008B5074B1E
:400DC0001B7823B9FFF7B4FF0122044B1A70FFF7E3FF4FF40042024B1A6008BD6581FF1F00E100E038B5A54B1C78A54B1B7813F0400F00F03A81E4B214F0010F00F01D8108
:400E00009F4B1B78453B052B00F21481DFE813F006008200120112010600DF0004F0DF0504F00A04082C42D1954B1B78DBB2452B35D1944B1B7813F0FF0F10D0924B1B6847
:400E40001B78DBB2914A137004228C4B1A7001228F4B1A7046228A4B1A702C46EDE08D4B1B7813F0020F0DD08B4A137843F00A0313706022824B1A704FF40042874B1A60B7
:400E80002C46DAE0864A137843F0100313701022844B1A700422023B1A702C46CDE00022764B1A704A22764B1A702C46C5E00A2C2BD1794A137843F0A0031370754B1B78E4
:400EC00013F0020F14D06E4B1B7813F0080F01D0092300E00A23704A11780B4313706022674B1A704FF400426C4B1A602C46A4E06B4A137843F0100313701022694B1A7093
:400F00000422023B1A702C4697E00020FFF7CCFE2C4692E014F0020F36D15D4B1A78D2B2584B1B78DBB29A4210D2594A1378DBB255490968CB5CDBB254490B7004214F4B67
:400F4000197013780133DBB2137076E0514B1B7813F0020F0CD0504A137843F00A0313706022474B1A704FF400424C4B1A6064E04B4A137843F0100313701022494B1A700B
:400F80000422023B1A7058E0424B1B7813F0020F0CD0414A137843F09A0313706022384B1A704FF400423D4B1A6046E03C4A137843F01003137010223A4B1A700422023BD9
:400FC0001A70354A137843F09003137035E0364A1378DBB2354908682C490978C9B2C15413780133DBB213701278D2B2304B1B78DBB29A4203D21022204B1A701DE0254B36
:401000001B7813F0020F0CD0234A137843F00903137060221A4B1A704FF400421F4B1A600BE01F4A137843F0100313700022134B1A7002E00020FFF737FE14F0200F1CD09B
:401040000F4B1B7813F0080F01D0012300E00223114A11780B431370114A137803F0EF0313701022064B1A7038BD054B1B7813F0100F02D11022024B1A7038BDD749004034
:401080007781FF1F7A81FF1F7C81FF1FD84900407981FF1F8481FF1F8581FF1F80E100E0D6490040D94900407881FF1F8081FF1F8681FF1F1A4B1B78DBB2102B29D1194BAB
:4010C0001B7813F0080F26D14FF40042164B1A604000C0B229B140F001004922104B1A7002E045220E4B1A70104B1870012201331A700F4B1B7813F0010FFAD00C4B1B783B
:4011000003F00A030A2B08D11022054B1A700320704702207047012070470020704700BF7781FF1FD949004080E100E0D8490040D7490040164B1B7813F0040F23D04000BD
:40114000C0B229B140F001004922124B1A7002E04522104B1A70104B1870122201331A700422023B1A700D4B1B7813F0010FFAD00A4B1B7803F00A030A2B06D11022054B72
:401180001A7003207047022070470020704700BFD94900407781FF1FD8490040D74900400A4B1B7813F0040F0ED01023074A13700421023A1170064A1370064B1B7813F0A4
:4011C000210FFAD00020704702207047D94900407781FF1FD7490040114B1B7813F0040F1BD0104B18700422013B1A7046220E4B1A700E4B1B7813F0010FFAD00B4B1B78B1
:4012000013F0020F04D16022074B1A70002070476022054B1A70032070470220704700BFD9490040D84900407781FF1FD7490040114B1B7813F0040F1BD0104B1B78DBB21E
:40124000492B05D100220E4B1A704A220B4B1A700B4B1B7813F0010FFAD00A4B1B78DBB218B11021064A117004E06021034A117000E0002318467047D94900407781FF1F0A
:40128000D7490040D84900407222084B1A702022A3F580731A700622603B1A70472210331A70002203F5A9731A7070478965004010B500F05DF804460B4A137843F02003F3
:4012C0001370A2F58072137843F01003137002F58172137843F01003137000F033F8204600F04AF810BD00BF9965004008B5054B1B7823B9FFF7C8FF0122024B1A70FFF7AA
:40130000D7FF08BD6681FF1F034B1B7813F0040FFAD1024B187070476B6500404865004038B5074B1B782BB938BDFFF7EDFF0134A4B201E005460024285D0028F5D138BDF2
:401340006681FF1F054A137843F0040313701032137843F004031370704700BFA24300400230800803D000BF01380046FCD17047EFF3108072B6704780F31088704700BF8B
:40138000014B1868704700BF4081FF1F0E4B70B51E460E4C0025E41AA410A54204D056F8253098470135F8E700F0AEFE084B094C1E46E41AA4100025A54204D056F82530CA
:4013C00098470135F8E770BD1421000014210000142100001C21000010B5431E0A44914204D011F8014B03F8014FF8E710BD03460244934202D003F8011BFAE770470000A4
:401400000EB400B54FF402719CB0ADF814106FF00041049107914FF6FF711DAB02900690084853F8042BADF81610006802A9019300F064F8029B00221A701CB05DF804EB17
:4014400003B070474081FF1F2DE9F0478E6882469E420C46914698463ED88A8912F4906F3AD02568096902236F1A656905EB450595FBF3F57B1C43449D4238BF1D4653051D
:401480000FD5294600F040FB064698B13A462169FFF7A2FFA38923F4906343F08003A38113E02A4600F08EFB064670B92169504600F0DEFA0C23CAF80030A3894FF0FF3074
:4014C00043F04003A381BDE8F08726613E44266046466561ED1BA560464528BF464649463246206800F0A8FAA36800209B1BA36023681E442660BDE8F08700002DE9F04F61
:401500009DB003938B8980461C060D4616460DD50B695BB9402100F0F7FA2860286118B90C23C8F80030CDE040236B610023099320238DF82930DFF89CB130238DF82A305E
:4015400037463C4614F8013B1BB9B7EB060910D003E0252BF9D02746F3E74B46324629464046FFF771FF013000F0A780099B4B4409933B78002B00F0A08000234FF0FF3280
:4015800004930793059206938DF853301A930126052221784E4800F041FA671C049B38B14B4A3C46801A06FA00F018430490EFE7D90644BF20228DF853201A0744BF2B226F
:4015C0008DF8532022782A2A03D0079A00210A200BE0039A111D12680391002A10DA524243F00200079204900BE027463B780134303B092B03D800FB02320121F5E701B1DF
:4016000007923B782E2B1ED17B782A2B0AD1039B02371A1D1B680392002BB8BF4FF0FF33059310E0002319460593781C0A2407463A780130303A092A03D804FB0121012369
:40164000F5E703B1059103223978224800F0E6F940B14023CBEB000003FA00F0049B013718430490397806221B487E1C8DF8281000F0D4F988B1194B33B9039B073323F0B4
:4016800007030833039314E003AB00932A46144B04A94046AFF3008007E003AB00932A460F4B04A9404600F093F8B0F1FF3F824603D0099B5344099342E7AB895B0601D472
:4016C000099801E04FF0FF301DB0BDE8F08F00BFD2200000D8200000DC20000000000000491400002DE9F04791461F460A698B6806469342B8BF1346C9F8003091F843204A
:401700000C46DDF8208012B10133C9F800302368990642BFD9F800300233C9F80030256815F0060510D104F1190A07E00123524639463046C04701301AD00135E368D9F806
:4017400000209B1A9D42F1DB94F843302268003318BF012392060FD5E118302081F843005A1C94F845102244023382F8431003E04FF0FF30BDE8F08704F143023946304656
:40178000C0470130F4D02268D9F80050E36802F00602042A08BF5D1B2269A3680CBF25EAE57500259342C4BF9B1AED184FF000091A344D4509D00123224639463046C04746
:4017C0000130D5D009F10109F3E70020BDE8F0872DE9F04317460A7E85B06E2A984606460C460C9B01F1430E00F0AE8011D8632A22D009D8002A00F0BB80582A40F0CA80E0
:4018000081F84520834955E0642A1ED0692A1CD0C0E0732A00F0B08009D86F2A2ED0702A40F0B8800A6842F020020A603EE0752A24D0782A3AD0ADE01A6801F14205111DF4
:401840001960136884F84230A8E021681A6811F0800F02D0111D196008E011F0400F02F10401196002D0B2F9003000E01368002B3CDA2D225B4284F8432037E021681A680B
:4018800011F0800F02D0111D196007E011F0400F02F10401196001D0138800E01368227E5C496F2A14BF0A2208221BE078225A4984F845202268186812F0800F00F10405FB
:4018C0001D6003D1550601D5038800E00368D00744BF42F0200222601BB9226822F0200222601022002084F8430001E049490A226568002DA56008DB206820F0040020601E
:401900002BB9002D7DD175460CE0002B79D07546B3FBF2F002FB1033CB5C05F8013D03460028F5D1082A0BD12368DA0708D5236962689A42DEBF302305F8013C05F1FF352C
:40194000C5EB0E0323612EE008681A6810F0800F496903D0101D1860136808E010F0400F02F104001860136801D0198000E0196000232361754616E01A68111D196015680C
:4019800000216268284600F049F808B1401B6060636804E004F1420584F8422001232361002384F84330CDF800803B4603AA21463046FFF797FE013002D14FF0FF3026E0F3
:4019C00023692A4639463046C0470130F5D023689B0710D5002504F1190907E001234A4639463046C0470130E7D00135E368039A9B1A9D42F2DBE068039B9842B8BF184618
:401A000005E00B7804F1420584F842308AE705B0BDE8F083E3200000F420000010B5C9B202449042034605D01C7801308C42F8D1184610BD002010BD884210B501EB020355
:401A400001D8421E0BE09842FBD28118D21AD34204D013F8014D01F8014DF8E710BD994204D011F8014B02F8014FF8E710BD000038B50546002944D051F8043C0C1F002B93
:401A8000B8BFE41800F0D4F81E4A1368114613B96360146030E0A3420DD92268A018834201BF18685B681218226063600C6023E0A24203D813465A68002AF9D11868191878
:401AC000A1420BD12168014458188242196013D110685268014419605A600DE002D90C232B6009E021686018824201BF106852680918216062605C602846BDE8384000F061
:401B000098B838BD6C81FF1F70B5CD1C25F0030508350C2D38BF0C25002D064601DBA94202D90C23336046E000F082F8234B1C681A462146A1B10B685B1B0ED40B2B03D937
:401B40000B60CC18CD501EE08C420BBF63684B681360636018BF0C4615E00C464968E9E7174C23681BB9304600F052F820602946304600F04DF8431C18D0C41C24F0030470
:401B8000A0420DD12560304600F053F804F10B00231D20F00700C31A0ED05A42E25070BD211A304600F034F80130EBD10C233360304600F03EF8002070BD00BF6C81FF1FF3
:401BC0006881FF1FF8B5074615460E4621B91146BDE8F840FFF798BF1AB9FFF749FF2846F8BD00F027F885420ED929463846FFF78BFF044650B131462A46FFF7EDFB3146F5
:401C00003846FFF735FF01E03046F8BD2046F8BD38B5064C0023054608462360FEF7BEFE431C02D1236803B12B6038BD8881FF1F7047704751F8040C0028BEBF091851F8B8
:401C4000043CC01804387047000000004465766963652030782530325820697320636F6E6E65637465640D0A0000000057484F20414D2049205245473A2030782530325898
:401C8000205B45787065637465643A20307833335D0D0A004572726F72206F6363757272656420647572696E672049324320636F6D6D0D0A0000000053544154555320525A
:401CC000454749535445523A203078253032580D0A0000004572726F72206F6363757272656420647572696E672049324320636F6D6D20746F2072656164207374617475F5
:401D0000732072656769737465720D0A00000000434F4E54524F4C20524547495354455220313A203078253032580D0A000000004572726F72206F636375727265642064A0
:401D40007572696E672049324320636F6D6D20746F207265616420636F6E74726F6C20726567697374657220310D0A000D0A57726974696E67206E65772076616C756573B2
:401D80002E2E0D0A00000000434F4E54524F4C2052454749535445522031207375636365737366756C6C79207772697474656E2061733A203078253032580D0A000000005B
:401DC0004572726F72206F6363757272656420647572696E672049324320636F6D6D20746F2073657420636F6E74726F6C20726567697374657220310D0A0000434F4E545E
:401E0000524F4C2052454749535445522031206166746572206F7665727772697465206F7065726174696F6E3A203078253032580D0A0000434F4E54524F4C205245474955
:401E40005354455220343A203078253032580D0A000000004572726F72206F6363757272656420647572696E672049324320636F6D6D20746F207265616420636F6E7472FF
:401E80006F6C207265676973746572340D0A0000434F4E54524F4C2052454749535445522034206166746572206265696E6720757064617465643A203078253032580D0A27
:401EC00000000000434F4E54524F4C2052454749535445522035204649464F20454E41424C45207375636365737366756C6C79207772697474656E2061733A20307825301F
:401F000032580D0A000000004572726F72206F6363757272656420647572696E672049324320636F6D6D20746F2073657420636F6E74726F6C2072656769737465722035C2
:401F40000D0A0000434F4E54524F4C205245474953544552203520425950415353204D4F4445207375636365737366756C6C79207772697474656E2061733A20307825305B
:401F800032580D0A00000000434F4E54524F4C2052454749535445522033204F56455252554E20494E5420454E41424C45207375636365737366756C6C79207772697474C5
:401FC000656E2061733A203078253032580D0A00583A20256420202020593A20256420202020205A3A25640D0A0000006D65616E583A202564202020206D65616E593A20A7
:40200000256420202020206D65616E5A3A25640D0A000000616273206D65616E583A20256420202020616273206D65616E593A2025642020202020616273206D65616E5ACC
:402040003A25640D0A00000066715F677265656E3A2025642020202066715F626C75653A202564202020202066715F7265643A25640D0A00035B00402443004040000000AB
:40208000C84900401900004F00400C00405100403000F0510040100000000140800400050140000B00140140000800400140000A004C014000020050014020006052004059
:4020C000140700480600800401401C07004880004300232D302B2000686C4C0065666745464700303132333435363738394142434445460030313233343536373839616223
:402100006364656600000000F8B500BFF8BC08BC9E4670474D000000190A0000F8B500BFF8BC08BC9E4670472900000040210000C880FF1F800000004800000000000000E7
:40214000000000009081FF1F0000E02EC05D00001800000000366E010000000000000000000000000000000000000000000000000000000000000000D02000000000000058
:402180000000000000000000000000000000000000000000000000000000000000000000000000000000000000000000000000000000000000000000E080FF1F00000000A1
:4021C00000000000000000000000000000000000000000000000000000000000000000000000000000000000000000000000000000000000000000000000000000000000DF
:40220000000000000000000000000000000000000000000000000000000000000000000000000000000000000000000000000000000000000000000000000000000000009E
:40224000000000000000000000000000000000000000000000000000000000000000000000000000000000000000000000000000000000000000000000000000000000005E
:40228000000000000000000000000000000000000000000000000000000000000000000000000000000000000000000000000000000000000000000000000000000000001E
:020000040003F7
:0200000480007A
:40000000024F00400352004003640040036500404A02014033030140220401404D0501400B070140570801403C090140080B0140040C0140040D0140051501400417014026
:400040004E180140431901405B1A0140501B014002400140064101400B42014001430140044401400645014009460140014701400348014012490140074C0140104D014034
:40008000065001400251014001400A4B004001201102830F880F8938880F89728B0F03400401053806060702080809220A130B180C6C0D3A11181322146815181604186C7C
:4000C00019011BD81C101D931E681F04206C213A2417251C264027C3281129022A262C6C2F2031C03207330F3513367837203A883B083F405440580459045B045C115D105D
:400100005F018502880E8B0194059502960A9902A404A609AC03AE04B20FB501B702B808BF40D602D720D804D904DB04DC31DD10DF01001005040602070409080E16110CE5
:4001400013801504175118101D041E02200823012402250927142C882D042F03331435043791382039043C803D023E146280650866206702684069286A146B4170807202E1
:40018000800181088404C0E2C2E4C4F5CAF0CCF6CEF6D878E402EE01020111011B031E013102330134013E1040104104452D4651480F49FF4AFF4BFF4DA04F045018580437
:4001C00059045A045C305D035F01604062C06440654066C068C06AC06CC06EC00102038004800504074408800B020C840D080E481528170118041C201D801E42210222043A
:400200002504268C2C042E0831023320368037043D08408043804404458047044A204B024C414D044E08514053205408562857025D845E025F2067018140824087208C01E5
:4002400091289301942099049B459E20A080A108A408A504A680A702AB84B501C0F8C2F1C470CA60CC55CE40D079D230D6F0D810E001E408EA18801094209D02A220A8085B
:40028000AB20AC10AD80B204B404E20402020304070A11011201160119022B042E042F0130043101320233023401350837043E104040410645D546204710482B49FF4AFFC6
:4002C0004BFF4DA04F04501852805407580459045A045B045C335D335F01604062C06440654066C068C06AC06CC06EC080408473860C884D8A128E40904D9222940C987F3D
:40030000A008A404AE32B07CB20EB601BA2ABE40C003C640C9FFCA07CBFFCC40CD20CEF0CF05D008D418D804DA04DB04DC02DD22DF01E040E1A8E240E320008003A80680B8
:4003400009080A440D020F2010A012021740188019201A451B081D021E081F042442261027202F06340236103D043E02430445024B044D054F2051105220571259015C4025
:400380005D015E085F206140630877408302940298229A069B08B020B708C01FC23EC48DCA30CCA0CEC0D082D220D6F1D80CE880EC408001820486029802AF40B440E240BB
:4003C000E40438823E4158045F011C401F408402EE01E008E204E401EA05EC10AD02AE20EC02EE08072308010D5C0F03116113161561170E1B08271C2A033001331A3402C6
:400400003560370F39203B883F104042410345E046B047C0482A49FF4AFF4BFF4EF04F44500C5407580459045A045B045C235D325F0166C06A406B02801184738501860CF8
:40044000880F89018A708C4C8E338F02910194339702982299029C7FA008A404A80CA902AE73B030B101B302B40FB64CB908BA20D602D713D804D904DB04DC22DD20DF0129
:40048000014003A8051008800A2810A81202160419011A021B201C401D102202231025442604270429202F103002332836243701388039543D803E083F044504460847017B
:4004C0004D0157115A015C605F0A6802691470A871089080912092019304982099209A049B0A9D419E809F04A220A308A4E0A508A602A7A4AF06C04FC207C44FCA44CCE71E
:40050000CE5ED0E0D6F1012203D10567096715441602173119011B0E1E0126022A013180320233603507360137183E443F40402541064204440146E0470C481849FF4AFFFB
:400540004BFF4C624DA04EF04F41500C5280580459045A045B045C205D325F016640670269106A306B106D106E106F128103832484098610872588408D0A8F24901C914017
:400580009222941495239704982C9A119D239E039F0CA030A110A20CA708A810B140B320B460B510B61FB70FB820BB80BF15D401D804D904DB04DC22DD20DF0105080608F9
:4005C00008800A020B100E0A0F60100812101520170119401B041E021F1020812120221424402508268027092D092F10312032043685380239143D803E023F464081432014
:4006000049204A02500852105C205D015F88728080408108838088208A028C018F809135920293149628972099209A089D409E809F01A140A206A331A440A784B480B5209B
:40064000C060C2F5C456CAC0CCD6CED7D00DD20CD6F0E008E204E405EA05EC103340CC1060106580AB40D680D840EE803E105B0881809B089D80AF08B410CE20D640E22037
:40068000EA10961013027C20C408DE01010853019C20AB02C008D401450883018D0897029908B420D001E202E802A50825109610C8201220164077107B02822083108640D1
:4006C000A302AA10AB02B510C430DC80DE20E010E220E480EAA0132816207B107F40A508C40EDE031280700180018220831087408E8097809A20A710AB28B508C408DC0191
:40070000E202EC08000E080A0A0A0C0C100C1C0C000303C0028000004300000084000000044C00300700380060000000010000000A191062560009008410006804008000AE
:4007400084040000802E0451000000007F0008070000807802000088000044002603100005BEF0DC3BFFFFFF2200F008040000000900000004040404111100010000C00080
:4007800040011011C0010011400140010000000000000000000000000000000000606000600000008300508C8F00830000000000000B0B000000000014000116120002009D
:4007C00000000000E00000E0E00000000800000025001801000000000000000000000000000000000000000000000000000000000000000000000000000000000000000013
:4008000000000000000000000000000000000000000000000000000000000000000000000000000000000000000000000000000000000000000000000000000000000000B8
:400840000000000000000000000000000000000000000000000000000000000000000000000000000000000000000000000000000000000000000000000000000000000078
:400880000000000000000000000000000000000000000000000000000000000000000000000000000000000000000000000000000000000000000000000000000000000038
:4008C00000000000000000000000000000000000000000000000000000000000000000000000000000000000000000000000000000000000000000000000000000000000F8
:0200000490006A
:0400000000004005B7
:0200000490105A
:04000000BC90ACAF55
:0200000490303A
:02000000EBB162
:0200000490402A
:4000000000000000000000000000000000000000000000000000000000000000000000000000000000000000000000000000000000000000000000000000000000000000C0
:400040000000000000000000000000000000000000000000000000000000000000000000000000000000000000000000000000000000000000000000000000000000000080
:400080000000000000000000000000000000000000000000000000000000000000000000000000000000000000000000000000000000000000000000000000000000000040
:4000C0000000000000000000000000000000000000000000000000000000000000000000000000000000000000000000000000000000000000000000000000000000000000
:0200000490501A
:0C00000000012E16106900012E23FC1ACE
:00000001FF