:400000000080002011000000790E0000790E000008B5044B1A6803F53F5302331A6000F04BFF00BFFA46004010B5054C237833B9044B13B10448AFF300800123237010BD1F
:400040004881FF1F000000001C2E0000084B10B51BB108490848AFF300800848036803B910BD074B002BFBD0BDE81040184700BF000000004C81FF1F1C2E0000C880FF1F6E
:4000800000000000000000002DE9F047AEB062B6A04840F26B1303809F490B809F4A138003889BB29E4803800B889BB29D490B8013889BB29C4A138001F030F8012000F056
:4000C000C3FF002000F0B4FF00F062FB01F08CFD01F08AFB954801F04FF8954800F09AFF052001F059F80024924B1C600CE0E0B200F0BEFB38B122468F4921A802F06AFA70
:4001000021A801F08BFB01347F2CF0DD0DF183020F21182000F042FB48B99DF88320874921A802F057FA21A801F078FB02E0844801F074FB0DF182022721182000F02EFB4F
:4001400048B99DF882207F4921A802F043FA21A801F064FB02E07C4801F060FB0DF181022021182000F01AFB48B99DF88120774921A802F02FFA21A801F050FB02E07448FF
:4001800001F04CFB734801F049FB9DF88130572B14D057228DF881202021182000F050FB48B99DF881206C4921A802F013FA21A801F034FB02E0694801F030FB0DF181024B
:4001C0002021182000F0EAFA48B99DF88120644921A802F0FFF921A801F020FB02E05C4801F01CFB20AA2321182000F0D7FA48B99DF880205B4921A802F0ECF921A801F07D
:400200000DFB02E0584801F009FB80222EAC04F8382D2321182000F013FB22462321182000F0BCFA48B99DF88020504921A802F0D1F921A801F0F2FA02E04B4801F0EEFA16
:4002400048222421182000F0FBFA40B94822484921A802F0BFF921A801F0E0FA02E0454801F0DCFA00222E21182000F0E9FA40B90022414921A802F0ADF921A801F0CEFA7D
:4002800002E03C4801F0CAFA44222221182000F0D7FA40B94422394921A802F09BF921A801F0BCFA02E0334801F0B8FA2A223021182000F0C5FA40B92A22314921A802F0E3
:4002C00089F921A801F0AAFA02E02A4801F0A6FA46223221182000F0B3FA40B94622294921A802F077F921A801F098FA02E0214801F094FA01223321182000F0A1FA002833
:4003000044D10122204921A802F064F921A801F085FA3EE07881FF1F8481FF1F8081FF1F7681FF1F8281FF1F7481FF1FE9080000890800007C81FF1F202E0000402E0000B2
:40034000682E00008C2E0000A82E0000E42E0000042F0000402F00005C2F0000942F0000D02F000008300000283000006430000098300000DC300000183100005C31000088
:40038000A4310000E031000014320000824801F045FA0A238DF87C3014238DF87D3002221FA9104600F0CCFB00F0F8FB02221EA9104600F0B3FB9DF879309DF8782077496A
:4003C00021A802F007F921A801F028FAA0238DF87030C0238DF8773000240127A04625462646002F00F0B58147222E21182000F027FA0027ADE11BAB02222821182000F000
:40040000EDF91AAB02222A21182000F0E7F919AB02222C21182000F0E1F9002840F0F5809DF86C309DF86D2043EA022343F389139B009BB28DF871301A0A8DF872201E4474
:4004400036B29DF868309DF8692043EA022343F389139B009BB28DF873301A0A8DF874201D442DB29DF864309DF8652043EA022343F389139B009BB28DF875301A0A8DF876
:40048000762043440FFA83F8454B1B78DBB2012B40F0BB802AE009EB040309F101022EA90A4412F8482C194401F8842C013309F102092EAA4A4412F8482C2EA8034403F874
:4004C000842C11F8843C43EA022212B2354921A802F080F821A801F0A1F92246324921A802F078F821A801F099F901E04FF00009B9F1050FCFDD062C40F087802B4B1A681B
:400500008DF85E201A68C2F307228DF85F201A68C2F307428DF860201A68120E8DF861201A68234921A802F055F821A801F076F92E220DA9022000F003FB00F02FFB0DF1DA
:40054000840EDFF870C0BCE80F00AEE80F009CE803004EF8040BAEF8001021A801F05EF94FF000090E4B83F800902E2201A9022000F0D4FA0DF1840EDFF83CC0BCE80F004B
:40058000AEE80F009CE803004EF8040B8EF8001021A801F043F927E0DC300000503200008681FF1F70320000843200007C81FF1F94320000A8320000C03200002EAB4B4407
:4005C00013F8B43C09F101022EA90A4412F8B42C43EA022212B2684921A801F0FBFF21A801F01CF909F10209B9F1290FE6DD9DF82E309DF82F2043EA022212B25E4921A8A5
:4006000001F0E8FF21A801F009F90134E4B2062C40F29F8096FBF4F095FBF4FA98FBF4F30028B8BF4042BAF1000FB8BFCAF1000A0FFA8AFA83EAE375A5EBE3752DB200B289
:4006400001F0F0FC06460F4645A3D3E9002301F04FFD02460B463046394601F049FD8046894641A3D3E900233046394601F040FD02460B464046494601F086FB3CA3D3E9FD
:40068000002301F083FB01F045FF80B23B4B1880504601F0C7FC06460F4631A3D3E9002301F026FD02460B463046394601F020FD804689462CA3D3E900233046394601F0AC
:4006C00017FD02460B464046494601F05DFB28A3D3E9002301F05AFB01F01CFF80B2284B1880284601F09EFC06460F461CA3D3E9002301F0FDFC02460B463046394601F015
:40070000F7FC8046894618A3D3E900233046394601F0EEFC02460B464046494601F034FB13A3D3E9002301F031FB01F0F3FE80B2144B18802246144921A801F04BFF21A8AA
:4007400001F06CF80024114B1C7026462546A04601270E4B1B7813F0FF0F7FF44CAE40E62D431CEBE2361A3F9A9999999999D93F0000000000207940D83200008481FF1F06
:400780008081FF1F7881FF1FEC3200008781FF1F08B500F093FD002008BD00BFF8B506460D461746002100F005FF044678B9284600F092FF044650B90121304600F03AFFA2
:4007C000044620B900F0B4FF387000F069FF00F067FF201C18BF0120F8BD00BF2DE9F04180460C4616461F46002100F0E3FE0546F0B944F0800000F06FFF0546C0B9012137
:40080000404600F017FF054650B111E0C4EB0608012000F08DFF07F80800013CE4B200E03446012CF2D8013E002000F081FFB85500F036FF281C18BF0120BDE8F08100BF58
:4008400070B50D461646002100F0B4FE044640B9284600F041FF044618B9304600F03CFF044600F01DFF201C18BF012070BD00BF10B5002100F09EFE044600F011FF0CB94D
:40088000012010BD002010BD38B5114C224631211820FFF783FF0F4B1870237813F0400F12D00D4D0D4C0FCC28606960AA60EB6020682861A288A379AA82AB75284600F0C3
:4008C000ADFF0122064B1A700122064B1A7038BDBA81FF1FBC81FF1F8881FF1FFC3200008681FF1F8781FF1F08B500F0D3FB384A13889BB2013B9BB2138036490B889BB2A7
:40090000013B9BB20B8034490B889BB2013B9BB20B8013889BB283B9304B1B889BB2B3F5B67F05D200F054FBC043C0B200F044FB2A4B1B889BB2264A1380284B1B889BB241
:40094000B3F5B67F02D3012000F036FB214B1B889BB283B9224B1B889BB2B3F5B67F05D200F022FBC043C0B200F012FB1C4B1B889BB2184A13801A4B1B889BB2B3F5B67FDD
:4009800002D3012000F004FB134B1B889BB283B9144B1B889BB2B3F5B67F05D200F0F2FAC043C0B200F0E2FA0E4B1B889BB20A4A13800C4B1B889BB2B3F5B67F02D301205E
:4009C00000F0D4FA084A13680133136008BD00BF7481FF1F8281FF1F7681FF1F8081FF1F8481FF1F7881FF1F7C81FF1F10B50446002000F033FF204600F09AFF00F070FFE5
:400A000010F0080FFAD000F0FDFF0446012000F025FF204610BD00BF10B50446002000F01DFF204600F084FF002000F081FF00F057FF10F0010FFAD000F0E4FF00F0E2FF10
:400A40000446012000F00AFF204610BD2DE9F04383B006460C4617469846002000F0FEFE64B2002511E02146082CA8BF0821C9B206EBC50001F042F800F032FF10F0010F9A
:400A8000FAD0083C64B201356DB2002CEBDC01F045F800F0E9FF0026009601964FFA88F820E0C146B8F1080FA8BF4FF008095FFA89F1684601F022F800F012FF10F0010F8D
:400AC000FAD0002406E004EBC60500F09BFF78550134E4B24C45F6DBA8F108084FFA88F8013676B2B8F1000FDBDC012000F0B6FE01F014F800F0B8FF00F0D6FF03B0BDE81E
:400B0000F08300BF08B50520FFF786FF08BD00BF08B50620FFF76AFF08BD00BF10B582B003248DF80440030A8DF805308DF8060013460A46214601A8FFF788FF02B010BDEE
:400B40002DE9F04182B000AF054688461446FFF7DFFF012000F036FBE61C04F10A0323F00703ADEB030D02238DF800302B0A8DF801308DF80250224641460DF1030001F07E
:400B800015FD002307F1080202F8013DF1B26846FFF75CFF0837BD46BDE8F08108B5FFF7B1FF10F0010FFAD108BD00BFFEE700BFF0B40022174611E050F82760F3B226F0C8
:400BC000FF0608E001EB420511F812406D78A5550132013BDBB2002BF4D101371F2FEBD9F0BC70470A4B1B78DBB203F00701094A11701B09013213700822074B1A7080233B
:400C0000064A1370583213704422054B1A707047CF0100496E5800403D510040005B00407658004008B50A46002101F0CAFC08BD08B501F0BBFC08BD38B50024334B1C8048
:400C4000502202331A700B2202331A801823304A137019250232158002321370EF21023211800232137004222A492B48FFF7E0FF02222A4B1A7008224FF040231A70032147
:400C800003F500731970264B1B78DBB225490B70254B1A8041F25122023B1A800CE0234B1B7803F0010343EA440404F003044FF4F07001F055F8013D0DB1032CEFD115B951
:400CC0000320FFF773FF1A4B4FF480721A8007221A70002217490A704820023108701A700222033B1A7004220A331A70124A137843F00F031370013A137843F001031370E1
:400D0000013A137843F08003137038BD804000408640004074060048004100400043004008010049A146004022420040254200400440004006400040A243004038B572B6EB
:400D4000394A137843F00403137000240BE0374863001A19510001440A46098AD068FFF761FF0134E4B2092CF1D900240CE02F48A20011194B000344B3F85020D96C986C6A
:400D8000FFF756FF0134E4B2012CF0D928494FF09040FFF70DFF0A24264B1C70264A137843F0020313701032137843F002031370224D2B7843F040032B70A2F58632513A3F
:400DC000137843F01003137008221D491D48FFF72FFF22461C491D48FFF72AFF08221C491C48FFF725FF22461B491C48FFF720FF22461B491B48FFF71BFF1B4A137843F081
:400E000008031370194C61232370FFF715FF812323700122164B1A70FFF7E4FE0E2229461448FFF705FF38BDE846004014330000800000488358004003500140A043004048
:400E4000400600480251004048060048C051004054060048125100405C060048205100406806004830510040224300400048004004000840B043004008B501F06BFB036828
:400E80000C2B00D1FEE7FEE708B5094B1A681044084BC31A802B02DC054B186005E001F059FB0C2303604FF0FF32104608BD00BFCC80FF1F4082FF1F08B5104E104D16E03A
:400EC00029686B68AC68002204E051F8040B43F8040B0432A242F8D1E868002203E0002143F8041B04328242F9D11035013E002EE6D101F035FBFFF7C7F8FEE70100000036
:400F0000CC33000008B5104A104B1A60104A136843F40073136000230AE0032B03D80D4A52F8231000E00C490C4A42F8231001332F2BF2D90A4B1A780A4B1A70074A0A4B2D
:400F40001A60FFF7FBFE08BD0004FA050CED00E014ED00E000000000790E00000080FF1FBC760040C080FF1F08ED00E0044A137803F07F03C001C0B218431070704700BFEA
:400F800030510040014B1878C009704731510040044A137803F0BF03800100F0400018431070704730510040024B1878C0F38010704700BF31510040044A137803F0DF03BA
:400FC000400100F0200018431070704730510040024B1878C0F34010704700BF31510040014B1B689864704708ED00E04001C0B2014B1870704700BF02E400E00422014BA9
:401000001A60704700E100E00422014B1A60704780E100E010B50446FFF7F6FF2046FFF7DFFF0720FFF7E2FFFFF7E8FF10BD00BF044A137803F0FB03800000F004001843A6
:4010400010707047C0510040044A137803F0F703C00000F00800184310707047C0510040084A137843F0010313701032137843F00103137002F64D32137843F001031370AD
:40108000704700BFA3430040014B1870704700BF034F0040014B1878704700BF034F0040014B1880704700BF044F0040014B1880704700BF064F004008B5154A137803F05E
:4010C000010313700232137803F0FC031370114B1A7802F0CF021A701A7842F030021A701A7802F0F0021A701A7842F00F021A70094A137843F0010313706320FFF7D0FF3B
:401100006320FFF7D3FF0820FFF7BEFF08BD00BF004F00400B4F0040014F004008B5054B1B7823B9FFF7C8FF0122024B1A70FFF797FF08BD6481FF1F024B1B68C3F88400B6
:40114000704700BF08ED00E04001C0B2014B1870704700BF11E400E04FF40032014B1A60704700BF00E100E04FF40032014B1A60704700BF80E100E010B50446FFF7F4FFF6
:401180002046FFF7D9FF0720FFF7DEFFFFF7E4FF10BD00BF01BE704710B5044605E0084B186800F0DDFDA4F50044B4F5004FF6D8034B586800FB04F000F0D2FD10BD00BFAA
:4011C000D080FF1F08B5034B1B7A00FB03F000F0C7FD08BDD080FF1F70B504460E46074B1D681F2802D90020FFF7D4FF04F01F04103455F8240045F8246070BD08ED00E0D8
:4012000038B504460D46072902D90020FFF7C2FF1F2C02D90020FFF7BDFF04F01F0000F1604000F564406D01EDB2057038BD00BF10B50222114B1A7081220E3B1A70082268
:4012400002331A70042211331A70002401331C704FF400420A4B1A6007210F20FFF7D0FF08490F20FFF7B8FF1022074B1A70074B1C70074B1C70074B1C7010BDD649004066
:4012800080E100E0E5120000BD81FF1FCD81FF1FC081FF1FC181FF1F08B500F069FD064A137843F0040313701032137843F00403137000F061FD08BDA543004008B5074BF0
:4012C0001B7823B9FFF7B4FF0122044B1A70FFF7E3FF4FF40042024B1A6008BD6581FF1F00E100E038B5A54B1C78A54B1B7813F0400F00F03A81E4B214F0010F00F01D8103
:401300009F4B1B78453B052B00F21481DFE813F006008200120112010600DF0004F0DF0504F00A04082C42D1954B1B78DBB2452B35D1944B1B7813F0FF0F10D0924B1B6842
:401340001B78DBB2914A137004228C4B1A7001228F4B1A7046228A4B1A702C46EDE08D4B1B7813F0020F0DD08B4A137843F00A0313706022824B1A704FF40042874B1A60B2
:401380002C46DAE0864A137843F0100313701022844B1A700422023B1A702C46CDE00022764B1A704A22764B1A702C46C5E00A2C2BD1794A137843F0A0031370754B1B78DF
:4013C00013F0020F14D06E4B1B7813F0080F01D0092300E00A23704A11780B4313706022674B1A704FF400426C4B1A602C46A4E06B4A137843F0100313701022694B1A708E
:401400000422023B1A702C4697E00020FFF7C2FE2C4692E014F0020F36D15D4B1A78D2B2584B1B78DBB29A4210D2594A1378DBB255490968CB5CDBB254490B7004214F4B6C
:40144000197013780133DBB2137076E0514B1B7813F0020F0CD0504A137843F00A0313706022474B1A704FF400424C4B1A6064E04B4A137843F0100313701022494B1A7006
:401480000422023B1A7058E0424B1B7813F0020F0CD0414A137843F09A0313706022384B1A704FF400423D4B1A6046E03C4A137843F01003137010223A4B1A700422023BD4
:4014C0001A70354A137843F09003137035E0364A1378DBB2354908682C490978C9B2C15413780133DBB213701278D2B2304B1B78DBB29A4203D21022204B1A701DE0254B31
:401500001B7813F0020F0CD0234A137843F00903137060221A4B1A704FF400421F4B1A600BE01F4A137843F0100313700022134B1A7002E00020FFF72DFE14F0200F1CD0A0
:401540000F4B1B7813F0080F01D0012300E00223114A11780B431370114A137803F0EF0313701022064B1A7038BD054B1B7813F0100F02D11022024B1A7038BDD74900402F
:40158000BD81FF1FC281FF1FC481FF1FD8490040C181FF1FCC81FF1FCD81FF1F80E100E0D6490040D9490040C081FF1FC881FF1FCE81FF1F1A4B1B78DBB2102B29D1194B20
:4015C0001B7813F0080F26D14FF40042164B1A604000C0B229B140F001004922104B1A7002E045220E4B1A70104B1870012201331A700F4B1B7813F0010FFAD00C4B1B7836
:4016000003F00A030A2B08D11022054B1A700320704702207047012070470020704700BFBD81FF1FD949004080E100E0D8490040D7490040164B1B7813F0040F23D0400072
:40164000C0B229B140F001004922124B1A7002E04522104B1A70104B1870122201331A700422023B1A700D4B1B7813F0010FFAD00A4B1B7803F00A030A2B06D11022054B6D
:401680001A7003207047022070470020704700BFD9490040BD81FF1FD8490040D74900400A4B1B7813F0040F0ED01023074A13700421023A1170064A1370064B1B7813F059
:4016C000210FFAD00020704702207047D9490040BD81FF1FD7490040114B1B7813F0040F1BD0104B18700422013B1A7046220E4B1A700E4B1B7813F0010FFAD00B4B1B7866
:4017000013F0020F04D16022074B1A70002070476022054B1A70032070470220704700BFD9490040D8490040BD81FF1FD7490040114B1B7813F0040F1BD0104B1B78DBB2D3
:40174000492B05D100220E4B1A704A220B4B1A700B4B1B7813F0010FFAD00A4B1B78DBB218B11021064A117004E06021034A117000E0002318467047D9490040BD81FF1FBF
:40178000D7490040D84900407222084B1A702022A3F201131A700622603B1A70472210331A7000224F331A70704700BF8A65004010B500F0DDFA04460A4A137843F0200321
:4017C0001370A2F20112137843F010031370013A137843F01003137000F032F8204600F0CBFA10BD9A65004008B5054B1B7823B9FFF7CAFF0122024B1A70FFF7D9FF08BDD3
:401800006681FF1F034B1B7813F0040FFAD1024B18707047686400404864004038B5074B1B782BB938BDFFF7EDFF0134A4B201E005460024285D0028F5D138BD6681FF1F88
:40184000054A137843F0040313701032137843F004031370704700BFA2430040044A137803F0EF03000100F01000184310707047205100400222014B1A60704700E100E048
:401880000122014B1A60704700E100E008B500F06FFA0C4A137843F020031370013A137843F0100313700232137843F01003137000F062FA00F046FAFFF7DCFFFFF7E0FFBE
:4018C00008BD00BF976500400222014B1A60704780E100E00122014B1A60704780E100E010B5FFF7F1FF064B1C78064A137803F009031C4300231370FFF7BCFF204610BD12
:4019000066650040D081FF1F10B5FFF7E3FF064B1B78064A147804F040041C4300231370FFF7AEFF204610BD686500400782FF1F10B504462B4B1A7802F0FF0312B1013BFF
:40194000DBB200E02D23284A1278D2B29342F1D0FFF7BAFF254B1978254A137803F009030B4313701F4B1A78D2B21F4B1B78DBB29A4207D11E4B1B7813F0040F02D01D4B10
:401980001C702CE0184A13780133DBB213701378DBB22D2B02D90022134B1A70124B1A78D2B2104B1B78DBB29A420ED10D4A13780133DBB213701378DBB22D2B02D90022CD
:4019C000084B1A7001220C4B1A70074B1B78DBB20A4AD4540A4A137843F004031370FFF749FF10BD0882FF1F0682FF1F66650040D081FF1F486500400282FF1FD481FF1FA7
:401A00008665004010B5FFF765FF134B1A78D2B2124B1B78DBB29A4214D0114B1B7813F0FF0F0CD10C4A13780133DBB213701378DBB22D2B06D90022074B1A7002E0002258
:401A4000074B1A70044B1B78DBB2064AD45CE4B2FFF716FF204610BD0582FF1F0382FF1F0482FF1F0C82FF1F08B501E0094B1B78094B1B7813F0200FF8D1FFF72BFF002385
:401A8000064A1370064A1370064A1370FFF7F8FE08BD00BF58650040686500400482FF1F0582FF1F0382FF1F08B500F061F90E4B1A7842F001021A701A7802F0FE021A7088
:401AC00000F05AF9FFF700FF0023084A1370084A1370084A1370084A137803F0FB031370FFF7C8FE08BD00BF986500400282FF1F0882FF1F0682FF1F8665004070B50646B2
:401B00000C46002506E0705DFFF712FF0135EDB2013CE4B2002CF6D170BD00BF08B501E00A4B1B780A4B1B7813F0200FF8D100F01FF9084B1A7842F001021A701A7802F054
:401B4000FE021A7000F018F908BD00BF58650040686500409865004010B50F22174B1A70174C0223236007210120FFF749FB15490120FFF731FB0123236007210020FFF719
:401B80003FFB11490020FFF727FBFFF7C7FF00240E4B1C700E4B1C700E4B1C700E4B1C700E4B1C700E4B1C70FFF79AFEFFF7ACFE0C4B1C70202202331A7010BD8765004010
:401BC00080E100E0051C0000A51C00000482FF1F0582FF1F0382FF1F0282FF1F0882FF1F0682FF1F8665004008B5054B1B7823B9FFF7B2FF0122024B1A70FFF747FE08BD9E
:401C00006881FF1F28E01F4B19781F4A137803F009030B431370137813F0040F24D01B4B1B7813F0FF0F0CD1194A13780133DBB213701378DBB22D2B06D90022144B1A70CE
:401C400002E00022114B1A70114B1B78DBB2114AD35CDBB2104A13700D4B1A78D2B20F4B1B78DBB29A42CED1094B1A78D2B20B4B1B78DBB29A4204D1094A137803F0FB0347
:401C80001370704766650040D081FF1F0282FF1F0882FF1FD481FF1F486500400682FF1F86650040204B1A7820490B7803F0400313430B7032E01E4B1A78D2B21D490B788B
:401CC0000133DBB20B700B78DBB22D2B02D90021184B1970174B1978C9B2174B1B78DBB299420ED114490B780133DBB20B700B78DBB22D2B02D900210F4B197001210F4BCF
:401D000019700C4B1B78DBB20D49CA54064B1A7806490B7803F0400313430B70034B1B7813F0200FC7D17047686500400782FF1F586500400382FF1F0582FF1F0482FF1F74
:401D40000C82FF1F054A137843F0020313701032137843F002031370704700BFA24300400230800803D000BF01380046FCD17047EFF3108072B6704780F31088704700BFDE
:401D800081F0004102E000BF83F0004330B54FEA41044FEA430594EA050F08BF90EA020F1FBF54EA000C55EA020C7FEA645C7FEA655C00F0E2804FEA5454D4EB5555B8BF77
:401DC0006D420CDD2C4480EA020281EA030382EA000083EA010180EA020281EA0303362D88BF30BD11F0004F4FEA01314FF4801C4CEA113102D0404261EB410113F0004F65
:401E00004FEA03334CEA133302D0524263EB430394EA050F00F0A780A4F10104D5F1200E0DDB02FA0EFC22FA05F2801841F1000103FA0EF2801843FA05F359410EE0A5F1D2
:401E400020050EF1200E012A03FA0EFC28BF4CF0020C43FA05F3C01851EBE37101F0004507D54FF0000EDCF1000C7EEB00006EEB0101B1F5801F1BD3B1F5001F0CD34908EC
:401E80005FEA30004FEA3C0C04F101044FEA445212F5800F80F09A80BCF1004F08BF5FEA500C50F1000041EB045141EA050130BD5FEA4C0C404141EB010111F4801FA4F16E
:401EC0000104E9D191F0000F04BF01460020B1FA81F308BF2033A3F10B03B3F120020CDA0C3208DD02F1140CC2F10C0201FA0CF021FA02F10CE002F11402D8BFC2F1200C7B
:401F000001FA02F120FA0CFCDCBF41EA0C019040E41AA2BF01EB0451294330BD6FEA04041F3C1CDA0C340EDC04F11404C4F1200220FA04F001FA02F340EA030021FA04F3F8
:401F400045EA030130BDC4F10C04C4F1200220FA02F001FA04F340EA0300294630BD21FA04F0294630BD94F0000F83F4801306BF81F480110134013D4EE77FEA645C18BFA3
:401F80007FEA655C29D094EA050F08BF90EA020F05D054EA000C04BF1946104630BD91EA030F1EBF0021002030BD5FEA545C05D14000494128BF41F0004130BD14F5800492
:401FC0003CBF01F5801130BD01F0004545F0FE4141F470014FF0000030BD7FEA645C1ABF194610467FEA655C1CBF0B46024650EA013406BF52EA033591EA030F41F4002116
:4020000030BD00BF90F0000F04BF0021704730B54FF4806404F132044FF000054FF0000150E700BF90F0000F04BF0021704730B54FF4806404F1320410F0004548BF4042EA
:402040004FF000013EE700BF42004FEAE2014FEA31014FEA02701FBF12F07F4393F07F4F81F06051704792F0000F14BF93F07F4F704730B54FF4607401F0004521F000410C
:4020800020E700BF50EA010208BF704730B54FF000050AE050EA010208BF704730B511F0004502D5404261EB41014FF4806404F132045FEA915C3FF4DCAE4FF003025FEAED
:4020C000DC0C18BF03325FEADC0C18BF033202EBDC02C2F1200300FA03FC20FA02F001FA03FE40EA0E0021FA02F11444C1E600BF70B54FF0FF0C4CF4E06C1CEA11541DBFC7
:402100001CEA135594EA0C0F95EA0C0F00F0DEF82C4481EA030621EA4C5123EA4C5350EA013518BF52EA033541F4801143F4801338D0A0FB02CE4FF00005E1FB02E506F045
:402140000042E0FB03E54FF00006E1FB03569CF0000F18BF4EF0010EA4F1FF04B6F5007F64F5407404D25FEA4E0E6D4146EB060642EAC62141EA55514FEAC52040EA5E5012
:402180004FEACE2EB4F1FD0C88BFBCF5E06F1ED8BEF1004F08BF5FEA500E50F1000041EB045170BD06F0004646EA010140EA020081EA0301B4EB5C04C2BFD4EB0C0541EA20
:4021C000045170BD41F480114FF0000E013C00F3AB8014F1360FDEBF002001F0004170BDC4F10004203C35DA0C341BDC04F11404C4F1200500FA05F320FA04F001FA05F255
:4022000040EA020001F0004221F0004110EBD37021FA04F642EB06015EEA430E08BF20EAD37070BDC4F10C04C4F1200500FA04F320FA05F001FA04F240EA020001F000419E
:4022400010EBD37041F100015EEA430E08BF20EAD37070BDC4F1200500FA05F24EEA020E20FA04F301FA05F243EA020321FA04F001F0004121FA04F220EA020000EBD3703F
:402280005EEA430E08BF20EAD37070BD94F0000F0FD101F00046400041EB010111F4801F08BF013CF7D041EA060195F0000F18BF704703F00046520043EB030313F4801F04
:4022C00008BF013DF7D043EA0603704794EA0C0F0CEA135518BF95EA0C0F0CD050EA410618BF52EA4306D1D181EA030101F000414FF0000070BD50EA410606BF104619465A
:4023000052EA430619D094EA0C0F02D150EA013613D195EA0C0F05D152EA03361CBF104619460AD181EA030101F0004141F0FE4141F470014FF0000070BD41F0FE4141F456
:40234000780170BD70B54FF0FF0C4CF4E06C1CEA11541DBF1CEA135594EA0C0F95EA0C0F00F0A7F8A4EB050481EA030E52EA03354FEA013100F088804FEA03334FF08055D7
:4023800045EA131343EA12634FEA022245EA111545EA10654FEA00260EF000419D4208BF964244F1FD0404F5407402D25B084FEA3202B61A65EB03055B084FEA32024FF4F2
:4023C00080104FF4002CB6EB020E75EB030E22BFB61A754640EA0C005B084FEA3202B6EB020E75EB030E22BFB61A754640EA5C005B084FEA3202B6EB020E75EB030E22BF63
:40240000B61A754640EA9C005B084FEA3202B6EB020E75EB030E22BFB61A754640EADC0055EA060E18D04FEA051545EA16754FEA06164FEAC30343EA52734FEAC2025FEA13
:402440001C1CC0D111F4801F0BD141EA00014FF000004FF0004CB6E711F4801F04BF01430020B4F1FD0C88BFBCF5E06F3FF6AFAEB5EB030C04BFB6EB020C5FEA500C50F127
:40248000000041EB045170BD0EF0004E4EEA113114EB5C04C2BFD4EB0C0541EA045170BD41F480114FF0000E013C90E645EA060E8DE60CEA135594EA0C0F08BF95EA0C0F77
:4024C0003FF43BAF94EA0C0F0AD150EA01347FF434AF95EA0C0F7FF425AF104619462CE795EA0C0F06D152EA03353FF4FDAE1046194622E750EA410618BF52EA43067FF40C
:40250000C5AE50EA41047FF40DAF52EA43057FF4EBAE12E74A0011D212F5001211D20DD56FF47873B3EB62520ED44FEAC12343F0004343EA505323FA02F070474FF00000FC
:40254000704750EA013002D14FF0FF3070474FF000007047014B1868704700BF4081FF1F0E4B70B51E460E4C0025E41AA410A54204D056F8253098470135F8E700F014FFC2
:40258000084B094C1E46E41AA4100025A54204D056F8253098470135F8E770BDB4330000B4330000B4330000BC33000010B5431E0A44914204D011F8014B03F8014FF8E77B
:4025C00010BD03460244934202D003F8011BFAE7704700000EB400B54FF402719CB0ADF814106FF00041049107914FF6FF711DAB02900690084853F8042BADF81610006878
:4026000002A9019300F064F8029B00221A701CB05DF804EB03B070474081FF1F2DE9F0478E6882469E420C46914698463ED88A8912F4906F3AD02568096902236F1A6569C8
:4026400005EB450595FBF3F57B1C43449D4238BF1D4653050FD5294600F040FB064698B13A462169FFF7A2FFA38923F4906343F08003A38113E02A4600F08EFB064670B9E4
:402680002169504600F0DEFA0C23CAF80030A3894FF0FF3043F04003A381BDE8F08726613E44266046466561ED1BA560464528BF464649463246206800F0A8FAA368002089
:4026C0009B1BA36023681E442660BDE8F08700002DE9F04F9DB003938B8980461C060D4616460DD50B695BB9402100F0F7FA2860286118B90C23C8F80030CDE040236B6126
:402700000023099320238DF82930DFF89CB130238DF82A3037463C4614F8013B1BB9B7EB060910D003E0252BF9D02746F3E74B46324629464046FFF771FF013000F0A780C8
:40274000099B4B4409933B78002B00F0A08000234FF0FF3204930793059206938DF853301A930126052221784E4800F041FA671C049B38B14B4A3C46801A06FA00F0184344
:402780000490EFE7D90644BF20228DF853201A0744BF2B228DF8532022782A2A03D0079A00210A200BE0039A111D12680391002A10DA524243F00200079204900BE0274657
:4027C0003B780134303B092B03D800FB02320121F5E701B107923B782E2B1ED17B782A2B0AD1039B02371A1D1B680392002BB8BF4FF0FF33059310E0002319460593781C72
:402800000A2407463A780130303A092A03D804FB01210123F5E703B1059103223978224800F0E6F940B14023CBEB000003FA00F0049B013718430490397806221B487E1CB5
:402840008DF8281000F0D4F988B1194B33B9039B073323F007030833039314E003AB00932A46144B04A94046AFF3008007E003AB00932A460F4B04A9404600F093F8B0F1F5
:40288000FF3F824603D0099B5344099342E7AB895B0601D4099801E04FF0FF301DB0BDE8F08F00BF72330000783300007C330000000000001D2600002DE9F04791461F466A
:4028C0000A698B6806469342B8BF1346C9F8003091F843200C46DDF8208012B10133C9F800302368990642BFD9F800300233C9F80030256815F0060510D104F1190A07E026
:402900000123524639463046C04701301AD00135E368D9F800209B1A9D42F1DB94F843302268003318BF012392060FD5E118302081F843005A1C94F845102244023382F84E
:40294000431003E04FF0FF30BDE8F08704F1430239463046C0470130F4D02268D9F80050E36802F00602042A08BF5D1B2269A3680CBF25EAE57500259342C4BF9B1AED180E
:402980004FF000091A344D4509D00123224639463046C0470130D5D009F10109F3E70020BDE8F0872DE9F04317460A7E85B06E2A984606460C460C9B01F1430E00F0AE801F
:4029C00011D8632A22D009D8002A00F0BB80582A40F0CA8081F84520834955E0642A1ED0692A1CD0C0E0732A00F0B08009D86F2A2ED0702A40F0B8800A6842F020020A605C
:402A00003EE0752A24D0782A3AD0ADE01A6801F14205111D1960136884F84230A8E021681A6811F0800F02D0111D196008E011F0400F02F10401196002D0B2F9003000E00F
:402A40001368002B3CDA2D225B4284F8432037E021681A6811F0800F02D0111D196007E011F0400F02F10401196001D0138800E01368227E5C496F2A14BF0A2208221BE033
:402A800078225A4984F845202268186812F0800F00F104051D6003D1550601D5038800E00368D00744BF42F0200222601BB9226822F0200222601022002084F8430001E055
:402AC00049490A226568002DA56008DB206820F0040020602BB9002D7DD175460CE0002B79D07546B3FBF2F002FB1033CB5C05F8013D03460028F5D1082A0BD12368DA0702
:402B000008D5236962689A42DEBF302305F8013C05F1FF35C5EB0E0323612EE008681A6810F0800F496903D0101D1860136808E010F0400F02F104001860136801D019802E
:402B400000E0196000232361754616E01A68111D1960156800216268284600F049F808B1401B6060636804E004F1420584F8422001232361002384F84330CDF800803B4657
:402B800003AA21463046FFF797FE013002D14FF0FF3026E023692A4639463046C0470130F5D023689B0710D5002504F1190907E001234A4639463046C0470130E7D0013597
:402BC000E368039A9B1A9D42F2DBE068039B9842B8BF184605E00B7804F1420584F842308AE705B0BDE8F083833300009433000010B5C9B202449042034605D01C7801306F
:402C00008C42F8D1184610BD002010BD884210B501EB020301D8421E0BE09842FBD28118D21AD34204D013F8014D01F8014DF8E710BD994204D011F8014B02F8014FF8E7B3
:402C400010BD000038B50546002944D051F8043C0C1F002BB8BFE41800F0D4F81E4A1368114613B96360146030E0A3420DD92268A018834201BF18685B6812182260636073
:402C80000C6023E0A24203D813465A68002AF9D118681918A1420BD12168014458188242196013D110685268014419605A600DE002D90C232B6009E021686018824201BF6E
:402CC000106852680918216062605C602846BDE8384000F098B838BD7081FF1F70B5CD1C25F0030508350C2D38BF0C25002D064601DBA94202D90C23336046E000F082F87D
:402D0000234B1C681A462146A1B10B685B1B0ED40B2B03D90B60CC18CD501EE08C420BBF63684B681360636018BF0C4615E00C464968E9E7174C23681BB9304600F052F892
:402D400020602946304600F04DF8431C18D0C41C24F00304A0420DD12560304600F053F804F10B00231D20F00700C31A0ED05A42E25070BD211A304600F034F80130EBD1BA
:402D80000C233360304600F03EF8002070BD00BF7081FF1F6C81FF1FF8B5074615460E4621B91146BDE8F840FFF798BF1AB9FFF749FF2846F8BD00F027F885420ED929462B
:402DC0003846FFF78BFF044650B131462A46FFF7EDFB31463846FFF735FF01E03046F8BD2046F8BD38B5064C0023054608462360FEF74AF8431C02D1236803B12B6038BDD9
:402E00003C82FF1F7047704751F8040C0028BEBF091851F8043CC01804387047000000004465766963652030782530325820697320636F6E6E65637465640D0A00000000F8
:402E400057484F20414D2049205245473A20307825303258205B45787065637465643A20307833335D0D0A004572726F72206F6363757272656420647572696E6720493220
:402E80004320636F6D6D0D0A000000005354415455532052454749535445523A203078253032580D0A0000004572726F72206F6363757272656420647572696E67204932C6
:402EC0004320636F6D6D20746F2072656164207374617475732072656769737465720D0A00000000434F4E54524F4C20524547495354455220313A203078253032580D0AB5
:402F0000000000004572726F72206F6363757272656420647572696E672049324320636F6D6D20746F207265616420636F6E74726F6C20726567697374657220310D0A00F0
:402F40000D0A57726974696E67206E65772076616C7565732E2E0D0A00000000434F4E54524F4C2052454749535445522031207375636365737366756C6C792077726974A7
:402F800074656E2061733A203078253032580D0A000000004572726F72206F6363757272656420647572696E672049324320636F6D6D20746F2073657420636F6E74726FE6
:402FC0006C20726567697374657220310D0A0000434F4E54524F4C2052454749535445522031206166746572206F7665727772697465206F7065726174696F6E3A20307855
:40300000253032580D0A0000434F4E54524F4C20524547495354455220343A203078253032580D0A000000004572726F72206F6363757272656420647572696E67204932E3
:403040004320636F6D6D20746F207265616420636F6E74726F6C207265676973746572340D0A0000434F4E54524F4C20524547495354455220342061667465722062656915
:403080006E6720757064617465643A203078253032580D0A00000000434F4E54524F4C2052454749535445522035204649464F20454E41424C452073756363657373667542
:4030C0006C6C79207772697474656E2061733A203078253032580D0A000000004572726F72206F6363757272656420647572696E672049324320636F6D6D20746F20736597
:403100007420636F6E74726F6C20726567697374657220350D0A0000434F4E54524F4C205245474953544552203520425950415353204D4F444520737563636573736675E3
:403140006C6C79207772697474656E2061733A203078253032580D0A00000000434F4E54524F4C2052454749535445522033204F56455252554E20494E5420454E41424C0E
:4031800045207375636365737366756C6C79207772697474656E2061733A203078253032580D0A00494E543120434F4E4620524547495354455220305220364420737563DE
:4031C0006365737366756C6C79207772697474656E2061733A203078253032580D0A0000494E543120544853205245474953544552207375636365737366756C6C79207750
:4032000072697474656E2061733A203078253032580D0A00494E5431204455524154494F4E205245474953544552207375636365737366756C6C79207772697474656E2053
:4032400061733A203078253032580D0A00000000205472792076616C756573206F6E203078303030323A2025642025640D0A0000446174612077726974653A202564200D74
:403280000A0000004E206379636C653A2025640D0A0A000054696D657374616D703A202564200D0A00000000456E64205772697465206F6E20454550524F4D0D0A00000076
:4032C000456E642052656164206F6E20454550524F4D0D0A000000004461746120726561643A202564200D0A00000000636F756E7465723A2025640D0A0A00004F7665722F
:403300007468726573686F6C64206576656E74200D0A0000035B00402443004040000000C84900401900004F00400C00405100403000F051004010000000014000100014C6
:4033400001400006801A0140800100400140000A004C0140000200500140200060520040B80500480600001A0140C005004880004300232D302B2000686C4C006566674555
:4033800046470030313233343536373839414243444546003031323334353637383961626364656600000000F8B500BFF8BC08BC9E4670474D000000050F0000F8B500BF30
:4033C000F8BC08BC9E46704729000000E0330000C880FF1F80000000F800000000000000000000004082FF1F0000E02EC05D00001800000000366E010000000000000000D8
:4034000000000000000000000000000000000000000000000000000070330000000000000000000000000000000000000000000000000000000000000000000000000000E9
:40344000000000000000000000000000000000000000000000000000E080FF1F000000000000000000000000000000000000000000000000000000000000000000000000CE
:40348000000000000000000000000000000000000000000000000000000000000000000000000000000000000000000000000000000000000000000000000000000000000C
:4034C00000000000000000000000000000000000000000000000000000000000000000000000000000000000000000000000000000000000000000000000000000000000CC
:40350000000000000000000000000000000000000000000000000000000000000000000000000000000000000000000000000000000000000000000000000000000000008B
:40354000000000000000000000000000000000000000000000000000000000000000000000000000000000000000000000000000000000000000000000000000000000004B
:020000040003F7
:0200000480007A
:40000000024F00400252004002640040026500400103014003070140600801403E090140040A0140020B0140010D0140081501404E160140421701405718014040190140BA
:40004000081A0140481B01400340014008410140084201400A430140044401400445014004460140044701400B4801400F4901400B4C0140134D0140055001400251014098
:4000800001300A4B00400120880F8938870F8A72EE028520E601EE08040906100C100E0C1203130318141B031C101F01201C22022502280C2A11301F3103321F4043410253
:4000C000450B47EC483149FF4AFF4BFF4EF04F44500C5401580459045A045B045C125D225F0166C06A406B028540862887138B0C8CC38D318E1C8F0694C3963499319B0E23
:400100009CAA9E149F08A10CA220A333A655A803AA04AB10B00FB110B238B4C0B560B70FB820B920BA0ABB80BE10BF01C002C540C9FFCA07CBFFCC40CD20CEF0CF05D00848
:40014000D418D804D904DA04DB04DC22DD22DF01E040E1A8E240E3200048021004400610084009800A200C800E800F0810A811081440171018401A241E90200821802340D6
:400180002740284029202B082F203080321033103620374138403A503B04420445044640471048A04B044F085408570A59015D205E025F48600462807A017B028340AF011B
:4001C000B401C0A5C2D5C45ECA45CCBCCE0ED0E4D6F1D80C38823E4158045F0118021B01EE02AC85B108B502E008E280E401EA01EC0A013303C4040805940769090E112036
:4002000013D0141D1555160217AA18091A101C031E143001340E350F361037F039203A203B803E4154095604580459045B045C115D105F018004819A840A861088018921BB
:400240008BD88C048D9A900494609502979899989B029C569D989E099F02A007A113A238A364A404A502A9FCAA04AB03AC04AD38AFC0B1E0B30FB47FB713B820BB0AD60284
:40028000D720D804D904DB04DC11DD10DF01016102100504072008880A800C400D080E080F0110291202130119201C081D101E0A1F0120022108220A23112590270128418C
:4002C00029143028324036083701388039413A103B103C083D203F0149804A015D8A5F2061806742687869016AA07040800881048740885089088C408E509D20C02FC2ED8F
:40030000C40FCA0FCCCECEEDD6F0D898E201E60DE8100320096D0D6D11021304156D196D1D021F0D2101230225022708290D2B602D10310F3320351037403B023F544041ED
:4003400041064250440345EF46C047DB483B49FF4AFF4BFF4C224EF04F0850045440560459045A045B045C105D115F0162C0644065016610671168C069016B116C406D01C8
:400380006E406F01810483188404851F891F8A018C029004910993269512960297059A019E02A404A802B11CB202B303B401B520B604B808BA02BE10D804D904DC22DF0167
:4003C000005002100A620B0810041104185419801A8020A021292402260427482C102D022F0A300231083510374539163A103D823F114420458047014C014E044F06550158
:4004000057145D085E086508660267058314860289408B118D108F0C921094049D019F09A302A6A0A720C007C20FC406CAF0CCF3CEB7D0D0D230D8F0E050E281E4B0E8106E
:40044000890293019B01B102B701BF41D904DF0100A2012802010804090A0A820B4010821314180119191A202004210822212501268029A82A013080312832013622382A49
:400480003B403E104005410A480149804B085202591069146A407094731488028C018D01929095149662970899809C049D01A050A120A402A680AC10AD82AE24AF20B020D8
:4004C000B301B401C00FC20DC40FCA0FCCAFCE2FD00FD208D604E008E280E401EA41EC2033883640CC705C026104A640A780AF08D680D840EE403E1063029C029D04A64070
:40050000A780CE20D6408104840296109C029D04A640A780AF01E6C0EE1013027C08C408DE0103209C08AF02C00844809C08A320D0019C80A320B408E802262080088640A6
:4005400087809610A660A780B620C820E280E6501220164070087508822086408908A008AA10C430DC80DE20E010E480EA801020132014407B107F408020A320B480C40EFD
:40058000DE03E8081080128075048310874088C08D048E8097809840A710AB20B320C408DE04E008E203E601EA0100060C0610061A021C06003F03C082800000430000004A
:4005C00000240B0034180B000208800003FF40003F9C00620FE730180000000434100B0020600000107C008130400000010080E3031F38780498C0000000080A00005000EA
:4006000035040200010E00C021FFFFFF62A0F0410C000000000002110404040422220001000000000000400200103010001010120000000000000000000000000000000027
:4006400000606000600000008300508C8F00830000000000000B0B0000000000140001161200000000000000E00000E0E000000008000000250018010000000000000000B0
:40068000000000000000000000000000000000000000000000000000000000000000000000000000000000000000000000000000000000000000000000000000000000003A
:4006C00000000000000000000000000000000000000000000000000000000000000000000000000000000000000000000000000000000000000000000000000000000000FA
:4007000000000000000000000000000000000000000000000000000000000000000000000000000000000000000000000000000000000000000000000000000000000000B9
:400740000000000000000000000000000000000000000000000000000000000000000000000000000000000000000000000000000000000000000000000000000000000079
:0200000490006A
:0400000000004005B7
:0200000490105A
:04000000BC90ACAF55
:0200000490303A
:0200000028587E
:0200000490402A
:4000000000000000000000000000000000000000000000000000000000000000000000000000000000000000000000000000000000000000000000000000000000000000C0
:400040000000000000000000000000000000000000000000000000000000000000000000000000000000000000000000000000000000000000000000000000000000000080
:400080000000000000000000000000000000000000000000000000000000000000000000000000000000000000000000000000000000000000000000000000000000000040
:4000C0000000000000000000000000000000000000000000000000000000000000000000000000000000000000000000000000000000000000000000000000000000000000
:0200000490501A
:0C00000000012E16106900012E2B38C1E3
:00000001FF