:400000000080002011000000551400005514000008B5044B1A6803F53F5302331A6001F039FA00BFFA46004010B5054C237833B9044B13B10448AFF300800123237010BD71
:400040005081FF1F00000000F43E0000084B10B51BB108490848AFF300800848036803B910BD074B002BFBD0BDE81040184700BF000000005481FF1FF43E0000C880FF1F8E
:4000800000000000000000002DE9F04FB1B062B6A44C4FF4B6732380A3480380A3490B80A34A6423137023889BB2A24C238003889BB2A14803800B889BB2A0490B801378EB
:4000C0009F4A138000249F4B1C609F4B1C7002F0FDFB02F0DFFC012001F0A0FD204601F091FD00F05DFC02F0E5FA0A2002F030FE02F0D6F8052002F02BFE0CE0E0B200F067
:40010000C5FC38B12246914923A803F0CFFA23A802F0E0F801347F2CF0DD0DF18B020F21182000F049FC48B99DF88B20884923A803F0BCFA23A802F0CDF802E0854802F039
:40014000C9F80DF18A022721182000F035FC48B99DF88A20804923A803F0A8FA23A802F0B9F802E07D4802F0B5F80DF189022021182000F021FC48B99DF88920784923A89C
:4001800003F094FA23A802F0A5F802E0754802F0A1F8754802F09EF89DF88930572B14D057228DF889202021182000F057FC48B99DF889206D4923A803F078FA23A802F0FC
:4001C00089F802E06A4802F085F80DF189022021182000F0F1FB48B99DF88920654923A803F064FA23A802F075F802E05D4802F071F822AA2321182000F0DEFB48B99DF8E1
:4002000088205D4923A803F051FA23A802F062F802E05A4802F05EF8802230AC04F8382D2321182000F01AFC22462321182000F0C3FB48B99DF88820514923A803F036FACB
:4002400023A802F047F802E04C4802F043F848222421182000F002FC40B94822494923A803F024FA23A802F035F802E0464802F031F800222E21182000F0F0FB40B9002225
:40028000424923A803F012FA23A802F023F802E03D4802F01FF844222221182000F0DEFB40B944223A4923A803F000FA23A802F011F802E0344802F00DF82A22302118206D
:4002C00000F0CCFB40B92A22324923A803F0EEF923A801F0FFFF02E02B4801F0FBFF46223221182000F0BAFB40B946222A4923A803F0DCF923A801F0EDFF02E0224801F004
:40030000E9FF01223321182000F0A8FB002847D10122224923A803F0C9F923A801F0DAFF41E000BF9481FF1FA281FF1F9C81FF1FA681FF1F9281FF1FA081FF1F9081FF1F3D
:400340009E81FF1F9881FF1FA781FF1FF83E0000183F0000403F0000643F0000803F0000BC3F0000DC3F000018400000344000006C400000A8400000E0400000004100007E
:400380003C41000070410000B4410000F0410000344200007C420000B8420000EC420000A54801F097FFA0238DF88030C0238DF88730A24802F0B8FAA14802F0EDFAA148C9
:4003C00002F02CFD4FF00009CB46CDF804900524C8464E464D464F469B4B1B78DBB2012B2FD01BB1022B00F03882F5E7019B23BB1A46964923A803F059F923A801F06AFF9F
:4004000002F058F90A2002F0A3FCE1B2002000F0C5FD00F01FFE002000F0A8FD02468C4923A803F043F923A801F054FF00F03AFE4FF00009CB46012301930022854B1A60CC
:40044000CAE7BBF1000F40F001825A46824923A803F02CF923A801F03DFF02F02BF90A2002F076FC64F07F01C9B2002000F096FD00F0F0FD002000F079FD0246744923A84E
:4004800003F014F923A801F025FF00F0EBFD4FF000094FF0010BCDF80490D7E11FAB02222821182000F0A8FA1EAB02222A21182000F0A2FA1DAB02222C21182000F09CFAEC
:4004C000002840F0C3819DF87C309DF87D2043EA022343F389139B009BB28DF881301A0A8DF882201F443FB29DF878309DF8792043EA022343F389139B009BB28DF883305D
:400500001A0A8DF884201D442DB29DF874309DF8752043EA022343F389139B009BB28DF885301A0A8DF886201E4436B24B4B1B78DBB2012B40F0D68002F004FA01F058FB50
:400540004FF0000A23E008EB4802530053440AF1010230A90A4412F8402C194401F87C2C01330AF1020A30AA524412F8402C30A8034403F87C2C11F87C3C43EA022212B2B6
:40058000374923A803F092F823A801F0A3FEBAF1050FD8DDB8F1060F40F098802D4B1A688DF86E201A68C2F307228DF86F201A68C2F307428DF870201A68120E8DF87120CE
:4005C0001A68284923A803F071F823A801F082FE2E2211A9022000F00FFD00F03BFD0DF18C0EDFF884C0BCE80F00AEE80F009CE803004EF8040BAEF8001023A801F06AFE94
:400600004FF0000A154B83F800A02E2205A9022000F0E0FC0DF18C0EDFF850C0BCE80F00AEE80F009CE803004EF8040B8EF8001023A801F04FFE31E0B4410000050B0000A2
:40064000B90D0000F50D0000A781FF1F28430000484300009881FF1F5C430000A481FF1F7C43000090430000A4430000BC43000030AB534413F8AC3C0AF1010230A90A445B
:4006800012F8AC2C43EA022212B2B54923A803F00DF823A801F01EFE0AF1020ABAF1290FE6DD9DF83E309DF83F2043EA02239DF8402043EA02439DF8412043EA0262A949D4
:4006C00023A802F0F3FF23A801F004FEA64802F02BF9A64801F07EFA0DF172023121182000F06AF908F101085FFA88F8B8F1060F40F2AC8097FBF8F095FBF8FA96FBF8F572
:400700000028B8BF4042BAF1000FB8BFCAF1000A0FFA8AFA002DB8BF6D422DB200B202F0EDFC06460F4688A3D3E9002302F04CFD02460B463046394602F046FDCDE90201F4
:4007400083A3D3E900233046394602F03DFD02460B46DDE9020102F083FB7FA3D3E9002302F080FB02F042FF80B2814B1880504602F0C4FC06460F4673A3D3E9002302F07A
:4007800023FD02460B463046394602F01DFDCDE902016FA3D3E900233046394602F014FD02460B46DDE9020102F05AFB6AA3D3E9002302F057FB02F019FF80B26D4B188078
:4007C000284602F09BFC06460F465FA3D3E9002302F0FAFC02460B463046394602F0F4FCCDE902015AA3D3E900233046394602F0EBFC02460B46DDE9020102F031FB56A34C
:40080000D3E9002302F02EFB02F0F0FE80B25A4B18800DF173022F21182000F0CDF89DF8733003F01F038DF87330012B08D90122524B1A704FF0000846464546474605E023
:4008400000274E4B1F70B8463E463D464B4B1B7813F0FF0F7FF422AEBEE5B9F1000F17D14A46474923A802F021FF23A801F032FD00F03EFC0122434923A802F017FF23A804
:4008800001F028FD4FF001094FF0000BCDF804B000F066FEC043C0B200F056FE00223A4B1A6001F067F9002800DA0020B0F5803F01DB4FF6FF7001F04BF90446024633493E
:4008C00023A802F0F3FE23A801F004FD304B83FB0423E417C4EB2324A4B20134A4B2E3B2062B00D90624C4F1080303EB830303EB83039A0092B21F4B1A80E2B2120142F06F
:400900000702D2B28DF88920224923A802F0CEFE23A801F0DFFC9DF889202021182000F09DF848B99DF889201B4923A802F0BEFE23A801F0CFFC02E0184801F0CBFC4FF455
:400940007A7002F005FA47E52D431CEBE2361A3F9A9999999999D93F0000000000207940D4430000E4430000050B0000A50A0000A281FF1F9C81FF1F9481FF1FA581FF1F10
:40098000F8430000184400009881FF1F4044000091739F5D58440000A8400000DC3F000008B501F08DF9002008BD00BF08B501F09BF9002008BD00BFF8B506460D461746DF
:4009C000002101F053FB044678B9284601F0E0FB044650B90121304601F088FB044620B901F002FC387001F0B7FB01F0B5FB201C18BF0120F8BD00BF2DE9F04180460C467E
:400A000016461F46002101F031FB0546F0B944F0800001F0BDFB0546C0B90121404601F065FB054650B111E0C4EB0608012001F0DBFB07F80800013CE4B200E03446012C66
:400A4000F2D8013E002001F0CFFBB85501F084FB281C18BF0120BDE8F08100BF70B50D461646002101F002FB044640B9284601F08FFB044618B9304601F08AFB044601F0B3
:400A80006BFB201C18BF012070BD00BF10B5002101F0ECFA044601F05FFB0CB9012010BD002010BD38B5114C224631211820FFF783FF0F4B1870237813F0400F12D00D4DFF
:400AC0000D4C0FCC28606960AA60EB6020682861A288A379AA82AB75284601F0FBFB0122064B1A700122064B1A7038BDDA81FF1FDC81FF1FA881FF1F70440000A481FF1F01
:400B0000A581FF1F38B501F09DFE9D4B1B78DBB2012B47D01BB1022B00F0F08038BD994B1A785B78002A08BF002B00F0278195494B8801339BB24B80B3F5FA6F40F21E8183
:400B40000021904B5980022A0ED18F4D8F4C0FCC28606960AA60EB6020682861284601F0B9FB0122864B1A70864B5B78A3B10022844B1A71844D864C0FCC28606960AA606E
:400B8000EB600FCC28616961AA61EB61284601F0A1FB02227A4B1A707A4B0022DA801A705A7038BD7B4A13889BB2013B9BB2138079490B889BB2013B9BB20B8077490B889B
:400BC0009BB2013B9BB20B8013889BB283B9744B1B889BB2B3F5B67F05D200F0FBFCC043C0B200F0EBFC6E4B1B889BB2694A13806B4B1B889BB2B3F5B67F02D3012000F082
:400C0000DDFC654B1B889BB283B9664B1B889BB2B3F5B67F05D200F0C9FCC043C0B200F0B9FC604B1B889BB25B4A13805D4B1B889BB2B3F5B67F02D3012000F0ABFC574B64
:400C40001B889BB283B9584B1B889BB2B3F5B67F05D200F099FCC043C0B200F089FC524B1B889BB24D4A13804F4B1B889BB2B3F5B67F02D3012000F07BFC4C4A13680133D2
:400C80001360404B1A785978002908BF002A75D018465B8801339BB24380B3F5FA6F6DD9022A0ED1384C424B07CB20606160A2601B88A381204601F00DFB0022304B1A701A
:400CC00015E0A1B101222F4B1A712F4D304C0FCC28606960AA60EB600FCC28616961AA61EB61284601F0F6FA0222254B1A70254B0022DA805A801A705A7038BD254A138801
:400D00009BB2013B9BB213801E4B5A781B78002A08BF002B23D01B494B8801339BB24B80B3F5FA6F1BD9A2B1174D224C0FCC28606960AA60EB6003CC286169612288A37858
:400D40002A83AB76284601F0C5FA0E4B1A790C4B1A700C4B0022DA805A801A705A700D4B1B889BB253B900F035FCC043C0B200F025FC0B4B1B889BB2064A138038BD00BFE1
:400D8000A781FF1F6C81FF1FA881FF1F884400009C4400009081FF1FA081FF1F9281FF1F9C81FF1FA281FF1F9481FF1F9881FF1FBC440000CC44000038B501F015FE0A4A15
:400DC000537801335370094D094C0FCC28606960AA60EB6020682861A288A379AA82AB75284601F077FA38BD6C81FF1FA881FF1FE844000070B50D4E33780133337001F02C
:400E0000F3FD0B4C0B4D0FCD20606160A260E3602B782374204601F05DFA32780649204602F044FC204601F055FA70BD6C81FF1FA881FF1F004500001445000010B5044666
:400E4000002001F059FA204601F0D8FA01F0AEFA10F0080FFAD001F03BFB0446012001F04BFA204610BD00BF10B50446002001F043FA204601F0C2FA002001F0BFFA01F086
:400E800095FA10F0010FFAD001F022FB01F020FB0446012001F030FA204610BD2DE9F04383B006460C4617469846002001F024FA64B2002511E02146082CA8BF0821C9B2A0
:400EC00006EBC50001F080FB01F070FA10F0010FFAD0083C64B201356DB2002CEBDC01F083FB01F027FB0026009601964FFA88F820E0C146B8F1080FA8BF4FF008095FFA84
:400F000089F1684601F060FB01F050FA10F0010FFAD0002406E004EBC60501F0D9FA78550134E4B24C45F6DBA8F108084FFA88F8013676B2B8F1000FDBDC012001F0DCF97F
:400F400001F052FB01F0F6FA01F014FB03B0BDE8F08300BF08B50520FFF786FF08BD00BF08B50620FFF76AFF08BD00BF00B583B003218DF80410030A8DF805308DF806002A
:400F800002AA002302F8053D012301A8FFF786FF9DF8030003B05DF804FB00BF30B583B004460D46FFF7DCFF02238DF80430230A8DF805308DF806408DF80750002302AABF
:400FC00002F8053D04210DEB0100FFF767FF03B030BD00BF10B582B003248DF80440030A8DF805308DF8060013460A46214601A8FFF754FF02B010BD2DE9F04182B000AFFA
:40100000054688461446FFF7ABFF012001F0B6FEE61C04F10A0323F00703ADEB030D02238DF800302B0A8DF801308DF80250224641460DF1030002F025FB002307F108024B
:4010400002F8013DF1B26846FFF728FF0837BD46BDE8F08108B5FFF77DFF10F0010FFAD108BD00BF08B5FFF79BFC86220A4B1A702E211820FFF7F2FC084B187000F098FC49
:40108000012000F061FA064800F0A4FD01F012FB0A2001F05DFE08BDDD81FF1FDC81FF1FA50A000010B5FFF77BFC00240E4B1C7022462E211820FFF7D1FC0C4B187000F04A
:4010C00097FDFFF773FC01F059F900F071FC012000F04EFA012000F05DFA012000F06EFA204600F031FA10BDDD81FF1FDC81FF1F08B5012000F03CFA012000F04BFA01205D
:4011000000F05CFAFFF74CFC0022084B1A702E211820FFF7A3FC064B187000F069FD01F02DF900F031FC00F0B5FC08BDDD81FF1FDC81FF1FFEE700BFF0B40022174611E098
:4011400050F82760F3B226F0FF0608E001EB420511F812406D78A5550132013BDBB2002BF4D10137202FEBD9F0BC70470A4B1B78DBB203F00701094A11701B0901321370D3
:401180000822074B1A708023064A1370583213704422054B1A707047CF0100496E5800403D510040005B00407658004008B50A46002102F072FA08BD08B502F063FA08BDF7
:4011C00038B50024394B1C80502202331A700B2202331A801823364A137019250232158002321370EF2102321180023213704FF6FF71023211800232137047F22F522D4BA6
:401200001A8002331D7004222B492C48FFF7D4FF02222B4B1A7008224FF040231A70032103F500731970274B1B78DBB226490B70264B1A8041F25122023B1A800CE0244B8A
:401240001B7803F0010343EA440404F003044FF4F07001F0F1FD013D0DB1032CEFD115B90320FFF767FF1B4B4FF480721A8007221A70002218490A704820023108701A7038
:401280000222033B1A7004220A331A70134A137843F03F031370013A137843F001031370013A137843F08003137038BD804000408640004094400040E00600480041004038
:4012C0000043004008010049A146004022420040254200400440004006400040A2430040012807D8044B53F820201844017A13780B431370704700BF24450000012808D87B
:40130000044B53F820201844017A137823EA0103137070472445000038B572B6394A137843F00403137000240BE0374863001A19510001440A46098AD068FFF737FF0134A7
:40134000E4B2092CF1D900240CE02F48A20011194B000344B3F85020D96C986CFFF72CFF0134E4B2012CF0D928494FF09040FFF7E3FE0A24264B1C70264A137843F00203F8
:4013800013701032137843F002031370224D2B7843F040032B70A2F58632513A137843F01003137008221D491D48FFF705FF22461C491D48FFF700FF08221C491C48FFF7D2
:4013C000FBFE22461B491C48FFF7F6FE22461B491B48FFF7F1FE1B4A137843F008031370194C61232370FFF7EBFE812323700122164B1A70FFF7BAFE0E2229461448FFF7D6
:40140000DBFE38BDE846004024450000840000488358004003500140A0430040AC06004802510040B4060048C0510040C006004812510040C806004820510040D4060048EF
:4014400030510040224300400048004004000840B043004008B502F0E9F803680C2B00D1FEE7FEE708B5094B1A681044084BC31A802B02DC054B186005E002F0D7F80C23F5
:4014800003604FF0FF32104608BD00BFCC80FF1F7082FF1F08B5104E104D16E029686B68AC68002204E051F8040B43F8040B0432A242F8D1E868002203E0002143F8041BC4
:4014C00004328242F9D11035013E002EE6D102F0B3F8FEF7D9FDFEE701000000DC45000008B5104A104B1A60104A136843F40073136000230AE0032B03D80D4A52F8231088
:4015000000E00C490C4A42F8231001332F2BF2D90A4B1A780A4B1A70074A0A4B1A60FFF7FBFE08BD0004FA050CED00E014ED00E000000000551400000080FF1FBC7600408A
:40154000C080FF1F08ED00E0044A137803F0FD03400000F0020018431070704720510040024B1878C0F34000704700BF21510040044A137803F07F03C001C0B218431070A3
:40158000704700BF30510040014B1878C009704731510040044A137803F0BF03800100F0400018431070704730510040024B1878C0F38010704700BF31510040044A137813
:4015C00003F0DF03400100F0200018431070704730510040024B1878C0F34010704700BF3151004010B59DF80840012C51D1013809282ED8DFE800F0052D2D052D2D0F195C
:401600002D230F2B03D92548007840B222E02448007840B21EE00F2B03D92248007840B218E02148007840B214E00F2B03D91F48007840B20EE01E48007840B20AE00F2B25
:4016400003D91C48007840B204E01B48007840B200E0002001EB401101FB02F1C90B8AB20D2B0BD8C3F10E0289B211418AB2611E124800EB810101338B7005E0631E0F49F8
:4016800001EB83030F219970013C0C4B23F8242010BD002001F05AFB10BD00BF180100491C010049190100491D0100491A0100491E0100491B0100491F0100497481FF1F8E
:4016C000F8B5074601F0C0FB06460D4D2B7843F003032B700B4C237843F0030323700A4B1F70032001F04AFB2B7803F0FC032B70237803F0FC032370304601F0A9FBF8BD1C
:40170000F8460040F9460040925800400022324B1A7101285FD170B53822304B1A70042202331A70062201331A70002401331C7001331C703F2201331A7002331C700133F8
:401740001C7001331C7001250A331D70502203F527631A700A2201331A702C2201331A7001331C70442203331A70482201331A7001331D7002331D70112201331A701922FC
:4017800001331A70972201331A705220FFF798FF5822134B1A7001331C70052605331E70022201331A7001331C7001331C70204601F08EF943F233320A4B1A602946304654
:4017C00001F0AAF92946252001F02AFA06491D2001F0DEFA70BD70477481FF1F004E004094580040E081FF1F9D1B0000F0B583B0284D01272F70284E00247471102001F09B
:4018000079F9102001F0FAF907211D2001F0D4FA0422224B1A7001331C7007331C70204A137843F0180313701E4B1C7003F2F5231C7001331C700A22A3F209331A7001338C
:401840001C7002331C705B2205331A705E2201331A7004331C701422A3F68C231A70009710234FF4004248F6F0510220FFF7BAFE2B78013B06EB83039A780B4B1A702B784A
:40188000013B36F82320094B1A802878FFF73EFF03B0F0BDD080FF1F7481FF1F96580040075B0040935800400E4E00400C4E004070B501F0C9FA06462A4B1B782A4B1A7874
:4018C00042F001021A701A7842F010021A7010331A7842F001021A701A7842F010021A70224D2B7843F002032B70214C237843F0020323701F4A137843F00303137003204A
:4019000001F03CFA2B7803F0FD032B70237803F0FD032370184A137843F0060313707A22164B1A70164A137843F0010313701032137843F0010313700F3A137843F00103C4
:4019400013701032137843F0010313704FF000530C4A1360A2F5C0721360304601F078FA70BD00BFD080FF1FAA430040F8460040F946004091580040775800408258004017
:40198000A143004080E200E008B5084B9B794BB9064BDB7913F0FF0F01D1FFF727FF0122024B9A71FFF784FF08BD00BF7481FF1F70B501F049FA0646314A137803F0FE03CB
:4019C00013700132137843F0040313702D4D2B7843F002032B702C4C237843F00203237002F52962137803F0FC0313700132137803F0F7031370032001F0C0F92B7803F008
:401A0000FD032B70237803F0FD0323701F4B1A7802F0EF021A701A7802F0FE021A7010331A7802F0FE021A701A7802F0EF021A70174A137803F0F9031370A2F5A652163AE6
:401A4000137803F0FE0313701032137803F0FE03137002F5A6521132137803F0F7031370A2F5A752137803F0FE0313701032137803F0FE031370304601F0EAF970BD00BFE7
:401A8000004E0040F8460040F9460040AA43004077580040024A137843F0010313707047004E0040024A137803F0FE0313707047004E0040094B1B7913F0FF0F03D0074BD8
:401AC0005B79DBB203E0064B1B7803F00103012B01D00028EED01846704700BF7481FF1F014E0040154B1B7803F00303012B07D8134B1888023B1B889BB243EA004013E0EC
:401B0000022B0AD10E4B1888023B1B7843EA00430C4A107843EA002006E00B4B188883B2074A108843EA0040084B1B7913F0FF0F02D00022054B5A71704700BF144E0040B3
:401B4000124E0040114E0040104E00407481FF1F064B9B68C01A4FF47A7303FB00F0044B1B6890FBF3F000B2704700BF7481FF1FE081FF1F10B5084A137843F004031370D0
:401B8000FFF788FF0020FFF795FFFFF7ABFF0446FFF788FF204610BD014E0040704700BF014B1B68D864704708ED00E04001C0B2014B1870704700BF03E400E00822014B8E
:401BC0001A60704700E100E00822014B1A60704780E100E010B50446FFF7F6FF2046FFF7DFFF0720FFF7E2FFFFF7E8FF10BD00BF08B5FFF7E9FF0248FFF7D2FF08BD00BF40
:401C000055140000044A137803F0FB03800000F00400184310707047C0510040044A137803F0F703C00000F00800184310707047C051004010B50222114B1A7081220E3BFE
:401C40001A70082202331A70042211331A70002401331C704FF400420A4B1A6007210F2001F0AAF808490F2001F092F81022074B1A70074B1C70074B1C70074B1C7010BD6B
:401C8000D649004080E100E09D1D0000E481FF1FF581FF1FE881FF1FE981FF1F08B501F0D3F8064A137843F0040313701032137843F00403137001F0CBF808BDA543004068
:401CC00008B5074B1B7823B9FFF7B4FF0122044B1A70FFF7E3FF4FF40042024B1A6008BD8081FF1F00E100E02DE9F8434FF40049214BC3F80090DFF8A08098F800301F4C42
:401D0000E3701F4F3B7823711E4E3378637130783B7843EA002001301B4D2B7803F0FE032B7080B201F088F801F08EF8174A137803F0FB0313701032137803F0FB03137082
:401D400001F086F82B7843F002032B70E37888F80030E37888F8003023793B70637933702B7803F0EF032B70094BC3F800901022084B1A70BDE8F88380E100E0D480FF1FFE
:401D8000DB490040DC490040D6490040A543004080E200E0E481FF1FCA49004038B5A54B1C78A54B1B7813F0400F00F03A81E4B214F0010F00F01D819F4B1B78453B052B65
:401DC00000F21481DFE813F006008200120112010600DF0004F0DF0504F00A04082C42D1954B1B78DBB2452B35D1944B1B7813F0FF0F10D0924B1B681B78DBB2914A137027
:401E000004228C4B1A7001228F4B1A7046228A4B1A702C46EDE08D4B1B7813F0020F0DD08B4A137843F00A0313706022824B1A704FF40042874B1A602C46DAE0864A1378DE
:401E400043F0100313701022844B1A700422023B1A702C46CDE00022764B1A704A22764B1A702C46C5E00A2C2BD1794A137843F0A0031370754B1B7813F0020F14D06E4BEA
:401E80001B7813F0080F01D0092300E00A23704A11780B4313706022674B1A704FF400426C4B1A602C46A4E06B4A137843F0100313701022694B1A700422023B1A702C4615
:401EC00097E0002000F042FF2C4692E014F0020F36D15D4B1A78D2B2584B1B78DBB29A4210D2594A1378DBB255490968CB5CDBB254490B7004214F4B197013780133DBB2B1
:401F0000137076E0514B1B7813F0020F0CD0504A137843F00A0313706022474B1A704FF400424C4B1A6064E04B4A137843F0100313701022494B1A700422023B1A7058E0EB
:401F4000424B1B7813F0020F0CD0414A137843F09A0313706022384B1A704FF400423D4B1A6046E03C4A137843F01003137010223A4B1A700422023B1A70354A137843F067
:401F80009003137035E0364A1378DBB2354908682C490978C9B2C15413780133DBB213701278D2B2304B1B78DBB29A4203D21022204B1A701DE0254B1B7813F0020F0CD0AA
:401FC000234A137843F00903137060221A4B1A704FF400421F4B1A600BE01F4A137843F0100313700022134B1A7002E0002000F0ADFE14F0200F1CD00F4B1B7813F0080FD8
:4020000001D0012300E00223114A11780B431370114A137803F0EF0313701022064B1A7038BD054B1B7813F0100F02D11022024B1A7038BDD7490040E481FF1FEA81FF1F5F
:40204000EC81FF1FD8490040E981FF1FF481FF1FF581FF1F80E100E0D6490040D9490040E881FF1FF081FF1FF681FF1F1A4B1B78DBB2102B29D1194B1B7813F0080F26D156
:402080004FF40042164B1A604000C0B229B140F001004922104B1A7002E045220E4B1A70104B1870012201331A700F4B1B7813F0010FFAD00C4B1B7803F00A030A2B08D101
:4020C0001022054B1A700320704702207047012070470020704700BFE481FF1FD949004080E100E0D8490040D7490040164B1B7813F0040F23D04000C0B229B140F0010012
:402100004922124B1A7002E04522104B1A70104B1870122201331A700422023B1A700D4B1B7813F0010FFAD00A4B1B7803F00A030A2B06D11022054B1A7003207047022099
:4021400070470020704700BFD9490040E481FF1FD8490040D74900400A4B1B7813F0040F0ED01023074A13700421023A1170064A1370064B1B7813F0210FFAD0002070471C
:4021800002207047D9490040E481FF1FD7490040114B1B7813F0040F1BD0104B18700422013B1A7046220E4B1A700E4B1B7813F0010FFAD00B4B1B7813F0020F04D16022DA
:4021C000074B1A70002070476022054B1A70032070470220704700BFD9490040D8490040E481FF1FD7490040114B1B7813F0040F1BD0104B1B78DBB2492B05D100220E4B88
:402200001A704A220B4B1A700B4B1B7813F0010FFAD00A4B1B78DBB218B11021064A117004E06021034A117000E0002318467047D9490040E481FF1FD7490040D8490040D1
:402240007222084B1A70202203331A700622A3F263131A70472210331A70002203F5A9731A7070478865004010B500F0EDFD04460A4A137843F0200313700332137843F0C0
:4022800010031370013A137843F01003137000F033FD204600F0DCFD10BD00BF9865004008B5054B1B7823B9FFF7CAFF0122024B1A70FFF7D9FF08BD8181FF1F034B1B7818
:4022C00013F0040FFAD1024B187070476A6500404964004038B5074B1B782BB938BDFFF7EDFF0134A4B201E005460024285D0028F5D138BD8181FF1F044A137803F0EF03C7
:40230000000100F01000184310707047205100400222014B1A60704700E100E00122014B1A60704700E100E008B500F08DFD0C4A137843F0200313700432137843F010039E
:402340001370033A137843F01003137000F080FD00F0E0FCFFF7DCFFFFF7E0FF08BD00BF946400400222014B1A60704780E100E00122014B1A60704780E100E008B500F03E
:4023800063FD094A137803F0EF031370033A137803F0EF03137000F05BFD00F0C9FCFFF7E1FFFFF7E5FF08BD9864004010B5FFF7D9FF064B1C78064A137803F009031C43E8
:4023C00000231370FFF7A4FF204610BD68640040F881FF1F10B5FFF7CBFF064B1B78064A147804F040041C4300231370FFF796FF204610BD656400403382FF1F10B504469D
:402400002B4B1A7802F0FF0312B1013BDBB200E03123284A1278D2B29342F1D0FFF7A2FF254B1978254A137803F009030B4313701F4B1A78D2B21F4B1B78DBB29A4207D1AA
:402440001E4B1B7813F0040F02D01D4B1C702CE0184A13780133DBB213701378DBB2312B02D90022134B1A70124B1A78D2B2104B1B78DBB29A420ED10D4A13780133DBB2A2
:4024800013701378DBB2312B02D90022084B1A7001220C4B1A70074B1B78DBB20A4AD4540A4A137843F004031370FFF731FF10BD3482FF1F3282FF1F68640040F881FF1F81
:4024C000446400402E82FF1FFC81FF1F8864004010B5FFF74DFF134B1A78D2B2124B1B78DBB29A4214D0114B1B7813F0FF0F0CD10C4A13780133DBB213701378DBB2312B31
:4025000006D90022074B1A7002E00022074B1A70044B1B78DBB2064AD45CE4B2FFF7FEFE204610BD3182FF1F2F82FF1F3082FF1F3882FF1F08B501E0094B1B78094B1B7880
:4025400013F0200FF8D1FFF713FF0023064A1370064A1370064A1370FFF7E0FE08BD00BF54640040656400403082FF1F3182FF1F2F82FF1F08B500F067FC0E4B1A7842F0C6
:4025800001021A701A7802F0FE021A7000F060FCFFF7E8FE0023084A1370084A1370084A1370084A137803F0FB031370FFF7B0FE08BD00BF946400402E82FF1F3482FF1F63
:4025C0003282FF1F8864004070B506460C46002506E0705DFFF712FF0135EDB2013CE4B2002CF6D170BD00BF08B501E00A4B1B780A4B1B7813F0200FF8D100F025FC084BE7
:402600001A7842F001021A701A7802F0FE021A7000F01EFC08BD00BF54640040656400409464004010B50F22174B1A70174C022323600721012000F0BFFB1549012000F025
:40264000A7FB012323600721002000F0B5FB1149002000F09DFBFFF7C7FF00240E4B1C700E4B1C700E4B1C700E4B1C700E4B1C700E4B1C70FFF79AFEFFF7ACFE0C4B1C70D8
:402680002022033B1A7010BD8464004080E100E0D1260000712700003082FF1F3182FF1F2F82FF1F2E82FF1F3482FF1F3282FF1F8864004008B5054B1B7823B9FFF7B2FF18
:4026C0000122024B1A70FFF72FFE08BD8381FF1F28E01F4B19781F4A137803F009030B431370137813F0040F24D01B4B1B7813F0FF0F0CD1194A13780133DBB213701378D6
:40270000DBB2312B06D90022144B1A7002E00022114B1A70114B1B78DBB2114AD35CDBB2104A13700D4B1A78D2B20F4B1B78DBB29A42CED1094B1A78D2B20B4B1B78DBB229
:402740009A4204D1094A137803F0FB031370704768640040F881FF1F2E82FF1F3482FF1FFC81FF1F446400403282FF1F88640040204B1A7820490B7803F0400313430B70E9
:4027800032E01E4B1A78D2B21D490B780133DBB20B700B78DBB2312B02D90021184B1970174B1978C9B2174B1B78DBB299420ED114490B780133DBB20B700B78DBB2312BDD
:4027C00002D900210F4B197001210F4B19700C4B1B78DBB20D49CA54064B1A7806490B7803F0400313430B70034B1B7813F0200FC7D17047656400403382FF1F5464004018
:402800002F82FF1F3182FF1F3082FF1F3882FF1F084A137843F0010313701032137843F00103137002F64D32137843F001031370704700BFA3430040014B1870704700BF90
:40284000034F0040014B1878704700BF034F0040014B1880704700BF044F0040014B1880704700BF064F004008B5154A137803F0010313700232137803F0FC031370114B55
:402880001A7802F0CF021A701A7842F030021A701A7802F0F0021A701A7842F00F021A70094A137843F0010313706320FFF7D0FF6320FFF7D3FF0820FFF7BEFF08BD00BFD0
:4028C000004F00400B4F0040014F004008B5054B1B7823B9FFF7C8FF0122024B1A70FFF797FF08BD8481FF1F024B1B68C3F88400704700BF08ED00E04001C0B2014B187097
:40290000704700BF11E400E04FF40032014B1A60704700BF00E100E04FF40032014B1A60704700BF80E100E010B50446FFF7F4FF2046FFF7D9FF0620FFF7DEFFFFF7E4FFEA
:4029400010BD00BF08B5FFF7E7FF0248FFF7CCFF08BD00BF55140000024B1B68C3F88800704700BF08ED00E04001C0B2014B1870704700BF12E400E04FF48022014B1A605E
:40298000704700BF00E100E04FF48022014B1A60704700BF80E100E010B50446FFF7F4FF2046FFF7D9FF0720FFF7DEFFFFF7E4FF10BD00BF084A137843F002031370103219
:4029C000137843F00203137002F65932137843F001031370704700BFA3430040014B1870704700BF0F4F0040014B1878704700BF0F4F0040014B1880704700BF104F00405C
:402A0000014B1880704700BF124F004008B51E4A137803F0010313701C4B1A7802F0FC021A701A7802F0F3021A701A7842F00C021A701A7802F07F021A701A7842F08002CA
:402A40001A701A78D2B21A7009331A7802F0CF021A701A7842F030021A701A7802F0F0021A701A7842F00F021A70094A137843F0010313706320FFF7BDFF6320FFF7C0FF2D
:402A80000820FFF7ABFF08BD0C4F00400E4F00400D4F004008B5054B1B7823B9FFF7B6FF0122024B1A70FFF785FF08BD8581FF1F10B5002404E02046FEF720FC0134E4B222
:402AC000012CF8D9FF22014B1A7010BDDA80FF1F10B50446FFF7ECFF2046FEF701FC014B1C7010BDDA80FF1F014B188880B2704780400040034B1A7800F0F80010431870BF
:402B0000704700BF82400040024B187800F00700704700BF8240004070B505460E46FFF7F3FF0446FFF7E0FFA84256D02B4B1B7803F0010294B900B185B938B9284B1D80BA
:402B4000284A137803F0BF03137070BD254A137843F040031370224B1D8070BD22B3002321490B7001240F310C7004310B700C390B7803F07F030B701A4B1B7813F0080F91
:402B800000D08DB9194B18800721013B1970164B1B7813F0010FFAD110490B7803F0FE030B700021104B19700C4B1B7813F0010F0DD00E4B1D800EB1032200E001220A4BE8
:402BC0001A70094B1B7813F0010FFAD170BD044B1D8002490B7813430B7070BDA243004080400040824000400140004002400040014B188880B2704700410040034B1A7841
:402C000000F0F80010431870704700BF02410040024B187800F00700704700BF0241004070B505460E46FFF7F3FF0446FFF7E0FFA84256D02B4B1B7803F0010294B900B133
:402C400085B938B9284B1D80284A137803F0BF03137070BD254A137843F040031370224B1D8070BD22B3002321490B70012413310C7004390B7008390B7803F07F030B705B
:402C80001A4B1B7813F0080F00D08DB9194B18800721013B1970164B1B7813F0010FFAD110490B7803F0FE030B700021104B19700C4B1B7813F0010F0DD00E4B1D800EB152
:402CC000032200E001220A4B1A70094B1B7813F0010FFAD170BD044B1D8002490B7813430B7070BDA143004000410040024100400140004002400040054A137843F00403E4
:402D000013701032137843F004031370704700BFA2430040054A137843F0020313701032137843F002031370704700BFA2430040054A137803F0FD0313701032137803F023
:402D4000FD031370704700BFA243004001BE704710B5044605E0084B186800F06DF8A4F50044B4F5004FF6D8034B586800FB04F000F062F810BD00BFDC80FF1F08B5034BA8
:402D80001B7A00FB03F000F057F808BDDC80FF1F70B504460E46074B1D681F2802D90020FFF7D4FF04F01F04103455F8240045F8246070BD08ED00E038B504460D46072924
:402DC00002D90020FFF7C2FF1F2C02D90020FFF7BDFF04F01F0000F1604000F564406D01EDB2057038BD00BF014B1B689864704708ED00E04001C0B2014B1870704700BF62
:402E000002E400E00422014B1A60704700E100E00422014B1A60704780E100E010B50446FFF7F6FF2046FFF7DFFF0720FFF7E2FFFFF7E8FF10BD00BF0230800803D000BF9D
:402E400001380046FCD17047EFF3108072B6704780F31088704700BF81F0004102E000BF83F0004330B54FEA41044FEA430594EA050F08BF90EA020F1FBF54EA000C55EA45
:402E8000020C7FEA645C7FEA655C00F0E2804FEA5454D4EB5555B8BF6D420CDD2C4480EA020281EA030382EA000083EA010180EA020281EA0303362D88BF30BD11F0004F16
:402EC0004FEA01314FF4801C4CEA113102D0404261EB410113F0004F4FEA03334CEA133302D0524263EB430394EA050F00F0A780A4F10104D5F1200E0DDB02FA0EFC22FAB6
:402F000005F2801841F1000103FA0EF2801843FA05F359410EE0A5F120050EF1200E012A03FA0EFC28BF4CF0020C43FA05F3C01851EBE37101F0004507D54FF0000EDCF169
:402F4000000C7EEB00006EEB0101B1F5801F1BD3B1F5001F0CD349085FEA30004FEA3C0C04F101044FEA445212F5800F80F09A80BCF1004F08BF5FEA500C50F1000041EBA1
:402F8000045141EA050130BD5FEA4C0C404141EB010111F4801FA4F10104E9D191F0000F04BF01460020B1FA81F308BF2033A3F10B03B3F120020CDA0C3208DD02F1140CDF
:402FC000C2F10C0201FA0CF021FA02F10CE002F11402D8BFC2F1200C01FA02F120FA0CFCDCBF41EA0C019040E41AA2BF01EB0451294330BD6FEA04041F3C1CDA0C340EDC18
:4030000004F11404C4F1200220FA04F001FA02F340EA030021FA04F345EA030130BDC4F10C04C4F1200220FA02F001FA04F340EA0300294630BD21FA04F0294630BD94F03D
:40304000000F83F4801306BF81F480110134013D4EE77FEA645C18BF7FEA655C29D094EA050F08BF90EA020F05D054EA000C04BF1946104630BD91EA030F1EBF002100208E
:4030800030BD5FEA545C05D14000494128BF41F0004130BD14F580043CBF01F5801130BD01F0004545F0FE4141F470014FF0000030BD7FEA645C1ABF194610467FEA655CEB
:4030C0001CBF0B46024650EA013406BF52EA033591EA030F41F4002130BD00BF90F0000F04BF0021704730B54FF4806404F132044FF000054FF0000150E700BF90F0000FBB
:4031000004BF0021704730B54FF4806404F1320410F0004548BF40424FF000013EE700BF42004FEAE2014FEA31014FEA02701FBF12F07F4393F07F4F81F06051704792F009
:40314000000F14BF93F07F4F704730B54FF4607401F0004521F0004120E700BF50EA010208BF704730B54FF000050AE050EA010208BF704730B511F0004502D5404261EBC2
:4031800041014FF4806404F132045FEA915C3FF4DCAE4FF003025FEADC0C18BF03325FEADC0C18BF033202EBDC02C2F1200300FA03FC20FA02F001FA03FE40EA0E0021FAD5
:4031C00002F11444C1E600BF70B54FF0FF0C4CF4E06C1CEA11541DBF1CEA135594EA0C0F95EA0C0F00F0DEF82C4481EA030621EA4C5123EA4C5350EA013518BF52EA033582
:4032000041F4801143F4801338D0A0FB02CE4FF00005E1FB02E506F00042E0FB03E54FF00006E1FB03569CF0000F18BF4EF0010EA4F1FF04B6F5007F64F5407404D25FEA62
:403240004E0E6D4146EB060642EAC62141EA55514FEAC52040EA5E504FEACE2EB4F1FD0C88BFBCF5E06F1ED8BEF1004F08BF5FEA500E50F1000041EB045170BD06F0004676
:4032800046EA010140EA020081EA0301B4EB5C04C2BFD4EB0C0541EA045170BD41F480114FF0000E013C00F3AB8014F1360FDEBF002001F0004170BDC4F10004203C35DA4C
:4032C0000C341BDC04F11404C4F1200500FA05F320FA04F001FA05F240EA020001F0004221F0004110EBD37021FA04F642EB06015EEA430E08BF20EAD37070BDC4F10C04E7
:40330000C4F1200500FA04F320FA05F001FA04F240EA020001F0004110EBD37041F100015EEA430E08BF20EAD37070BDC4F1200500FA05F24EEA020E20FA04F301FA05F203
:4033400043EA020321FA04F001F0004121FA04F220EA020000EBD3705EEA430E08BF20EAD37070BD94F0000F0FD101F00046400041EB010111F4801F08BF013CF7D041EA03
:40338000060195F0000F18BF704703F00046520043EB030313F4801F08BF013DF7D043EA0603704794EA0C0F0CEA135518BF95EA0C0F0CD050EA410618BF52EA4306D1D103
:4033C00081EA030101F000414FF0000070BD50EA410606BF1046194652EA430619D094EA0C0F02D150EA013613D195EA0C0F05D152EA03361CBF104619460AD181EA0301D7
:4034000001F0004141F0FE4141F470014FF0000070BD41F0FE4141F4780170BD70B54FF0FF0C4CF4E06C1CEA11541DBF1CEA135594EA0C0F95EA0C0F00F0A7F8A4EB050483
:4034400081EA030E52EA03354FEA013100F088804FEA03334FF0805545EA131343EA12634FEA022245EA111545EA10654FEA00260EF000419D4208BF964244F1FD0404F5DE
:40348000407402D25B084FEA3202B61A65EB03055B084FEA32024FF480104FF4002CB6EB020E75EB030E22BFB61A754640EA0C005B084FEA3202B6EB020E75EB030E22BFE3
:4034C000B61A754640EA5C005B084FEA3202B6EB020E75EB030E22BFB61A754640EA9C005B084FEA3202B6EB020E75EB030E22BFB61A754640EADC0055EA060E18D04FEABF
:40350000051545EA16754FEA06164FEAC30343EA52734FEAC2025FEA1C1CC0D111F4801F0BD141EA00014FF000004FF0004CB6E711F4801F04BF01430020B4F1FD0C88BF8F
:40354000BCF5E06F3FF6AFAEB5EB030C04BFB6EB020C5FEA500C50F1000041EB045170BD0EF0004E4EEA113114EB5C04C2BFD4EB0C0541EA045170BD41F480114FF0000ECE
:40358000013C90E645EA060E8DE60CEA135594EA0C0F08BF95EA0C0F3FF43BAF94EA0C0F0AD150EA01347FF434AF95EA0C0F7FF425AF104619462CE795EA0C0F06D152EA9E
:4035C00003353FF4FDAE1046194622E750EA410618BF52EA43067FF4C5AE50EA41047FF40DAF52EA43057FF4EBAE12E74A0011D212F5001211D20DD56FF47873B3EB625252
:403600000ED44FEAC12343F0004343EA505323FA02F070474FF00000704750EA013002D14FF0FF3070474FF000007047014B1868704700BF4C81FF1F0E4B70B51E460E4CC7
:403640000025E41AA410A54204D056F8253098470135F8E700F0B0FF084B094C1E46E41AA4100025A54204D056F8253098470135F8E770BDC4450000C4450000C445000005
:40368000CC45000010B5431E0A44914204D011F8014B03F8014FF8E710BD03460244934202D003F8011BFAE7704700000EB400B54FF402719CB0ADF814106FF00041049136
:4036C00007914FF6FF711DAB02900690084853F8042BADF81610006802A9019300F064F8029B00221A701CB05DF804EB03B070474C81FF1F2DE9F0478E6882469E420C461A
:40370000914698463ED88A8912F4906F3AD02568096902236F1A656905EB450595FBF3F57B1C43449D4238BF1D4653050FD5294600F040FB064698B13A462169FFF7A2FF0C
:40374000A38923F4906343F08003A38113E02A4600F08EFB064670B92169504600F0DEFA0C23CAF80030A3894FF0FF3043F04003A381BDE8F08726613E44266046466561AE
:40378000ED1BA560464528BF464649463246206800F0A8FAA36800209B1BA36023681E442660BDE8F08700002DE9F04F9DB003938B8980461C060D4616460DD50B695BB91D
:4037C000402100F0F7FA2860286118B90C23C8F80030CDE040236B610023099320238DF82930DFF89CB130238DF82A3037463C4614F8013B1BB9B7EB060910D003E0252B95
:40380000F9D02746F3E74B46324629464046FFF771FF013000F0A780099B4B4409933B78002B00F0A08000234FF0FF3204930793059206938DF853301A930126052221787F
:403840004E4800F041FA671C049B38B14B4A3C46801A06FA00F018430490EFE7D90644BF20228DF853201A0744BF2B228DF8532022782A2A03D0079A00210A200BE0039A5C
:40388000111D12680391002A10DA524243F00200079204900BE027463B780134303B092B03D800FB02320121F5E701B107923B782E2B1ED17B782A2B0AD1039B02371A1D64
:4038C0001B680392002BB8BF4FF0FF33059310E0002319460593781C0A2407463A780130303A092A03D804FB01210123F5E703B1059103223978224800F0E6F940B14023C3
:40390000CBEB000003FA00F0049B013718430490397806221B487E1C8DF8281000F0D4F988B1194B33B9039B073323F007030833039314E003AB00932A46144B04A9404648
:40394000AFF3008007E003AB00932A460F4B04A9404600F093F8B0F1FF3F824603D0099B5344099342E7AB895B0601D4099801E04FF0FF301DB0BDE8F08F00BF824500003A
:40398000884500008C45000000000000F53600002DE9F04791461F460A698B6806469342B8BF1346C9F8003091F843200C46DDF8208012B10133C9F800302368990642BFA7
:4039C000D9F800300233C9F80030256815F0060510D104F1190A07E00123524639463046C04701301AD00135E368D9F800209B1A9D42F1DB94F843302268003318BF0123C7
:403A000092060FD5E118302081F843005A1C94F845102244023382F8431003E04FF0FF30BDE8F08704F1430239463046C0470130F4D02268D9F80050E36802F00602042A90
:403A400008BF5D1B2269A3680CBF25EAE57500259342C4BF9B1AED184FF000091A344D4509D00123224639463046C0470130D5D009F10109F3E70020BDE8F0872DE9F04344
:403A800017460A7E85B06E2A984606460C460C9B01F1430E00F0AE8011D8632A22D009D8002A00F0BB80582A40F0CA8081F84520834955E0642A1ED0692A1CD0C0E0732A1F
:403AC00000F0B08009D86F2A2ED0702A40F0B8800A6842F020020A603EE0752A24D0782A3AD0ADE01A6801F14205111D1960136884F84230A8E021681A6811F0800F02D052
:403B0000111D196008E011F0400F02F10401196002D0B2F9003000E01368002B3CDA2D225B4284F8432037E021681A6811F0800F02D0111D196007E011F0400F02F10401C7
:403B4000196001D0138800E01368227E5C496F2A14BF0A2208221BE078225A4984F845202268186812F0800F00F104051D6003D1550601D5038800E00368D00744BF42F0EC
:403B8000200222601BB9226822F0200222601022002084F8430001E049490A226568002DA56008DB206820F0040020602BB9002D7DD175460CE0002B79D07546B3FBF2F0DA
:403BC00002FB1033CB5C05F8013D03460028F5D1082A0BD12368DA0708D5236962689A42DEBF302305F8013C05F1FF35C5EB0E0323612EE008681A6810F0800F496903D0B6
:403C0000101D1860136808E010F0400F02F104001860136801D0198000E0196000232361754616E01A68111D1960156800216268284600F049F808B1401B6060636804E075
:403C400004F1420584F8422001232361002384F84330CDF800803B4603AA21463046FFF797FE013002D14FF0FF3026E023692A4639463046C0470130F5D023689B0710D51D
:403C8000002504F1190907E001234A4639463046C0470130E7D00135E368039A9B1A9D42F2DBE068039B9842B8BF184605E00B7804F1420584F842308AE705B0BDE8F08365
:403CC00093450000A445000010B5C9B202449042034605D01C7801308C42F8D1184610BD002010BD884210B501EB020301D8421E0BE09842FBD28118D21AD34204D013F855
:403D0000014D01F8014DF8E710BD994204D011F8014B02F8014FF8E710BD000038B50546002944D051F8043C0C1F002BB8BFE41800F0D4F81E4A1368114613B96360146088
:403D400030E0A3420DD92268A018834201BF18685B681218226063600C6023E0A24203D813465A68002AF9D118681918A1420BD12168014458188242196013D110685268B1
:403D8000014419605A600DE002D90C232B6009E021686018824201BF106852680918216062605C602846BDE8384000F098B838BD8C81FF1F70B5CD1C25F0030508350C2DBD
:403DC00038BF0C25002D064601DBA94202D90C23336046E000F082F8234B1C681A462146A1B10B685B1B0ED40B2B03D90B60CC18CD501EE08C420BBF63684B681360636090
:403E000018BF0C4615E00C464968E9E7174C23681BB9304600F052F820602946304600F04DF8431C18D0C41C24F00304A0420DD12560304600F053F804F10B00231D20F0FD
:403E40000700C31A0ED05A42E25070BD211A304600F034F80130EBD10C233360304600F03EF8002070BD00BF8C81FF1F8881FF1FF8B5074615460E4621B91146BDE8F84058
:403E8000FFF798BF1AB9FFF749FF2846F8BD00F027F885420ED929463846FFF78BFF044650B131462A46FFF7EDFB31463846FFF735FF01E03046F8BD2046F8BD38B5064CC2
:403EC0000023054608462360FDF7CCFA431C02D1236803B12B6038BD6C82FF1F7047704751F8040C0028BEBF091851F8043CC018043870470000000044657669636520304B
:403F0000782530325820697320636F6E6E65637465640D0A0000000057484F20414D2049205245473A20307825303258205B45787065637465643A20307833335D0D0A00D7
:403F40004572726F72206F6363757272656420647572696E672049324320636F6D6D0D0A000000005354415455532052454749535445523A203078253032580D0A000000F5
:403F80004572726F72206F6363757272656420647572696E672049324320636F6D6D20746F2072656164207374617475732072656769737465720D0A00000000434F4E54DA
:403FC000524F4C20524547495354455220313A203078253032580D0A000000004572726F72206F6363757272656420647572696E672049324320636F6D6D20746F20726538
:40400000616420636F6E74726F6C20726567697374657220310D0A000D0A57726974696E67206E65772076616C7565732E2E0D0A00000000434F4E54524F4C2052454749BD
:40404000535445522031207375636365737366756C6C79207772697474656E2061733A203078253032580D0A000000004572726F72206F6363757272656420647572696E90
:40408000672049324320636F6D6D20746F2073657420636F6E74726F6C20726567697374657220310D0A0000434F4E54524F4C205245474953544552203120616674657249
:4040C000206F7665727772697465206F7065726174696F6E3A203078253032580D0A0000434F4E54524F4C20524547495354455220343A203078253032580D0A00000000DE
:404100004572726F72206F6363757272656420647572696E672049324320636F6D6D20746F207265616420636F6E74726F6C207265676973746572340D0A0000434F4E54C7
:40414000524F4C2052454749535445522034206166746572206265696E6720757064617465643A203078253032580D0A00000000434F4E54524F4C2052454749535445527D
:404180002035204649464F20454E41424C45207375636365737366756C6C79207772697474656E2061733A203078253032580D0A000000004572726F72206F636375727289
:4041C000656420647572696E672049324320636F6D6D20746F2073657420636F6E74726F6C20726567697374657220350D0A0000434F4E54524F4C2052454749535445527C
:40420000203520425950415353204D4F4445207375636365737366756C6C79207772697474656E2061733A203078253032580D0A00000000434F4E54524F4C20524547492C
:40424000535445522033204F56455252554E20494E5420454E41424C45207375636365737366756C6C79207772697474656E2061733A203078253032580D0A00494E543110
:4042800020434F4E46205245474953544552203052203644207375636365737366756C6C79207772697474656E2061733A203078253032580D0A0000494E5431205448536E
:4042C000205245474953544552207375636365737366756C6C79207772697474656E2061733A203078253032580D0A00494E5431204455524154494F4E205245474953544B
:404300004552207375636365737366756C6C79207772697474656E2061733A203078253032580D0A000000004341534520302052657065746974696F6E20666C61673A20C5
:404340002564200D0A0000004279746520726561643A202564200D0A000000004341534520312052657065746974696F6E20666C61673A202564200D0A0000004461746115
:404380002077726974653A202564200D0A00000054696D657374616D703A202564200D0A00000000456E64205772697465206F6E20454550524F4D0D0A000000456E642055
:4043C00052656164206F6E20454550524F4D0D0A000000004461746120726561643A2025640D0A004461746120726561643A20256C64200D0A000000434153452032205279
:40440000657065746974696F6E20666C61673A202564200D0A00000052657065746974696F6E20666C61672061667465722073657474696E67733A202564200D0A0000001D
:40444000506F74656E74696F6D657465723A20256C64200D0A0000004374726C20526567313A20307825303258200D0A000000004F7665727468726573686F6C64206576C7
:40448000656E74200D0A0000537769746368204F4E20646576696365200D0A0053776974636820746F20436F6E66696775726174696F6E204D6F6465200D0A005377697418
:4044C0006368204F4646200D0A00000053776974636820746F2070726576696F7573204D6F6465200D0A00004C6F6E6720427574746F6E2050726573736564200D0A000078
:4045000053686F72742050726573736564200D0A000000004E207072657373202564200D0A000000035B00402443004040000000C84900401900004F00401800405100405C
:404540003000F0510040100000000140000480040140800B00140140000800400140000A004C0140000200500140200060520040240600480600000401402C060048800014
:404580004300232D302B2000686C4C006566674546470030313233343536373839414243444546003031323334353637383961626364656600000000F8B500BFF8BC08BCE1
:4045C0009E4670474D000000E1140000F8B500BFF8BC08BC9E46704729000000F0450000C880FF1F880000002001000000000000000000007082FF1F010000000081020856
:404600000400FF000000E02EC05D00001800000000366E010000000000000000000000000000000000000000000000000000000000000000804500000000000000000000CA
:4046400000000000000000000000000000000000000000000000000000000000000000000000000000000000000000000000000000000000EC80FF1F0000000000000000B0
:4046800000000000000000000000000000000000000000000000000000000000000000000000000000000000000000000000000000000000000000000000000000000000FA
:4046C00000000000000000000000000000000000000000000000000000000000000000000000000000000000000000000000000000000000000000000000000000000000BA
:404700000000000000000000000000000000000000000000000000000000000000000000000000000000000000000000000000000000000000000000000000000000000079
:404740000000000000000000000000000000000000000000000000000000000000000000000000000000000000000000000000000000000000000000000000000000000039
:020000040003F7
:0200000480007A
:40000000044F004002520040016400400365004004020140040301402204014043050140120701406708014047090140050B0140020D01400515014003170140441801403E
:400040003D190140541A01404C1B014004400140094101400C42014007430140044401400645014006460140014701400648014013490140084C01400F4D01400550014049
:400080000251014001300A4B0D50163600200160840F88728A0F8B3838083E0458045F011D048D04E210EA0180428208868088408C8D9002920D941196229703988D9C8D9D
:4000C0009F01A00DA280A462A614A88DAB03AD02B00FB270B480B703BA0ABE10D440D604D804D904DB04DC11DD10DF0100900240031005080604078209280A400C200E81E3
:400100000F101028120213011520170918161A801D081E801F1821202202233C26802A862B082E802F083020320233403680370839603B0441284280473049284B425254ED
:400140006002654266106720686869606A416B41720273038010850287408D208E40C0FFC2FEC47FCA3FCC5DCE0ED007D20CD8F8E60282048F0193029A049C02A801AD4884
:40018000AE80AF20B128B280B380B404E001E642E802EA80EC0402080533074C09550BAA0D020F0D102C11491203139619E01C311E0E220C261328312A06300F323033F0B2
:4001C000370F380839083A023B803E044003460449FF4A074BFF4C404D204EF04F05500854095604580459045A045B045C125D125F01604061A8624063208010824083108F
:4002000084148506870989408B0B8C0C8D278E718F0890DC9222941096AC99279A039B18A620AC09AD14AED0AF29B0E0B160B41FB51EB701B902BA02BB20BF40C062C105EA
:40024000C5EBC70CC813C9FFCAFFCBFFCEF0CF44D00CD804D904DA04DC22DD02DF01E6C0EA40EB020040026006400A640B080E400F0212121522161018401A041B011D0807
:400280001E401F02200821112252254027122B0232103711384839023A103B803D803E203F044320450848444A204B805004565057205C025D885E106742821087408C104D
:4002C0008D089306980299809A209B01A201AB01AF04B220B301B580C01DC29EC475CA08CCA4CE7FD044D20CD6F0D890E040E640ECE08C02A201B601E010E602E010EA0138
:40030000E008E401EA05EC10EE02AC02E220EE02001A020404010502080809010B060C060E18101E110716041701181A19061A041B011C101D0820012104240128182906B8
:400340002D0731073201341C350836023A223E403F1056025713580459045B045C225D205F0180C08438850186C488808CFE90CE923096C698F89A029E08A020A410A830C3
:40038000AC48AE01B0F0B43EB501B601BA22BF10D804D904DC02DF0100040102030604880501060409080A460C800D0A0E04108811481504171118841A421D1E1E051F020E
:4003C0002210262227402C882F02351536803B083D283E085E016C046D146F017488760C77108040811082108A208C048D019280930894209920A040A201A804A920AF0216
:40040000C0FFC2FFC47FCAB0CCF0CE62D680E220E4040004010402180302070C0B0C0C20110C1508170218121A051B0C210C2301241F281F290C2C092E06301C310C3220BE
:40044000340337033E043F405401580459045B045C225D205F0186028A028E048F039002930495019A04A601A802AE01B204B301B402B502B601B704B820BE44C023C10422
:40048000C205C401C6C0C7E0C828C9FFCAFFCBFFCC62CDA0CEF0CF41D00CD418D804D904DA04DB04DC42DD22DF01E640E702E910EA30EB10ED10EE10EF12008001020301F4
:4004C0000404051006010A0A0B010D020E0411541610175019061A081D401E041F04218022012420254026802708280829023112320433043601370838063A203D8044085E
:40050000459A462047104E02561159245A805B015F01654067088C018D409004911492809420954099309B409D029F04A040A11AA203A680C0E9C252C4E7CA05CCC7CE1718
:40054000D0F0D210D68FD830E008E401EA05EC10EE02300233803622CCF0632064208F02A402A620A780AA02D8C0EA803E105B02831087809B029C20A402A620A790CE20C3
:40058000D640E69086208C029610A402A620B020E64013017C10C408DE0101248C109410AB01C00AE008450885049104B520D001EA08A5082510690489049610C820DA40DE
:4005C000122016407B027E01822086409202A302AA10AB02AE01B510C430DC80DE20E010E480EAA0EE40132815027B107F408102A508C40EDE0312807502831087408E80B1
:4006000097809902A710AB28AD01B508C408DE04E202EC0800060A020C0610141C1400FF03C00000828000004300000060000000072138D80102009884980002043880C041
:40064000560009000A981002009A0000849A00008402000080FC04030413006480E07F13080F020008000022000051002304600005EDFB0C1FFFFFFF2200F00804000000EB
:400680000000022004040404111100010000C00040011011C0010011400140010000000000000000000000000000000000606000600000008300508C8F00830000000000DE
:4006C000000B0B0000000000140001161200000000000000E00000E0E0000000080000002500180100000000000000000000000000000000000000000000000000000000C1
:4007000000000000000000000000000000000000000000000000000000000000000000000000000000000000000000000000000000000000000000000000000000000000B9
:400740000000000000000000000000000000000000000000000000000000000000000000000000000000000000000000000000000000000000000000000000000000000079
:400780000000000000000000000000000000000000000000000000000000000000000000000000000000000000000000000000000000000000000000000000000000000039
:4007C00000000000000000000000000000000000000000000000000000000000000000000000000000000000000000000000000000000000000000000000000000000000F9
:0200000490006A
:0400000000004005B7
:0200000490105A
:04000000BC90ACAF55
:0200000490303A
:020000000DFAF7
:0200000490402A
:4000000000000000000000000000000000000000000000000000000000000000000000000000000000000000000000000000000000000000000000000000000000000000C0
:400040000000000000000000000000000000000000000000000000000000000000000000000000000000000000000000000000000000000000000000000000000000000080
:400080000000000000000000000000000000000000000000000000000000000000000000000000000000000000000000000000000000000000000000000000000000000040
:4000C0000000000000000000000000000000000000000000000000000000000000000000000000000000000000000000000000000000000000000000000000000000000000
:0200000490501A
:0C00000000012E16106900012E321E6354
:00000001FF