:4000000000800020110000008D0700008D07000008B5044B1A6803F53F5302331A6000F0D5FB00BFFA46004010B5054C237833B9044B13B10448AFF300800123237010BD7F
:400040004881FF1F0000000048180000084B10B51BB108490848AFF300800848036803B910BD074B002BFBD0BDE81040184700BF000000004C81FF1F48180000C880FF1F42
:4000800000000000F0B595B062B6012000F004FC002000F0F5FB00F087F900F027FF052000F008FC00240CE0E0B200F0EDF938B12246A74907A800F0A3FF07A800F030FFC6
:4000C00001347F2CF0DD0DF11B020F21182000F071F948B99DF81B209E4907A800F090FF07A800F01DFF02E09B4800F019FF0DF11A022721182000F05DF948B99DF81A2058
:40010000964907A800F07CFF07A800F009FF02E0934800F005FF0DF119022021182000F049F948B99DF819208E4907A800F068FF07A800F0F5FE02E08B4800F0F1FE8B4805
:4001400000F0EEFE9DF81930572B14D057228DF819202021182000F07FF948B99DF81920834907A800F04CFF07A800F0D9FE02E0804800F0D5FE0DF119022021182000F05D
:4001800019F948B99DF819207B4907A800F038FF07A800F0C5FE02E0734800F0C1FE06AA2321182000F006F948B99DF81820734907A800F025FF07A800F0B2FE02E07048C5
:4001C00000F0AEFE902214AC04F8382D2321182000F042F922462321182000F0EBF848B99DF81820674907A800F00AFF07A800F097FE02E0624800F093FE402224211820EC
:4002000000F02AF940B940225F4907A800F0F8FE07A800F085FE02E05C4800F081FE00222421182000F018F940B90022584907A800F0E6FE07A800F073FE02E0534800F0A0
:400240006FFE00242546012676B140222E21182000F002F907AE4F4F0FCF0FC63B68336007A800F05DFE00262EB90DF10B022F21182000F09FF89DF80B3013F0400F4CD0C5
:4002800007AB454A07CA83E80700184600F048FE0024012541E005AB02222821182000F0A9F804AB02222A21182000F0A3F803AB02222C21182000F09DF8F8B99DF814308E
:4002C0009DF8152043EA02229DF810309DF8111043EA01239DF80C109DF80D0041EA002141F38911009143F3891342F389122B4907A800F085FE07A800F012FE0134E4B257
:400300000DF10A022F21182000F054F89DF80A3013F0200F01D000250126002DBBD1002E92D000222E21182000F096F807AF22461B49384600F064FE384600F0F1FD194B4F
:400340000FCB87E80F00384600F0EAFD7CE700BF4C1800006C18000094180000B8180000D418000010190000301900006C19000088190000C0190000FC190000341A00008A
:40038000541A0000901A0000C41A0000081B0000441B0000881B00009C1B0000A81B0000C41B0000D41B000008B500F00BFB002008BD00BFF8B506460D461746002100F0C9
:4003C0007DFC044678B9284600F00AFD044650B90121304600F0B2FC044620B900F02CFD387000F0E1FC00F0DFFC201C18BF0120F8BD00BF2DE9F04180460C4616461F46D7
:40040000002100F05BFC0546F0B944F0800000F0E7FC0546C0B90121404600F08FFC054650B111E0C4EB0608012000F005FD07F80800013CE4B200E03446012CF2D8013E7B
:40044000002000F0F9FCB85500F0AEFC281C18BF0120BDE8F08100BF70B50D461646002100F02CFC044640B9284600F0B9FC044618B9304600F0B4FC044600F095FC201C24
:4004800018BF012070BD00BF10B5002100F016FC044600F089FC0CB9012010BD002010BDFEE700BFF0B40022174611E050F82760F3B226F0FF0608E001EB420511F8124054
:4004C0006D78A5550132013BDBB2002BF4D10137222FEBD9F0BC70470A4B1B78DBB203F00701094A11701B09013213700822074B1A708023064A1370583213704422054B24
:400500001A707047CF0100496E5800403D510040005B00407658004008B50A46002100F066FD08BD08B500F057FD08BD38B50024394B1C80502202331A700B2202331A807A
:400540001823364A13701925023215800232137040F65F11023211800232137045F6BF522F490A8002310B7002310A802D4A137004222D492D48FFF7D5FF02222C4B1A70AA
:4005800008224FF040231A70032103F500731970284B1B78DBB228490B70284B1A8041F25122023B1A800CE0254B1B7803F0010343EA440404F003044FF4F07000F0D0FC0F
:4005C000013D0DB1032CEFD115B90320FFF768FF1C4B4FF480721A8007221A7000221A490A704820023108701A700222033B1A7004220A331A70154A137843F03F03137082
:40060000013A137843F001031370013A137843F08003137038BD00BF8040004086400040904000409640004028080048004100400043004008010049A146004022420040C2
:40064000254200400440004006400040A243004038B572B6394A137843F00403137000240BE0374863001A19510001440A46098AD068FFF751FF0134E4B2082CF1D90024BC
:400680000BE02F49A3001819420088180622816C406CFFF747FF0134E4B2002CF1D029494FF09040FFF7FEFE0A25274B1D70274A137843F0020313701032137843F002030F
:4006C0001370234C237843F040032370A2F58632513A137843F01003137008221D491E48FFF720FF2A461D491D48FFF71BFF08221C491D48FFF716FF2A461C491C48FFF7B2
:4007000011FF08221B491C48FFF70CFF1B4A137843F0080313701A4D61232B70FFF706FF81232B700122174B1A70FFF7D5FE0E2221461548FFF7F6FE38BD00BFE84600406D
:40074000E41B00008C0000488358004003500140A0430040F80700480251004000080048C05100400C0800481251004014080048205100402008004832510040224300406D
:400780000048004004000840B043004008B500F0F7FB03680C2B00D1FEE7FEE708B5094B1A681044084BC31A802B02DC054B186005E000F0E5FB0C2303604FF0FF321046E1
:4007C00008BD00BFCC80FF1F8881FF1F08B5104E104D16E029686B68AC68002204E051F8040B43F8040B0432A242F8D1E868002203E0002143F8041B04328242F9D110359A
:40080000013E002EE6D100F0C1FBFFF73BFCFEE7010000008C1C000008B5104A104B1A60104A136843F40073136000230AE0032B03D80D4A52F8231000E00C490C4A42F8A0
:40084000231001332F2BF2D90A4B1A780A4B1A70074A0A4B1A60FFF7FBFE08BD0004FA050CED00E014ED00E0000000008D0700000080FF1FBC760040C080FF1F08ED00E0BE
:40088000044A137803F0FB03800000F00400184310707047C0510040044A137803F0F703C00000F00800184310707047C051004001BE704710B5044605E0084B186800F089
:4008C0004FFBA4F50044B4F5004FF6D8034B586800FB04F000F044FB10BD00BFD080FF1F70B504460E46074B1D681F2802D90020FFF7DEFF04F01F04103455F8240045F82D
:40090000246070BD08ED00E038B504460D46072902D90020FFF7CCFF1F2C02D90020FFF7C7FF04F01F0000F1604000F564406D01EDB2057038BD00BF10B50222114B1A7077
:4009400081220E3B1A70082202331A70042211331A70002401331C704FF400420A4B1A6007210F20FFF7D0FF08490F20FFF7B8FF1022074B1A70074B1C70074B1C70074B87
:400980001C7010BDD649004080E100E0ED0900007081FF1F8181FF1F7481FF1F7581FF1F08B500F0E5FA064A137843F0040313701032137843F00403137000F0DDFA08BDB8
:4009C000A543004008B5074B1B7823B9FFF7B4FF0122044B1A70FFF7E3FF4FF40042024B1A6008BD6481FF1F00E100E038B5A54B1C78A54B1B7813F0400F00F03A81E4B278
:400A000014F0010F00F01D819F4B1B78453B052B00F21481DFE813F006008200120112010600DF0004F0DF0504F00A04082C42D1954B1B78DBB2452B35D1944B1B7813F0F7
:400A4000FF0F10D0924B1B681B78DBB2914A137004228C4B1A7001228F4B1A7046228A4B1A702C46EDE08D4B1B7813F0020F0DD08B4A137843F00A0313706022824B1A703E
:400A80004FF40042874B1A602C46DAE0864A137843F0100313701022844B1A700422023B1A702C46CDE00022764B1A704A22764B1A702C46C5E00A2C2BD1794A137843F090
:400AC000A0031370754B1B7813F0020F14D06E4B1B7813F0080F01D0092300E00A23704A11780B4313706022674B1A704FF400426C4B1A602C46A4E06B4A137843F0100311
:400B000013701022694B1A700422023B1A702C4697E00020FFF7CCFE2C4692E014F0020F36D15D4B1A78D2B2584B1B78DBB29A4210D2594A1378DBB255490968CB5CDBB24F
:400B400054490B7004214F4B197013780133DBB2137076E0514B1B7813F0020F0CD0504A137843F00A0313706022474B1A704FF400424C4B1A6064E04B4A137843F010030B
:400B800013701022494B1A700422023B1A7058E0424B1B7813F0020F0CD0414A137843F09A0313706022384B1A704FF400423D4B1A6046E03C4A137843F01003137010227C
:400BC0003A4B1A700422023B1A70354A137843F09003137035E0364A1378DBB2354908682C490978C9B2C15413780133DBB213701278D2B2304B1B78DBB29A4203D210222A
:400C0000204B1A701DE0254B1B7813F0020F0CD0234A137843F00903137060221A4B1A704FF400421F4B1A600BE01F4A137843F0100313700022134B1A7002E00020FFF791
:400C400037FE14F0200F1CD00F4B1B7813F0080F01D0012300E00223114A11780B431370114A137803F0EF0313701022064B1A7038BD054B1B7813F0100F02D11022024BC3
:400C80001A7038BDD74900407081FF1F7681FF1F7881FF1FD84900407581FF1F8081FF1F8181FF1F80E100E0D6490040D94900407481FF1F7C81FF1F8281FF1F1A4B1B781D
:400CC000DBB2102B29D1194B1B7813F0080F26D14FF40042164B1A604000C0B229B140F001004922104B1A7002E045220E4B1A70104B1870012201331A700F4B1B7813F0DD
:400D0000010FFAD00C4B1B7803F00A030A2B08D11022054B1A700320704702207047012070470020704700BF7081FF1FD949004080E100E0D8490040D7490040164B1B784D
:400D400013F0040F23D04000C0B229B140F001004922124B1A7002E04522104B1A70104B1870122201331A700422023B1A700D4B1B7813F0010FFAD00A4B1B7803F00A03BB
:400D80000A2B06D11022054B1A7003207047022070470020704700BFD94900407081FF1FD8490040D74900400A4B1B7813F0040F0ED01023074A13700421023A1170064A8B
:400DC0001370064B1B7813F0210FFAD00020704702207047D94900407081FF1FD7490040114B1B7813F0040F1BD0104B18700422013B1A7046220E4B1A700E4B1B7813F015
:400E0000010FFAD00B4B1B7813F0020F04D16022074B1A70002070476022054B1A70032070470220704700BFD9490040D84900407081FF1FD7490040114B1B7813F0040FCC
:400E40001BD0104B1B78DBB2492B05D100220E4B1A704A220B4B1A700B4B1B7813F0010FFAD00A4B1B78DBB218B11021064A117004E06021034A117000E000231846704720
:400E8000D94900407081FF1FD7490040D84900407222074B1A702022013B1A7006225D3B1A70472210331A7000224F331A7070478765004010B500F05BF804460A4A1378C6
:400EC00043F020031370013A137843F0100313700232137843F01003137000F033F8204600F04AF810BD00BF9765004008B5054B1B7823B9FFF7CCFF0122024B1A70FFF75A
:400F0000D9FF08BD6581FF1F034B1B7813F0040FFAD1024B18707047686500404865004038B5074B1B782BB938BDFFF7EDFF0134A4B201E005460024285D0028F5D138BDF8
:400F40006581FF1F054A137843F0040313701032137843F004031370704700BFA24300400230800803D000BF01380046FCD17047EFF3108072B6704780F31088704700BF90
:400F8000014B1868704700BF4081FF1F0E4B70B51E460E4C0025E41AA410A54204D056F8253098470135F8E700F05EFE084B094C1E46E41AA4100025A54204D056F825301E
:400FC00098470135F8E770BD741C0000741C0000741C00007C1C000010B5431E0A44914204D011F8014B03F8014FF8E710BD03460244934202D003F8011BFAE7704700003C
:401000000EB400B54FF402719CB0ADF814106FF00041049107914FF6FF711DAB02900690084853F8042BADF81610006802A9019300F064F8029B00221A701CB05DF804EB1B
:4010400003B070474081FF1F2DE9F0478E6882469E420C46914698463ED88A8912F4906F3AD02568096902236F1A656905EB450595FBF3F57B1C43449D4238BF1D46530521
:401080000FD5294600F040FB064698B13A462169FFF7A2FFA38923F4906343F08003A38113E02A4600F08EFB064670B92169504600F0DEFA0C23CAF80030A3894FF0FF3078
:4010C00043F04003A381BDE8F08726613E44266046466561ED1BA560464528BF464649463246206800F0A8FAA36800209B1BA36023681E442660BDE8F08700002DE9F04F65
:401100009DB003938B8980461C060D4616460DD50B695BB9402100F0F7FA2860286118B90C23C8F80030CDE040236B610023099320238DF82930DFF89CB130238DF82A3062
:4011400037463C4614F8013B1BB9B7EB060910D003E0252BF9D02746F3E74B46324629464046FFF771FF013000F0A780099B4B4409933B78002B00F0A08000234FF0FF3284
:4011800004930793059206938DF853301A930126052221784E4800F041FA671C049B38B14B4A3C46801A06FA00F018430490EFE7D90644BF20228DF853201A0744BF2B2273
:4011C0008DF8532022782A2A03D0079A00210A200BE0039A111D12680391002A10DA524243F00200079204900BE027463B780134303B092B03D800FB02320121F5E701B1E3
:4012000007923B782E2B1ED17B782A2B0AD1039B02371A1D1B680392002BB8BF4FF0FF33059310E0002319460593781C0A2407463A780130303A092A03D804FB012101236D
:40124000F5E703B1059103223978224800F0E6F940B14023CBEB000003FA00F0049B013718430490397806221B487E1C8DF8281000F0D4F988B1194B33B9039B073323F0B8
:4012800007030833039314E003AB00932A46144B04A94046AFF3008007E003AB00932A460F4B04A9404600F093F8B0F1FF3F824603D0099B5344099342E7AB895B0601D476
:4012C000099801E04FF0FF301DB0BDE8F08F00BF341C00003A1C00003E1C000000000000491000002DE9F04791461F460A698B6806469342B8BF1346C9F8003091F8432038
:401300000C46DDF8208012B10133C9F800302368990642BFD9F800300233C9F80030256815F0060510D104F1190A07E00123524639463046C04701301AD00135E368D9F80A
:4013400000209B1A9D42F1DB94F843302268003318BF012392060FD5E118302081F843005A1C94F845102244023382F8431003E04FF0FF30BDE8F08704F14302394630465A
:40138000C0470130F4D02268D9F80050E36802F00602042A08BF5D1B2269A3680CBF25EAE57500259342C4BF9B1AED184FF000091A344D4509D00123224639463046C0474A
:4013C0000130D5D009F10109F3E70020BDE8F0872DE9F04317460A7E85B06E2A984606460C460C9B01F1430E00F0AE8011D8632A22D009D8002A00F0BB80582A40F0CA80E4
:4014000081F84520834955E0642A1ED0692A1CD0C0E0732A00F0B08009D86F2A2ED0702A40F0B8800A6842F020020A603EE0752A24D0782A3AD0ADE01A6801F14205111DF8
:401440001960136884F84230A8E021681A6811F0800F02D0111D196008E011F0400F02F10401196002D0B2F9003000E01368002B3CDA2D225B4284F8432037E021681A680F
:4014800011F0800F02D0111D196007E011F0400F02F10401196001D0138800E01368227E5C496F2A14BF0A2208221BE078225A4984F845202268186812F0800F00F10405FF
:4014C0001D6003D1550601D5038800E00368D00744BF42F0200222601BB9226822F0200222601022002084F8430001E049490A226568002DA56008DB206820F00400206022
:401500002BB9002D7DD175460CE0002B79D07546B3FBF2F002FB1033CB5C05F8013D03460028F5D1082A0BD12368DA0708D5236962689A42DEBF302305F8013C05F1FF3530
:40154000C5EB0E0323612EE008681A6810F0800F496903D0101D1860136808E010F0400F02F104001860136801D0198000E0196000232361754616E01A68111D1960156810
:4015800000216268284600F049F808B1401B6060636804E004F1420584F8422001232361002384F84330CDF800803B4603AA21463046FFF797FE013002D14FF0FF3026E0F7
:4015C00023692A4639463046C0470130F5D023689B0710D5002504F1190907E001234A4639463046C0470130E7D00135E368039A9B1A9D42F2DBE068039B9842B8BF18461C
:4016000005E00B7804F1420584F842308AE705B0BDE8F083451C0000561C000010B5C9B202449042034605D01C7801308C42F8D1184610BD002010BD884210B501EB02039D
:4016400001D8421E0BE09842FBD28118D21AD34204D013F8014D01F8014DF8E710BD994204D011F8014B02F8014FF8E710BD000038B50546002944D051F8043C0C1F002B97
:40168000B8BFE41800F0D4F81E4A1368114613B96360146030E0A3420DD92268A018834201BF18685B681218226063600C6023E0A24203D813465A68002AF9D1186819187C
:4016C000A1420BD12168014458188242196013D110685268014419605A600DE002D90C232B6009E021686018824201BF106852680918216062605C602846BDE8384000F065
:4017000098B838BD6C81FF1F70B5CD1C25F0030508350C2D38BF0C25002D064601DBA94202D90C23336046E000F082F8234B1C681A462146A1B10B685B1B0ED40B2B03D93B
:401740000B60CC18CD501EE08C420BBF63684B681360636018BF0C4615E00C464968E9E7174C23681BB9304600F052F820602946304600F04DF8431C18D0C41C24F0030474
:40178000A0420DD12560304600F053F804F10B00231D20F00700C31A0ED05A42E25070BD211A304600F034F80130EBD10C233360304600F03EF8002070BD00BF6C81FF1FF7
:4017C0006881FF1FF8B5074615460E4621B91146BDE8F840FFF798BF1AB9FFF749FF2846F8BD00F027F885420ED929463846FFF78BFF044650B131462A46FFF7EDFB3146F9
:401800003846FFF735FF01E03046F8BD2046F8BD38B5064C0023054608462360FEF7BEFF431C02D1236803B12B6038BD8481FF1F7047704751F8040C0028BEBF091851F8BF
:40184000043CC01804387047000000004465766963652030782530325820697320636F6E6E65637465640D0A0000000057484F20414D2049205245473A203078253032589C
:40188000205B45787065637465643A20307833335D0D0A004572726F72206F6363757272656420647572696E672049324320636F6D6D0D0A0000000053544154555320525E
:4018C000454749535445523A203078253032580D0A0000004572726F72206F6363757272656420647572696E672049324320636F6D6D20746F2072656164207374617475F9
:40190000732072656769737465720D0A00000000434F4E54524F4C20524547495354455220313A203078253032580D0A000000004572726F72206F636375727265642064A4
:401940007572696E672049324320636F6D6D20746F207265616420636F6E74726F6C20726567697374657220310D0A000D0A57726974696E67206E65772076616C756573B6
:401980002E2E0D0A00000000434F4E54524F4C2052454749535445522031207375636365737366756C6C79207772697474656E2061733A203078253032580D0A000000005F
:4019C0004572726F72206F6363757272656420647572696E672049324320636F6D6D20746F2073657420636F6E74726F6C20726567697374657220310D0A0000434F4E5462
:401A0000524F4C2052454749535445522031206166746572206F7665727772697465206F7065726174696F6E3A203078253032580D0A0000434F4E54524F4C205245474959
:401A40005354455220343A203078253032580D0A000000004572726F72206F6363757272656420647572696E672049324320636F6D6D20746F207265616420636F6E747203
:401A80006F6C207265676973746572340D0A0000434F4E54524F4C2052454749535445522034206166746572206265696E6720757064617465643A203078253032580D0A2B
:401AC00000000000434F4E54524F4C2052454749535445522035204649464F20454E41424C45207375636365737366756C6C79207772697474656E2061733A203078253023
:401B000032580D0A000000004572726F72206F6363757272656420647572696E672049324320636F6D6D20746F2073657420636F6E74726F6C2072656769737465722035C6
:401B40000D0A0000434F4E54524F4C205245474953544552203520425950415353204D4F4445207375636365737366756C6C79207772697474656E2061733A20307825305F
:401B800032580D0A00000000456E746572204649464F206D6F646521210D0A004F76657272756E21210D0A00583A20256420202020593A20256420202020205A3A25640D19
:401BC0000A0000004E206379636C65733A2025640D0A0000427970617373204D6F646521210D0A00035B00402443004040000000C84900401900004F00400C004051004025
:401C00003000F0510040100000000140001000140140000800400140000A004C01400002005001402000000060520040F007004806004300232D302B2000686C4C0065663A
:401C400067454647003031323334353637383941424344454600303132333435363738396162636465660000F8B500BFF8BC08BC9E4670474D00000019080000F8B500BFCE
:401C8000F8BC08BC9E46704729000000A01C0000C880FF1F800000004000000000000000000000008881FF1F0000E02EC05D00001800000000366E010000000000000000F7
:401CC000000000000000000000000000000000000000000000000000321C000000000000000000000000000000000000000000000000000000000000000000000000000096
:401D0000000000000000000000000000000000000000000000000000E080FF1F00000000000000000000000000000000000000000000000000000000000000000000000025
:401D40000000000000000000000000000000000000000000000000000000000000000000000000000000000000000000000000000000000000000000000000000000000063
:401D80000000000000000000000000000000000000000000000000000000000000000000000000000000000000000000000000000000000000000000000000000000000023
:401DC00000000000000000000000000000000000000000000000000000000000000000000000000000000000000000000000000000000000000000000000000000000000E3
:401E000000000000000000000000000000000000000000000000000000000000000000000000000000000000000000000000000000000000000000000000000000000000A2
:020000040003F7
:0200000480007A
:40000000024F004005520040016400400565004002030140550401403E050140640601404407014002090140020B0140030D0140040E0140010F01404E14014054150140D2
:400040005016014048170140621801404C1901400F1B01400240014007410140084201400243014004440140074501400646014001470140074801401A4901400C4C014057
:400080000C4D0140055001400251014001300A4B00400160110218C01940860F840F850F86388772880FEA10EE01070108010970111E13201524174B1E042207252C275381
:4000C00030043202337834013503370439083F405409580459045B045C155D105F018060848488808A048C0490019456960998079A389C84A004A280A40AA610A884AB0117
:40010000AE80B07FB208B301B480B802BE14C063C105C220C404C5BEC6F0C7DCC83BC9FFCAFFCBFFCC22CEF0CF08D004D440D804D904DA04DB04DC51DD11DF01E2C0E440C5
:40014000E501E610E711E8C0E901EB11EC40ED01EE40EF010010048005020620070409800D080E6A0F04108014111602171918101A081B011E401F182004228023102504D6
:4001800028102F043108320238043B10448045284C044D0A4E0256125704582059095B406280640166106720812183488602870488809640A701AA40AF01C0F2C2F1C4F87B
:4001C000CA22CC03CE06D0E0D230D60FD878EC08019A04090521061207D8081609020A210B980C680D380E800FC010101198126813021414151316401764180419981B0260
:400200001CE820E8219A24E8250228E829FC2B03307831E0320733133480350F3A0A3B223E1056025724580459045B045C115D105F0185058608870A88138A0C8C138E0412
:4002400092159509970699029B0DA00AA214A503A70CA803AA14B010B20FB50FBA08BB20BE01C010C102C501C625C70DC81DC9FFCAFFCBFFCDA0CF04D018D804D904DA047D
:40028000DC12DD05DF01E040E2C0E440E540E6C0E8C0EAC0ECC0EEC00010014003200508070908200A880E660F0811211716183019011D201E601F082210230424CC260445
:4002C000270829082E062F083210330835083604371138043C443D023E1041904B0850805110522867046D026E126F157603770282218D019208948897089E209F1DA1046A
:40030000A304A480A5A0A615A820AB04B404C0E7C2F8C47ACAE2CCE6CEF2D00CD820EE408D80E440E220EC08B520EA10EE0138203E1058045F0119200204030C0501060261
:4003400009010F1011011201160417101E0223042B0231083202331034043506360137013E143F14403641044205440246E0470C481849FF4AFF4BFF4C624DA04EF04F41DE
:40038000500C52805407580459045A045B045C245D425F016640670269106A306B106D106E106F128B078E04900195019B08AA03AE04AF0CB002B101B201B308B404B5025D
:4003C000B704BE10D280D407D804D904DB04DC44DD50DF0102A0058009800A400B200E801605171019A81E9420442208230224202540274828842D80300833013718380102
:4004000039143B403F2040044104430248044B405008531059025A145B405C205D095F8072407680801084048618870289408A488C018D08911D9340944098A499029A05A1
:400440009B819DA09EC8A180A2B0A312A404A508AC80AD04AE01B101B20AB410B720C08CC21DC4C0CA15CC63CE2FD007D20CD6FFE008E403E620E808EA05EE0205040F02A9
:400480002B062F013104350237014050410145D046104725483A49FF4AFF4BFF4DA04F045018541859045A045B045C505D245F01604062C06440654066C068C06AC06CC0C7
:4004C0006EC0811086238723881F89088A208C3F8F049002917F94019504981C991C9A239B619C339D679E0C9F18A008A404A803A918AC0CAD3CAF42B010B138B22CB31FDD
:40050000B60FB740B980BA88BB08BE01D602D713D804D904DB04DC22DD20DF0100180202030209090A090B0410A6181019411A212284234025C02610278028012A202E8019
:400540002F043148321238603A0A3D884480450146014D825605571059015C0265206640681069146A106B0170B0722282108407870488108C028D508E6093089540968077
:400580009820A104A228A590A720AD01B410C007C20FC40FCA3CCC0FCE5FD010D210D681D830E003E20CE602E820EA08001F0492060508490A060CC0141F1AC01C2022C041
:4005C000250126C028C02CC42E183020320334C03501361C3B803E013F104032410645EE46B0470C481B49FF4AFF4BFF4EF04F44500C5401580459045A045B045C225D221F
:400600005F0166C06A406B02840C867188108AAC8B0C92039409957196D0970698DC99719A229B0EA010A240A308A52CA620A743A814A980AB13B01FB130B30FB4E0B5C037
:40064000B922BA20BB08BF01C004C540C9FFCA07CBFFCC40CD20CEF0CF05D008D804D904DA04DC22DD02DF01E040E1A8E240E3200004020805040644070108200A600C0882
:400680000E040F021080112012101404150416021702180419301A401B011D041F5A2040211422102709282829012A102C202E022F4031103208330439204060410444088B
:4006C0004704488049014C204D21523055185D815E105F088008860487508A408D188E308F0295089980A208AD04B608C0F6C2EEC4FECA47CC06CE04D061D220D6F0E254AF
:40070000E480E610E820EC4085048E0495049E04AC04AF08B301B610B702E008E401E610E810EA45EE203340CC10638066019B02AB40B702D8C0EE803E105B029B02A74034
:40074000AA01CE20D640EA209610B74013027C10C408DE0100085840AB02B410C008D401E80844808804A004AC40D001E2049C80262082209610A620B220C820E220122044
:4007800016406302650166807220771081018220864087018A809A209B10AA10AB10C430D6C0D880DC80DE20E010E220E480E610EAA01080132017087B107F4080808C02F7
:4007C000B080C40EDE03E402E80410207402831087408C209780A002A710AB28C408DE04E60800260A2610341A341C04000303C08280000043000000006060006000000086
:400800008300409C9F00830000000000000B0B000000000014000116120002000000000000E0E000E0000800250018010000000000000000000000000000000000000000FC
:400840000000000000000000000000000000000000000000000000000000000000000000000000000000000000000000000000000000000000000000000000000000000078
:400880000000000000000000000000000000000000000000000000000000000000000000000000000000000000000000000000000000000000000000000000000000000038
:4008C00000000000000000000000000000000000000000000000000000000000000000000000000000000000000000000000000000000000000000000000000000000000F8
:4009000000000000000000000000000000000000000000000000000000000000000000000000000000000000000000000000000000000000000000000000000000000000B7
:0200000490006A
:0400000000004005B7
:0200000490105A
:04000000BC90ACAF55
:0200000490303A
:0200000078B0D6
:0200000490402A
:4000000000000000000000000000000000000000000000000000000000000000000000000000000000000000000000000000000000000000000000000000000000000000C0
:400040000000000000000000000000000000000000000000000000000000000000000000000000000000000000000000000000000000000000000000000000000000000080
:400080000000000000000000000000000000000000000000000000000000000000000000000000000000000000000000000000000000000000000000000000000000000040
:4000C0000000000000000000000000000000000000000000000000000000000000000000000000000000000000000000000000000000000000000000000000000000000000
:0200000490501A
:0C00000000012E16106900012E22891943
:00000001FF