:400000000080002011000000091000000910000008B5044B1A6803F53F5302331A6001F013F800BFFA46004010B5054C237833B9044B13B10448AFF300800123237010BD39
:400040005081FF1F0000000044320000084B10B51BB108490848AFF300800848036803B910BD074B002BFBD0BDE81040184700BF000000005481FF1F44320000C880FF1F06
:4000800000000000000000002DE9F047ACB062B6B34840F26B130380B2490B80B24A138003889BB2B14803800B889BB2B0490B8013889BB2AF4A13800024AF4B1C7001F075
:4000C0000BF9012001F09EF8204601F08FF800F0A7FB01F0E3FE0A2001F046F902F046F801F0C4FCA54801F025F9A54801F066F8A44801F0BDFF052001F036F9A24B1C6058
:400100000CE0E0B200F002FC38B122469F491FA802F074FC1FA801F0C3FC01347F2CF0DD0DF17B020F21182000F086FB48B99DF87B2097491FA802F061FC1FA801F0B0FCEE
:4001400002E0944801F0ACFC0DF17A022721182000F072FB48B99DF87A208F491FA802F04DFC1FA801F09CFC02E08C4801F098FC0DF179022021182000F05EFB48B99DF86B
:40018000792087491FA802F039FC1FA801F088FC02E0844801F084FC834801F081FC9DF87930572B14D057228DF879202021182000F094FB48B99DF879207C491FA802F074
:4001C0001DFC1FA801F06CFC02E0794801F068FC0DF179022021182000F02EFB48B99DF8792074491FA802F009FC1FA801F058FC02E06C4801F054FC1EAA2321182000F002
:400200001BFB48B99DF878206B491FA802F0F6FB1FA801F045FC02E0684801F041FC80222CAC04F8382D2321182000F057FB22462321182000F000FB48B99DF87820604924
:400240001FA802F0DBFB1FA801F02AFC02E05B4801F026FC48222421182000F03FFB40B9482258491FA802F0C9FB1FA801F018FC02E0554801F014FC00222E21182000F002
:400280002DFB40B9002251491FA802F0B7FB1FA801F006FC02E04C4801F002FC44222221182000F01BFB40B9442249491FA802F0A5FB1FA801F0F4FB02E0434801F0F0FBB6
:4002C0002A223021182000F009FB40B92A2241491FA802F093FB1FA801F0E2FB02E03A4801F0DEFB46223221182000F0F7FA40B9462239491FA802F081FB1FA801F0D0FBED
:4003000002E0314801F0CCFB01223321182000F0E5FA40B9012231491FA802F06FFB1FA801F0BEFB02E0284801F0BAFBA0238DF87030C0238DF8773047222E21182000F033
:40034000CDFA00252C46A8462E462F460A4B1B7803F0FF02002B43D0012A5DD0F6E700BF8481FF1F9081FF1F8C81FF1F8281FF1F8E81FF1F8081FF1F9481FF1F850900008F
:4003800025090000290B00008881FF1F483200006832000090320000B4320000D03200000C3300002C3300006833000084330000BC330000F8330000303400005034000004
:4003C0008C340000C0340000043500004035000084350000CC350000083600003C360000012000F097FE012000F0A6FE012000F0B7FE002000F082FE00F0EEFE0025794BBB
:400400001D6000F013FA01F0ADFB2A462E21182000F064FA012599E7002D00F0DB8186222E21182000F05AFA012000F067FE6E4800F0C4FE00F0F4F901F030FD0A2000F0DF
:4004400093FF0025C6E11BAB02222821182000F013FA1AAB02222A21182000F00DFA19AB02222C21182000F007FA002840F0B2819DF86C309DF86D2043EA022343F38913F3
:400480009B009BB28DF871301A0A8DF872201F443FB29DF868309DF8692043EA022343F389139B009BB28DF873301A0A8DF874201E4436B29DF864309DF8652043EA022304
:4004C00043F389139B009BB28DF875301A0A8DF8762043440FFA83F8444B1B78DBB2012B40F0C88000F034FF00F076FE4FF0000923E004EB440253004B4409F101022CA9C0
:400500000A4412F8402C194401F87C2C013309F102092CAA4A4412F8402C2CA8034403F87C2C11F87C3C43EA022212B230491FA802F064FA1FA801F0B3FAB9F1050FD8DDEA
:40054000062C40F08B80274B1A688DF85E201A68C2F307228DF85F201A68C2F307428DF860201A68120E8DF861201A6821491FA802F044FA1FA801F093FA2E220DA9022036
:4005800000F098FB00F0C4FB0DF17C0EDFF868C0BCE80F00AEE80F009CE803004EF8040BAEF800101FA801F07BFA4FF000090F4B83F800902E2201A9022000F069FB0DF150
:4005C0007C0EDFF838C0BCE80F00AEE80F009CE803004EF8040B8EF800101FA801F060FA24E000BF8881FF1F250900009281FF1F783600008C360000A0360000B836000049
:400600002CAB4B4413F8AC3C09F101022CA90A4412F8AC2C43EA022212B279491FA802F0EDF91FA801F03CFA09F10209B9F1290FE6DD9DF82E309DF82F2043EA02239DF893
:40064000302043EA02439DF8312043EA02626D491FA802F0D3F91FA801F022FA6A4800F069FE6A4800F0AAFD0DF162023121182000F0E2F80134E4B2062C40F2AB8097FB3E
:40068000F4F096FBF4FA98FBF4F40028B8BF4042BAF1000FB8BFCAF1000A0FFA8AFA002CB8BF644224B200B201F0D0FE06460F464DA3D3E9002301F02FFF02460B4630468A
:4006C000394601F029FF8046894649A3D3E900233046394601F020FF02460B464046494601F066FD44A3D3E9002301F063FD02F025F980B2464B1880504601F0A7FE064601
:400700000F4639A3D3E9002301F006FF02460B463046394601F000FF8046894634A3D3E900233046394601F0F7FE02460B464046494601F03DFD30A3D3E9002301F03AFD5C
:4007400002F0FCF880B2334B1880204601F07EFE06460F4624A3D3E9002301F0DDFE02460B463046394601F0D7FE8046894620A3D3E900233046394601F0CEFE02460B468F
:400780004046494601F014FD1BA3D3E9002301F011FD02F0D3F880B21F4B18800DF163022F21182000F048F89DF8633003F01F038DF86330012B07D90122184B1A700024E5
:4007C000A0462646274605E00027144B1F703C46B8463E46114B1B7813F0FF0F7FF433AEB4E500BFAFF300802D431CEBE2361A3F9A9999999999D93F0000000000207940FE
:40080000D0360000E036000085090000250900009081FF1F8C81FF1F8481FF1F9381FF1F08B500F033FE002008BD00BF08B500F041FE002008BD00BFF8B506460D46174676
:40084000002100F0F9FF044678B9284601F086F8044650B90121304601F02EF8044620B901F0A8F8387001F05DF801F05BF8201C18BF0120F8BD00BF2DE9F04180460C4628
:4008800016461F46002100F0D7FF0546F0B944F0800001F063F80546C0B90121404601F00BF8054650B111E0C4EB0608012001F081F807F80800013CE4B200E03446012C56
:4008C000F2D8013E002001F075F8B85501F02AF8281C18BF0120BDE8F08100BF70B50D461646002100F0A8FF044640B9284601F035F8044618B9304601F030F8044601F000
:4009000011F8201C18BF012070BD00BF10B5002100F092FF044601F005F80CB9012010BD002010BD38B5114C224631211820FFF783FF0F4B1870237813F0400F12D00D4D90
:400940000D4C0FCC28606960AA60EB6020682861A288A379AA82AB75284601F0A1F80122064B1A700122064B1A7038BDCA81FF1FCC81FF1F9881FF1FF43600009281FF1FAB
:400980009381FF1F38B500F063FC5C4B1B7823B103F0FF02012A27D038BD594B1B889BB2002B00F0AA80564A538801339BB25380B3F5FA6F40F2A18014461288514D92B2CE
:4009C0005149284602F01AF8284601F069F80023638023889BB2022B02D10122474B1A700022474B1A8038BD484A13889BB2013B9BB2138046490B889BB2013B9BB20B8092
:400A000044490B889BB2013B9BB20B8013889BB283B9414B1B889BB2B3F5B67F05D200F0ABFBC043C0B200F09BFB3B4B1B889BB2364A1380384B1B889BB2B3F5B67F02D3A2
:400A4000012000F08DFB324B1B889BB283B9334B1B889BB2B3F5B67F05D200F079FBC043C0B200F069FB2D4B1B889BB2284A13802A4B1B889BB2B3F5B67F02D3012000F050
:400A80005BFB244B1B889BB283B9254B1B889BB2B3F5B67F05D200F049FBC043C0B200F039FB1F4B1B889BB21A4A13801C4B1B889BB2B3F5B67F02D3012000F02BFB194A70
:400AC0001368013313600E4B1B889BB2ABB10C4A538801339BB25380B3F5FA6F0DD914461288084D92B20849284601F087FF284600F0D6FF00232380638038BD9481FF1FEC
:400B00006C81FF1F9881FF1F0C3700008081FF1F8E81FF1F8281FF1F8C81FF1F9081FF1F8481FF1F8881FF1F38B501F0C9FA094A13889BB201339BB21380074D074C0FCCAD
:400B400028606960AA60EB6023882B82284600F0A7FF38BD6C81FF1F9881FF1F2437000010B50446002000F0BBFF204601F03AF801F010F810F0080FFAD001F09DF80446D5
:400B8000012000F0ADFF204610BD00BF10B50446002000F0A5FF204601F024F8002001F021F800F0F7FF10F0010FFAD001F084F801F082F80446012000F092FF204610BD6F
:400BC0002DE9F04383B006460C4617469846002000F086FF64B2002511E02146082CA8BF0821C9B206EBC50001F0E2F800F0D2FF10F0010FFAD0083C64B201356DB2002C42
:400C0000EBDC01F0E5F801F089F80026009601964FFA88F820E0C146B8F1080FA8BF4FF008095FFA89F1684601F0C2F800F0B2FF10F0010FFAD0002406E004EBC60501F0B7
:400C40003BF878550134E4B24C45F6DBA8F108084FFA88F8013676B2B8F1000FDBDC012000F03EFF01F0B4F801F058F801F076F803B0BDE8F08300BF08B50520FFF786FF95
:400C800008BD00BF08B50620FFF76AFF08BD00BF10B582B003248DF80440030A8DF805308DF8060013460A46214601A8FFF788FF02B010BD2DE9F04182B000AF05468846BB
:400CC0001446FFF7DFFF012000F064FBE61C04F10A0323F00703ADEB030D02238DF800302B0A8DF801308DF80250224641460DF1030001F06FFE002307F1080202F8013D46
:400D0000F1B26846FFF75CFF0837BD46BDE8F08108B5FFF7B1FF10F0010FFAD108BD00BFFEE700BFF0B40022174611E050F82760F3B226F0FF0608E001EB420511F812403A
:400D40006D78A5550132013BDBB2002BF4D10137212FEBD9F0BC70470A4B1B78DBB203F00701094A11701B09013213700822074B1A708023064A1370583213704422054B9C
:400D80001A707047CF0100496E5800403D510040005B00407658004008B50A46002101F024FE08BD08B501F015FE08BD38B50024394B1C80502202331A700B2202331A8072
:400DC0001823364A137019250232158002321370EF21023211800232137045F6BF5102321180023213704EF65F222D4B1A8002331D7004222B492C48FFF7D4FF02222B4B9A
:400E00001A7008224FF040231A70032103F500731970274B1B78DBB226490B70264B1A8041F25122023B1A800CE0244B1B7803F0010343EA440404F003044FF4F07001F0CD
:400E4000A3F9013D0DB1032CEFD115B90320FFF767FF1B4B4FF480721A8007221A70002218490A704820023108701A700222033B1A7004220A331A70134A137843F03F03E6
:400E80001370013A137843F001031370013A137843F08003137038BD804000408640004094400040A8060048004100400043004008010049A1460040224200402542004063
:400EC0000440004006400040A243004038B572B6394A137843F00403137000240BE0374863001A19510001440A46098AD068FFF753FF0134E4B2092CF1D900240CE02F4875
:400F0000A20011194B000344B3F85020D96C986CFFF748FF0134E4B2012CF0D928494FF09040FFF7FFFE0A24264B1C70264A137843F0020313701032137843F00203137015
:400F4000224D2B7843F040032B70A2F58632513A137843F01003137008221D491D48FFF721FF22461C491D48FFF71CFF08221C491C48FFF717FF22461B491C48FFF712FF9C
:400F800022461B491B48FFF70DFF1B4A137843F008031370194C61232370FFF707FF812323700122164B1A70FFF7D6FE0E2229461448FFF7F7FE38BDE84600403837000010
:400FC000880000488358004003500140A043004074060048025100407C060048C0510040880600481251004090060048205100409C060048305100402243004000480040FF
:4010000004000840B043004008B501F0B7FC03680C2B00D1FEE7FEE708B5094B1A681044084BC31A802B02DC054B186005E001F0A5FC0C2303604FF0FF32104608BD00BFD8
:40104000CC80FF1F5882FF1F08B5104E104D16E029686B68AC68002204E051F8040B43F8040B0432A242F8D1E868002203E0002143F8041B04328242F9D11035013E002E57
:40108000E6D101F081FCFEF7FFFFFEE701000000F037000008B5104A104B1A60104A136843F40073136000230AE0032B03D80D4A52F8231000E00C490C4A42F82310013317
:4010C0002F2BF2D90A4B1A780A4B1A70074A0A4B1A60FFF7FBFE08BD0004FA050CED00E014ED00E000000000091000000080FF1FBC760040C080FF1F08ED00E0044A13783F
:4011000003F0FD03400000F0020018431070704720510040044A137803F07F03C001C0B218431070704700BF30510040014B1878C009704731510040044A137803F0BF0308
:40114000800100F0400018431070704730510040024B1878C0F38010704700BF31510040044A137803F0DF03400100F0200018431070704730510040024B1878C0F34010E1
:40118000704700BF31510040014B1B689864704708ED00E04001C0B2014B1870704700BF02E400E00422014B1A60704700E100E00422014B1A60704780E100E010B5044686
:4011C000FFF7F6FF2046FFF7DFFF0720FFF7E2FFFFF7E8FF10BD00BF08B5FFF7E9FF0248FFF7D2FF08BD00BF09100000044A137803F0FB03800000F004001843107070474A
:40120000C0510040044A137803F0F703C00000F00800184310707047C0510040084A137843F0010313701032137843F00103137002F64D32137843F001031370704700BFAC
:40124000A3430040014B1870704700BF034F0040014B1878704700BF034F0040014B1880704700BF044F0040014B1880704700BF064F004008B5154A137803F0010313708B
:401280000232137803F0FC031370114B1A7802F0CF021A701A7842F030021A701A7802F0F0021A701A7842F00F021A70094A137843F0010313706320FFF7D0FF6320FFF787
:4012C000D3FF0820FFF7BEFF08BD00BF004F00400B4F0040014F004008B5054B1B7823B9FFF7C8FF0122024B1A70FFF797FF08BD7081FF1F024B1B68C3F88400704700BFEC
:4013000008ED00E04001C0B2014B1870704700BF11E400E04FF40032014B1A60704700BF00E100E04FF40032014B1A60704700BF80E100E010B50446FFF7F4FF2046FFF74E
:40134000D9FF0720FFF7DEFFFFF7E4FF10BD00BF08B5FFF7E7FF0248FFF7CCFF08BD00BF0910000001BE704710B5044605E0084B186800F009FFA4F50044B4F5004FF6D81D
:40138000034B586800FB04F000F0FEFE10BD00BFD080FF1F08B5034B1B7A00FB03F000F0F3FE08BDD080FF1F70B504460E46074B1D681F2802D90020FFF7D4FF04F01F04EC
:4013C000103455F8240045F8246070BD08ED00E038B504460D46072902D90020FFF7C2FF1F2C02D90020FFF7BDFF04F01F0000F1604000F564406D01EDB2057038BD00BF9E
:4014000010B50222114B1A7081220E3B1A70082202331A70042211331A70002401331C704FF400420A4B1A6007210F20FFF7D0FF08490F20FFF7B8FF1022074B1A70074BA9
:401440001C70074B1C70074B1C7010BDD649004080E100E069150000CD81FF1FDD81FF1FD081FF1FD181FF1F08B500F095FE064A137843F0040313701032137843F0040393
:40148000137000F08DFE08BDA543004008B5074B1B7823B9FFF7B4FF0122044B1A70FFF7E3FF4FF40042024B1A6008BD7181FF1F00E100E02DE9F8434FF40049214BC3F860
:4014C0000090DFF8A08098F800301F4CE3701F4F3B7823711E4E3378637130783B7843EA002001301B4D2B7803F0FE032B7080B200F04AFE00F050FE174A137803F0FB034F
:4015000013701032137803F0FB03137000F048FE2B7843F002032B70E37888F80030E37888F8003023793B70637933702B7803F0EF032B70094BC3F800901022084B1A708E
:40154000BDE8F88380E100E0E080FF1FDB490040DC490040D6490040A543004080E200E0CD81FF1FCA49004038B5A54B1C78A54B1B7813F0400F00F03A81E4B214F0010FA0
:4015800000F01D819F4B1B78453B052B00F21481DFE813F006008200120112010600DF0004F0DF0504F00A04082C42D1954B1B78DBB2452B35D1944B1B7813F0FF0F10D092
:4015C000924B1B681B78DBB2914A137004228C4B1A7001228F4B1A7046228A4B1A702C46EDE08D4B1B7813F0020F0DD08B4A137843F00A0313706022824B1A704FF400421C
:40160000874B1A602C46DAE0864A137843F0100313701022844B1A700422023B1A702C46CDE00022764B1A704A22764B1A702C46C5E00A2C2BD1794A137843F0A003137063
:40164000754B1B7813F0020F14D06E4B1B7813F0080F01D0092300E00A23704A11780B4313706022674B1A704FF400426C4B1A602C46A4E06B4A137843F0100313701022F6
:40168000694B1A700422023B1A702C4697E00020FFF768FE2C4692E014F0020F36D15D4B1A78D2B2584B1B78DBB29A4210D2594A1378DBB255490968CB5CDBB254490B70C5
:4016C00004214F4B197013780133DBB2137076E0514B1B7813F0020F0CD0504A137843F00A0313706022474B1A704FF400424C4B1A6064E04B4A137843F0100313701022E3
:40170000494B1A700422023B1A7058E0424B1B7813F0020F0CD0414A137843F09A0313706022384B1A704FF400423D4B1A6046E03C4A137843F01003137010223A4B1A7096
:401740000422023B1A70354A137843F09003137035E0364A1378DBB2354908682C490978C9B2C15413780133DBB213701278D2B2304B1B78DBB29A4203D21022204B1A70B8
:401780001DE0254B1B7813F0020F0CD0234A137843F00903137060221A4B1A704FF400421F4B1A600BE01F4A137843F0100313700022134B1A7002E00020FFF7D3FD14F027
:4017C000200F1CD00F4B1B7813F0080F01D0012300E00223114A11780B431370114A137803F0EF0313701022064B1A7038BD054B1B7813F0100F02D11022024B1A7038BDF2
:40180000D7490040CD81FF1FD281FF1FD481FF1FD8490040D181FF1FDC81FF1FDD81FF1F80E100E0D6490040D9490040D081FF1FD881FF1FDE81FF1F1A4B1B78DBB2102B0B
:4018400029D1194B1B7813F0080F26D14FF40042164B1A604000C0B229B140F001004922104B1A7002E045220E4B1A70104B1870012201331A700F4B1B7813F0010FFAD03F
:401880000C4B1B7803F00A030A2B08D11022054B1A700320704702207047012070470020704700BFCD81FF1FD949004080E100E0D8490040D7490040164B1B7813F0040F29
:4018C00023D04000C0B229B140F001004922124B1A7002E04522104B1A70104B1870122201331A700422023B1A700D4B1B7813F0010FFAD00A4B1B7803F00A030A2B06D13A
:401900001022054B1A7003207047022070470020704700BFD9490040CD81FF1FD8490040D74900400A4B1B7813F0040F0ED01023074A13700421023A1170064A1370064BDA
:401940001B7813F0210FFAD00020704702207047D9490040CD81FF1FD7490040114B1B7813F0040F1BD0104B18700422013B1A7046220E4B1A700E4B1B7813F0010FFAD026
:401980000B4B1B7813F0020F04D16022074B1A70002070476022054B1A70032070470220704700BFD9490040D8490040CD81FF1FD7490040114B1B7813F0040F1BD0104B78
:4019C0001B78DBB2492B05D100220E4B1A704A220B4B1A700B4B1B7813F0010FFAD00A4B1B78DBB218B11021064A117004E06021034A117000E0002318467047D949004079
:401A0000CD81FF1FD7490040D84900407222084B1A702022013B1A700622A3F5B0731A70472210331A70002203F253131A7070478965004010B500F0AFFB04460A4A1378E9
:401A400043F020031370013A137843F0100313700332137843F01003137000F033F8204600F09EFB10BD00BF9965004008B5054B1B7823B9FFF7CAFF0122024B1A70FFF776
:401A8000D9FF08BD7281FF1F034B1B7813F0040FFAD1024B187070476B6500404B65004038B5074B1B782BB938BDFFF7EDFF0134A4B201E005460024285D0028F5D138BD5A
:401AC0007281FF1F054A137843F0040313701032137843F004031370704700BFA2430040044A137803F0EF03000100F01000184310707047205100400222014B1A60704776
:401B000000E100E00122014B1A60704700E100E008B500F041FB0C4A137843F0200313700132137843F0100313700332137843F01003137000F034FB00F05EFAFFF7DCFF98
:401B4000FFF7E0FF08BD00BF946400400222014B1A60704780E100E00122014B1A60704780E100E008B500F017FB094A137803F0EF0313700332137803F0EF03137000F0F4
:401B80000FFB00F047FAFFF7E1FFFFF7E5FF08BD9564004010B5FFF7D9FF064B1C78064A137803F009031C4300231370FFF7A4FF204610BD65640040E081FF1F10B5FFF7D6
:401BC000CBFF064B1B78064A147804F040041C4300231370FFF796FF204610BD686400401B82FF1F10B504462B4B1A7802F0FF0312B1013BDBB200E03123284A1278D2B24E
:401C00009342F1D0FFF7A2FF254B1978254A137803F009030B4313701F4B1A78D2B21F4B1B78DBB29A4207D11E4B1B7813F0040F02D01D4B1C702CE0184A13780133DBB25C
:401C400013701378DBB2312B02D90022134B1A70124B1A78D2B2104B1B78DBB29A420ED10D4A13780133DBB213701378DBB2312B02D90022084B1A7001220C4B1A70074B15
:401C80001B78DBB20A4AD4540A4A137843F004031370FFF731FF10BD1C82FF1F1A82FF1F65640040E081FF1F446400401682FF1FE481FF1F8564004010B5FFF74DFF134B4C
:401CC0001A78D2B2124B1B78DBB29A4214D0114B1B7813F0FF0F0CD10C4A13780133DBB213701378DBB2312B06D90022074B1A7002E00022074B1A70044B1B78DBB2064A9F
:401D0000D45CE4B2FFF7FEFE204610BD1982FF1F1782FF1F1882FF1F2082FF1F08B501E0094B1B78094B1B7813F0200FF8D1FFF713FF0023064A1370064A1370064A1370C5
:401D4000FFF7E0FE08BD00BF54640040686400401882FF1F1982FF1F1782FF1F08B500F01BFA0E4B1A7842F001021A701A7802F0FE021A7000F014FAFFF7E8FE0023084A16
:401D80001370084A1370084A1370084A137803F0FB031370FFF7B0FE08BD00BF946400401682FF1F1C82FF1F1A82FF1F8564004070B506460C46002506E0705DFFF712FF4E
:401DC0000135EDB2013CE4B2002CF6D170BD00BF08B501E00A4B1B780A4B1B7813F0200FF8D100F0D9F9084B1A7842F001021A701A7802F0FE021A7000F0D2F908BD00BF40
:401E000054640040686400409464004010B50F22174B1A70174C0223236007210120FFF7D7FA15490120FFF7BFFA0123236007210020FFF7CDFA11490020FFF7B5FAFFF77A
:401E4000C7FF00240E4B1C700E4B1C700E4B1C700E4B1C700E4B1C700E4B1C70FFF79AFEFFF7ACFE0C4B1C70202203331A7010BD8464004080E100E0B91E0000591F000082
:401E80001882FF1F1982FF1F1782FF1F1682FF1F1C82FF1F1A82FF1F8564004008B5054B1B7823B9FFF7B2FF0122024B1A70FFF72FFE08BD7481FF1F28E01F4B19781F4A21
:401EC000137803F009030B431370137813F0040F24D01B4B1B7813F0FF0F0CD1194A13780133DBB213701378DBB2312B06D90022144B1A7002E00022114B1A70114B1B78A2
:401F0000DBB2114AD35CDBB2104A13700D4B1A78D2B20F4B1B78DBB29A42CED1094B1A78D2B20B4B1B78DBB29A4204D1094A137803F0FB031370704765640040E081FF1F9B
:401F40001682FF1F1C82FF1FE481FF1F446400401A82FF1F85640040204B1A7820490B7803F0400313430B7032E01E4B1A78D2B21D490B780133DBB20B700B78DBB2312B8F
:401F800002D90021184B1970174B1978C9B2174B1B78DBB299420ED114490B780133DBB20B700B78DBB2312B02D900210F4B197001210F4B19700C4B1B78DBB20D49CA5438
:401FC000064B1A7806490B7803F0400313430B70034B1B7813F0200FC7D17047686400401B82FF1F546400401782FF1F1982FF1F1882FF1F2082FF1F054A137843F002030A
:4020000013701032137843F002031370704700BFA2430040054A137803F0FD0313701032137803F0FD031370704700BFA2430040024B1B68C3F88800704700BF08ED00E06E
:402040004001C0B2014B1870704700BF12E400E04FF48022014B1A60704700BF00E100E04FF48022014B1A60704700BF80E100E010B50446FFF7F4FF2046FFF7D9FF0720F6
:40208000FFF7DEFFFFF7E4FF10BD00BF084A137843F0020313701032137843F00203137002F65932137843F001031370704700BFA3430040014B1870704700BF0F4F00407C
:4020C000014B1878704700BF0F4F0040014B1880704700BF104F0040014B1880704700BF124F004008B51E4A137803F0010313701C4B1A7802F0FC021A701A7802F0F302E6
:402100001A701A7842F00C021A701A7802F07F021A701A7842F080021A701A78D2B21A7009331A7802F0CF021A701A7842F030021A701A7802F0F0021A701A7842F00F024A
:402140001A70094A137843F001031370FF20FFF7BDFFFF20FFF7C0FF0820FFF7ABFF08BD0C4F00400E4F00400D4F004008B5054B1B7823B9FFF7B6FF0122024B1A70FFF720
:4021800085FF08BD7581FF1F0230800803D000BF01380046FCD17047EFF3108072B6704780F31088704700BF81F0004102E000BF83F0004330B54FEA41044FEA430594EA36
:4021C000050F08BF90EA020F1FBF54EA000C55EA020C7FEA645C7FEA655C00F0E2804FEA5454D4EB5555B8BF6D420CDD2C4480EA020281EA030382EA000083EA010180EA72
:40220000020281EA0303362D88BF30BD11F0004F4FEA01314FF4801C4CEA113102D0404261EB410113F0004F4FEA03334CEA133302D0524263EB430394EA050F00F0A780BE
:40224000A4F10104D5F1200E0DDB02FA0EFC22FA05F2801841F1000103FA0EF2801843FA05F359410EE0A5F120050EF1200E012A03FA0EFC28BF4CF0020C43FA05F3C0185A
:4022800051EBE37101F0004507D54FF0000EDCF1000C7EEB00006EEB0101B1F5801F1BD3B1F5001F0CD349085FEA30004FEA3C0C04F101044FEA445212F5800F80F09A8087
:4022C000BCF1004F08BF5FEA500C50F1000041EB045141EA050130BD5FEA4C0C404141EB010111F4801FA4F10104E9D191F0000F04BF01460020B1FA81F308BF2033A3F1C7
:402300000B03B3F120020CDA0C3208DD02F1140CC2F10C0201FA0CF021FA02F10CE002F11402D8BFC2F1200C01FA02F120FA0CFCDCBF41EA0C019040E41AA2BF01EB045129
:40234000294330BD6FEA04041F3C1CDA0C340EDC04F11404C4F1200220FA04F001FA02F340EA030021FA04F345EA030130BDC4F10C04C4F1200220FA02F001FA04F340EA23
:402380000300294630BD21FA04F0294630BD94F0000F83F4801306BF81F480110134013D4EE77FEA645C18BF7FEA655C29D094EA050F08BF90EA020F05D054EA000C04BF5A
:4023C0001946104630BD91EA030F1EBF0021002030BD5FEA545C05D14000494128BF41F0004130BD14F580043CBF01F5801130BD01F0004545F0FE4141F470014FF0000039
:4024000030BD7FEA645C1ABF194610467FEA655C1CBF0B46024650EA013406BF52EA033591EA030F41F4002130BD00BF90F0000F04BF0021704730B54FF4806404F13204C2
:402440004FF000054FF0000150E700BF90F0000F04BF0021704730B54FF4806404F1320410F0004548BF40424FF000013EE700BF42004FEAE2014FEA31014FEA02701FBF3D
:4024800012F07F4393F07F4F81F06051704792F0000F14BF93F07F4F704730B54FF4607401F0004521F0004120E700BF50EA010208BF704730B54FF000050AE050EA01026D
:4024C00008BF704730B511F0004502D5404261EB41014FF4806404F132045FEA915C3FF4DCAE4FF003025FEADC0C18BF03325FEADC0C18BF033202EBDC02C2F1200300FAAE
:4025000003FC20FA02F001FA03FE40EA0E0021FA02F11444C1E600BF70B54FF0FF0C4CF4E06C1CEA11541DBF1CEA135594EA0C0F95EA0C0F00F0DEF82C4481EA030621EAF8
:402540004C5123EA4C5350EA013518BF52EA033541F4801143F4801338D0A0FB02CE4FF00005E1FB02E506F00042E0FB03E54FF00006E1FB03569CF0000F18BF4EF0010E19
:40258000A4F1FF04B6F5007F64F5407404D25FEA4E0E6D4146EB060642EAC62141EA55514FEAC52040EA5E504FEACE2EB4F1FD0C88BFBCF5E06F1ED8BEF1004F08BF5FEADE
:4025C000500E50F1000041EB045170BD06F0004646EA010140EA020081EA0301B4EB5C04C2BFD4EB0C0541EA045170BD41F480114FF0000E013C00F3AB8014F1360FDEBF33
:40260000002001F0004170BDC4F10004203C35DA0C341BDC04F11404C4F1200500FA05F320FA04F001FA05F240EA020001F0004221F0004110EBD37021FA04F642EB0601AF
:402640005EEA430E08BF20EAD37070BDC4F10C04C4F1200500FA04F320FA05F001FA04F240EA020001F0004110EBD37041F100015EEA430E08BF20EAD37070BDC4F120056D
:4026800000FA05F24EEA020E20FA04F301FA05F243EA020321FA04F001F0004121FA04F220EA020000EBD3705EEA430E08BF20EAD37070BD94F0000F0FD101F0004640005C
:4026C00041EB010111F4801F08BF013CF7D041EA060195F0000F18BF704703F00046520043EB030313F4801F08BF013DF7D043EA0603704794EA0C0F0CEA135518BF95EA7E
:402700000C0F0CD050EA410618BF52EA4306D1D181EA030101F000414FF0000070BD50EA410606BF1046194652EA430619D094EA0C0F02D150EA013613D195EA0C0F05D17C
:4027400052EA03361CBF104619460AD181EA030101F0004141F0FE4141F470014FF0000070BD41F0FE4141F4780170BD70B54FF0FF0C4CF4E06C1CEA11541DBF1CEA13555B
:4027800094EA0C0F95EA0C0F00F0A7F8A4EB050481EA030E52EA03354FEA013100F088804FEA03334FF0805545EA131343EA12634FEA022245EA111545EA10654FEA00263D
:4027C0000EF000419D4208BF964244F1FD0404F5407402D25B084FEA3202B61A65EB03055B084FEA32024FF480104FF4002CB6EB020E75EB030E22BFB61A754640EA0C0097
:402800005B084FEA3202B6EB020E75EB030E22BFB61A754640EA5C005B084FEA3202B6EB020E75EB030E22BFB61A754640EA9C005B084FEA3202B6EB020E75EB030E22BFBD
:40284000B61A754640EADC0055EA060E18D04FEA051545EA16754FEA06164FEAC30343EA52734FEAC2025FEA1C1CC0D111F4801F0BD141EA00014FF000004FF0004CB6E717
:4028800011F4801F04BF01430020B4F1FD0C88BFBCF5E06F3FF6AFAEB5EB030C04BFB6EB020C5FEA500C50F1000041EB045170BD0EF0004E4EEA113114EB5C04C2BFD4EBAC
:4028C0000C0541EA045170BD41F480114FF0000E013C90E645EA060E8DE60CEA135594EA0C0F08BF95EA0C0F3FF43BAF94EA0C0F0AD150EA01347FF434AF95EA0C0F7FF4E3
:4029000025AF104619462CE795EA0C0F06D152EA03353FF4FDAE1046194622E750EA410618BF52EA43067FF4C5AE50EA41047FF40DAF52EA43057FF4EBAE12E74A0011D253
:4029400012F5001211D20DD56FF47873B3EB62520ED44FEAC12343F0004343EA505323FA02F070474FF00000704750EA013002D14FF0FF3070474FF000007047014B1868B3
:40298000704700BF4881FF1F0E4B70B51E460E4C0025E41AA410A54204D056F8253098470135F8E700F012FF084B094C1E46E41AA4100025A54204D056F8253098470135FE
:4029C000F8E770BDD8370000D8370000D8370000E037000010B5431E0A44914204D011F8014B03F8014FF8E710BD03460244934202D003F8011BFAE7704700000EB400B5C4
:402A00004FF402719CB0ADF814106FF00041049107914FF6FF711DAB02900690084853F8042BADF81610006802A9019300F064F8029B00221A701CB05DF804EB03B070470E
:402A40004881FF1F2DE9F0478E6882469E420C46914698463ED88A8912F4906F3AD02568096902236F1A656905EB450595FBF3F57B1C43449D4238BF1D4653050FD5294616
:402A800000F040FB064698B13A462169FFF7A2FFA38923F4906343F08003A38113E02A4600F08EFB064670B92169504600F0DEFA0C23CAF80030A3894FF0FF3043F040033B
:402AC000A381BDE8F08726613E44266046466561ED1BA560464528BF464649463246206800F0A8FAA36800209B1BA36023681E442660BDE8F08700002DE9F04F9DB00393DE
:402B00008B8980461C060D4616460DD50B695BB9402100F0F7FA2860286118B90C23C8F80030CDE040236B610023099320238DF82930DFF89CB130238DF82A3037463C462C
:402B400014F8013B1BB9B7EB060910D003E0252BF9D02746F3E74B46324629464046FFF771FF013000F0A780099B4B4409933B78002B00F0A08000234FF0FF320493079338
:402B8000059206938DF853301A930126052221784E4800F041FA671C049B38B14B4A3C46801A06FA00F018430490EFE7D90644BF20228DF853201A0744BF2B228DF8532092
:402BC00022782A2A03D0079A00210A200BE0039A111D12680391002A10DA524243F00200079204900BE027463B780134303B092B03D800FB02320121F5E701B107923B7875
:402C00002E2B1ED17B782A2B0AD1039B02371A1D1B680392002BB8BF4FF0FF33059310E0002319460593781C0A2407463A780130303A092A03D804FB01210123F5E703B10F
:402C4000059103223978224800F0E6F940B14023CBEB000003FA00F0049B013718430490397806221B487E1C8DF8281000F0D4F988B1194B33B9039B073323F007030833E9
:402C8000039314E003AB00932A46144B04A94046AFF3008007E003AB00932A460F4B04A9404600F093F8B0F1FF3F824603D0099B5344099342E7AB895B0601D4099801E01F
:402CC0004FF0FF301DB0BDE8F08F00BF963700009C370000A037000000000000452A00002DE9F04791461F460A698B6806469342B8BF1346C9F8003091F843200C46DDF8EC
:402D0000208012B10133C9F800302368990642BFD9F800300233C9F80030256815F0060510D104F1190A07E00123524639463046C04701301AD00135E368D9F800209B1A42
:402D40009D42F1DB94F843302268003318BF012392060FD5E118302081F843005A1C94F845102244023382F8431003E04FF0FF30BDE8F08704F1430239463046C0470130DD
:402D8000F4D02268D9F80050E36802F00602042A08BF5D1B2269A3680CBF25EAE57500259342C4BF9B1AED184FF000091A344D4509D00123224639463046C0470130D5D092
:402DC00009F10109F3E70020BDE8F0872DE9F04317460A7E85B06E2A984606460C460C9B01F1430E00F0AE8011D8632A22D009D8002A00F0BB80582A40F0CA8081F84520C2
:402E0000834955E0642A1ED0692A1CD0C0E0732A00F0B08009D86F2A2ED0702A40F0B8800A6842F020020A603EE0752A24D0782A3AD0ADE01A6801F14205111D19601368C8
:402E400084F84230A8E021681A6811F0800F02D0111D196008E011F0400F02F10401196002D0B2F9003000E01368002B3CDA2D225B4284F8432037E021681A6811F0800F59
:402E800002D0111D196007E011F0400F02F10401196001D0138800E01368227E5C496F2A14BF0A2208221BE078225A4984F845202268186812F0800F00F104051D6003D124
:402EC000550601D5038800E00368D00744BF42F0200222601BB9226822F0200222601022002084F8430001E049490A226568002DA56008DB206820F0040020602BB9002D48
:402F00007DD175460CE0002B79D07546B3FBF2F002FB1033CB5C05F8013D03460028F5D1082A0BD12368DA0708D5236962689A42DEBF302305F8013C05F1FF35C5EB0E0366
:402F400023612EE008681A6810F0800F496903D0101D1860136808E010F0400F02F104001860136801D0198000E0196000232361754616E01A68111D1960156800216268CC
:402F8000284600F049F808B1401B6060636804E004F1420584F8422001232361002384F84330CDF800803B4603AA21463046FFF797FE013002D14FF0FF3026E023692A46CC
:402FC00039463046C0470130F5D023689B0710D5002504F1190907E001234A4639463046C0470130E7D00135E368039A9B1A9D42F2DBE068039B9842B8BF184605E00B7896
:4030000004F1420584F842308AE705B0BDE8F083A7370000B837000010B5C9B202449042034605D01C7801308C42F8D1184610BD002010BD884210B501EB020301D8421EB8
:403040000BE09842FBD28118D21AD34204D013F8014D01F8014DF8E710BD994204D011F8014B02F8014FF8E710BD000038B50546002944D051F8043C0C1F002BB8BFE41843
:4030800000F0D4F81E4A1368114613B96360146030E0A3420DD92268A018834201BF18685B681218226063600C6023E0A24203D813465A68002AF9D118681918A1420BD116
:4030C0002168014458188242196013D110685268014419605A600DE002D90C232B6009E021686018824201BF106852680918216062605C602846BDE8384000F098B838BDC5
:403100007C81FF1F70B5CD1C25F0030508350C2D38BF0C25002D064601DBA94202D90C23336046E000F082F8234B1C681A462146A1B10B685B1B0ED40B2B03D90B60CC1807
:40314000CD501EE08C420BBF63684B681360636018BF0C4615E00C464968E9E7174C23681BB9304600F052F820602946304600F04DF8431C18D0C41C24F00304A0420DD1E9
:403180002560304600F053F804F10B00231D20F00700C31A0ED05A42E25070BD211A304600F034F80130EBD10C233360304600F03EF8002070BD00BF7C81FF1F7881FF1F76
:4031C000F8B5074615460E4621B91146BDE8F840FFF798BF1AB9FFF749FF2846F8BD00F027F885420ED929463846FFF78BFF044650B131462A46FFF7EDFB31463846FFF772
:4032000035FF01E03046F8BD2046F8BD38B5064C0023054608462360FDF7FEFE431C02D1236803B12B6038BD5482FF1F7047704751F8040C0028BEBF091851F8043CC018F2
:4032400004387047000000004465766963652030782530325820697320636F6E6E65637465640D0A0000000057484F20414D2049205245473A20307825303258205B457862
:403280007065637465643A20307833335D0D0A004572726F72206F6363757272656420647572696E672049324320636F6D6D0D0A0000000053544154555320524547495354
:4032C0005445523A203078253032580D0A0000004572726F72206F6363757272656420647572696E672049324320636F6D6D20746F2072656164207374617475732072659D
:403300006769737465720D0A00000000434F4E54524F4C20524547495354455220313A203078253032580D0A000000004572726F72206F6363757272656420647572696E36
:40334000672049324320636F6D6D20746F207265616420636F6E74726F6C20726567697374657220310D0A000D0A57726974696E67206E65772076616C7565732E2E0D0AE7
:4033800000000000434F4E54524F4C2052454749535445522031207375636365737366756C6C79207772697474656E2061733A203078253032580D0A000000004572726F20
:4033C00072206F6363757272656420647572696E672049324320636F6D6D20746F2073657420636F6E74726F6C20726567697374657220310D0A0000434F4E54524F4C20D3
:4034000052454749535445522031206166746572206F7665727772697465206F7065726174696F6E3A203078253032580D0A0000434F4E54524F4C2052454749535445520E
:4034400020343A203078253032580D0A000000004572726F72206F6363757272656420647572696E672049324320636F6D6D20746F207265616420636F6E74726F6C2072BA
:4034800065676973746572340D0A0000434F4E54524F4C2052454749535445522034206166746572206265696E6720757064617465643A203078253032580D0A000000007E
:4034C000434F4E54524F4C2052454749535445522035204649464F20454E41424C45207375636365737366756C6C79207772697474656E2061733A203078253032580D0A68
:40350000000000004572726F72206F6363757272656420647572696E672049324320636F6D6D20746F2073657420636F6E74726F6C20726567697374657220350D0A000036
:40354000434F4E54524F4C205245474953544552203520425950415353204D4F4445207375636365737366756C6C79207772697474656E2061733A203078253032580D0ABB
:4035800000000000434F4E54524F4C2052454749535445522033204F56455252554E20494E5420454E41424C45207375636365737366756C6C79207772697474656E2061FC
:4035C000733A203078253032580D0A00494E543120434F4E46205245474953544552203052203644207375636365737366756C6C79207772697474656E2061733A203078D5
:40360000253032580D0A0000494E543120544853205245474953544552207375636365737366756C6C79207772697474656E2061733A203078253032580D0A00494E54316A
:40364000204455524154494F4E205245474953544552207375636365737366756C6C79207772697474656E2061733A203078253032580D0A000000004461746120777269F5
:4036800074653A202564200D0A00000054696D657374616D70203A202564200D0A000000456E64205772697465206F6E20454550524F4D0D0A000000456E64205265616438
:4036C000206F6E20454550524F4D0D0A000000004461746120726561643A2025640D0A0054696D657374616D70203A20256C64200D0A00004F7665727468726573686F6C3F
:4037000064206576656E74200D0A0000436F756E74657220427574746F6E3A202564200D0A000000427574746F6E2050726573736564200D0A000000035B00402443004028
:4037400040000000C84900401900004F00401800405100403000F0510040100000000140000480040140800B00140140000800400140000A004C01400002005001402000A9
:4037800060520040EC050048060000040140F405004880004300232D302B2000686C4C00656667454647003031323334353637383941424344454600303132333435363762
:4037C000383961626364656600000000F8B500BFF8BC08BC9E4670474D00000095100000F8B500BFF8BC08BC9E4670472900000000380000C880FF1F8800000008010000BB
:40380000000000005882FF1F0000E02EC05D00001800000000366E010081020804000000000000000000000000000000000000000000000000000000000000000000000019
:40384000943700000000000000000000000000000000000000000000000000000000000000000000000000000000000000000000000000000000000000000000000000007D
:40388000E880FF1F00000000000000000000000000000000000000000000000000000000000000000000000000000000000000000000000000000000000000000000000082
:4038C00000000000000000000000000000000000000000000000000000000000000000000000000000000000000000000000000000000000000000000000000000000000C8
:403900000000000000000000000000000000000000000000000000000000000000000000000000000000000000000000000000000000000000000000000000000000000087
:403940000000000000000000000000000000000000000000000000000000000000000000000000000000000000000000000000000000000000000000000000000000000047
:403980000000000000000000000000000000000000000000000000000000000000000000000000000000000000000000000000000000000000000000000000000000000007
:020000040003F7
:0200000480007A
:40000000044F004002520040016400400365004001030140170401404805014009070140580801403B090140070B0140020D0140040E0140030F01400515014003170140A7
:4000400046180140421901405D1A0140491B014004400140074101400D420140044301400644014004450140054601400247014007480140134901400A4C01400E4D014037
:40008000055001400251014001300A4B0D40163600200160840F883889728B0FEE0A850E87708B019124935B9554972B99089B34B303B53CB740BA20BB20BF40D409D604B9
:4000C000D804D904DB04DC12DD10DF010008020A034009100A421060111012011302180419501A401F20200821342209232424102660284129043120320133443401350472
:40010000362A3701388039143C103F0440044104430148054909514052115D0A5E90622065406740683069146B4A7040815282508344874088108B028C408D109410A00190
:40014000A810B001C00FC20BC40FCA0BCCEFCE6ED007D20CD6F0D894E001E401A602AB20AD10AF08B210B320B501E602E80B022004020608082D0B010C2D1002120D142DFF
:400180001503180D19031A201C10202D2102240126022C022E04300F31033220341039023A023E143F014001470449FF4A074BFF4C404D204EF04F055008544056045804B5
:4001C00059045A045B045C015D125F01604061A862406320800E8101857F89738B0C8D1C8F639065921A950C984499039A099C409D1F9F60A323A413A504A624A902AD0865
:40020000B00FB140B310B470B50FB72CB802B902BA20BBA0BF04D804D904DC21DF01010204080680070608010A040B010C900E400F101210140115801650180819021A0424
:400240001D041E48219022062740280429412A082F4031A83628385639203B083F20474056045718650466A0674087409180931998109AF09B06A940AE50B280B304B6205D
:40028000C0F8C2FBC4B4CA8FCC6ECE2FD010D8F0E880EC60830388108B108F04E020E490EA80AF20EE02B820BE10D804DF011D101F208D10E008E280E401EA05EC10AE0247
:4002C000E202EA02020C03280503070409800A080B1515431603173419431B1C1C0C1E03212A23542401260E28012A062B2031C0330F3538360F39023A803B2854185804CB
:4003000059045B045C225D205F0181448201840285E7871889188D3C8E018FC29304958099C09D1C9FE1A3E3A508A802A9FFAC02AD10B002B11FB401B538B7C0BB02BE102F
:40034000D602D712D804D904DB04DC22DD20DF0101060202060407400E020F2010021110171419211B021E021F4020482301250126282754280829412A082F48300431A0B7
:4003800032013714384239083A203D023F24401C41045A085F0165206640680269347148722890149209944297809A049C049D419E08A180A206A318A480A528A628AE053C
:4003C000C05DC2A0C463CAAFCC6FCEEFD682D830E202EA0800080141033A05E3060409E30C021582172919201BC41E012A043004311032023303340835E03601370C3E1504
:400400003F40403441024206440145E0470C481249FF4AFF4BFF4C624DA04EF04F41500C580459045A045C255D025F016640670269106A306B106D106E106F1281098310FA
:40044000840185148801950C9601971199109A019B0C9E019F03A11CA302A910B001B11FBE01C026C103C5ECC70BC813C9FFCAFFCBFFCEF0CF44D00CD401D804D904DA04F2
:40048000DB04DC20DD22DF01E6C0EA40EB0200080180034007140A010E020F241008188019881B201E4020012128220127402F48300431283754388239243A403D023F080C
:4004C000401543024714480449024C804D014F24500857045D215E4865206704832089088C0190149124920193809402960297049B149C049D029E40A004A101A205A31A1D
:40050000A480A520C06DC2E1C402CAA0CC76CEC7D06FD224D6F0E008E280E405EA05EC10322033083640CC7063806608A301A660AF09D8C0EE503E10630283408640A3013A
:40054000A660A740AA08CE20D640E220E640EE8086209610A620E64013027C208C20C408DE01E00200020302AF02C00A4508A302B001D001EA01A302A508251068018408C3
:400580009610C820DA40E24012201640700877108220864088019B10A008A401AA10AB10B510C430DC80DE20E010E480EAA01210132017087B107F408610A508AF02C40E17
:4005C000DE03128070018001831087408E809780A710AB28B508C408DC01E202EC0800060A060C0610241C24003F03C0028000004300000084000000079838020A021098DB
:40060000569A0900013800C00002000084130064049A000004988002842100D88000040060FC00037FE0000F801302000200000A000050003406200005FEDCB02FFFFFFF3B
:400640002200F008040000000000022404040404111100010000C00040011011C0010011400140010000000000000000000000000000000000606000600000008300508C0E
:400680008F00830000000000000B0B0000000000140001161200000000000000E00000E0E000000008000000250018010000000000000000000000000000000000000000EF
:4006C00000000000000000000000000000000000000000000000000000000000000000000000000000000000000000000000000000000000000000000000000000000000FA
:4007000000000000000000000000000000000000000000000000000000000000000000000000000000000000000000000000000000000000000000000000000000000000B9
:400740000000000000000000000000000000000000000000000000000000000000000000000000000000000000000000000000000000000000000000000000000000000079
:400780000000000000000000000000000000000000000000000000000000000000000000000000000000000000000000000000000000000000000000000000000000000039
:0200000490006A
:0400000000004005B7
:0200000490105A
:04000000BC90ACAF55
:0200000490303A
:02000000E0FF1F
:0200000490402A
:4000000000000000000000000000000000000000000000000000000000000000000000000000000000000000000000000000000000000000000000000000000000000000C0
:400040000000000000000000000000000000000000000000000000000000000000000000000000000000000000000000000000000000000000000000000000000000000080
:400080000000000000000000000000000000000000000000000000000000000000000000000000000000000000000000000000000000000000000000000000000000000040
:4000C0000000000000000000000000000000000000000000000000000000000000000000000000000000000000000000000000000000000000000000000000000000000000
:0200000490501A
:0C00000000012E16106900012E2CF16882
:00000001FF